{
	"contract/escrow _contarct.sol": {
		"DeliveryEscrow": {
			"abi": [
				{
					"anonymous": false,
					"inputs": [
						{
							"indexed": false,
							"internalType": "uint256",
							"name": "jobId",
							"type": "uint256"
						}
					],
					"name": "DeliveryConfirmed",
					"type": "event"
				},
				{
					"anonymous": false,
					"inputs": [
						{
							"indexed": false,
							"internalType": "uint256",
							"name": "jobId",
							"type": "uint256"
						},
						{
							"indexed": false,
							"internalType": "address",
							"name": "client",
							"type": "address"
						},
						{
							"indexed": false,
							"internalType": "address",
							"name": "contractor",
							"type": "address"
						},
						{
							"indexed": false,
							"internalType": "uint256",
							"name": "amount",
							"type": "uint256"
						},
						{
							"indexed": false,
							"internalType": "string",
							"name": "itemDetails",
							"type": "string"
						}
					],
					"name": "EscrowCreated",
					"type": "event"
				},
				{
					"anonymous": false,
					"inputs": [
						{
							"indexed": false,
							"internalType": "uint256",
							"name": "jobId",
							"type": "uint256"
						},
						{
							"indexed": false,
							"internalType": "address",
							"name": "contractor",
							"type": "address"
						},
						{
							"indexed": false,
							"internalType": "uint256",
							"name": "amount",
							"type": "uint256"
						}
					],
					"name": "PaymentReleased",
					"type": "event"
				},
				{
					"inputs": [
						{
							"internalType": "uint256",
							"name": "jobId",
							"type": "uint256"
						}
					],
					"name": "confirmDelivery",
					"outputs": [],
					"stateMutability": "nonpayable",
					"type": "function"
				},
				{
					"inputs": [
						{
							"internalType": "uint256",
							"name": "jobId",
							"type": "uint256"
						},
						{
							"internalType": "address payable",
							"name": "contractor",
							"type": "address"
						},
						{
							"internalType": "string",
							"name": "itemDetails",
							"type": "string"
						}
					],
					"name": "createEscrow",
					"outputs": [],
					"stateMutability": "payable",
					"type": "function"
				},
				{
					"inputs": [
						{
							"internalType": "uint256",
							"name": "",
							"type": "uint256"
						}
					],
					"name": "deliveries",
					"outputs": [
						{
							"internalType": "address payable",
							"name": "client",
							"type": "address"
						},
						{
							"internalType": "address payable",
							"name": "contractor",
							"type": "address"
						},
						{
							"internalType": "string",
							"name": "itemDetails",
							"type": "string"
						},
						{
							"internalType": "uint256",
							"name": "amount",
							"type": "uint256"
						},
						{
							"internalType": "bool",
							"name": "completed",
							"type": "bool"
						},
						{
							"internalType": "bool",
							"name": "fundsReleased",
							"type": "bool"
						}
					],
					"stateMutability": "view",
					"type": "function"
				},
				{
					"inputs": [
						{
							"internalType": "uint256",
							"name": "jobId",
							"type": "uint256"
						}
					],
					"name": "getDeliveryDetails",
					"outputs": [
						{
							"internalType": "address",
							"name": "client",
							"type": "address"
						},
						{
							"internalType": "address",
							"name": "contractor",
							"type": "address"
						},
						{
							"internalType": "string",
							"name": "itemDetails",
							"type": "string"
						},
						{
							"internalType": "uint256",
							"name": "amount",
							"type": "uint256"
						},
						{
							"internalType": "bool",
							"name": "completed",
							"type": "bool"
						},
						{
							"internalType": "bool",
							"name": "fundsReleased",
							"type": "bool"
						}
					],
					"stateMutability": "view",
					"type": "function"
				},
				{
					"inputs": [
						{
							"internalType": "uint256",
							"name": "jobId",
							"type": "uint256"
						}
					],
					"name": "releasePayment",
					"outputs": [],
					"stateMutability": "nonpayable",
					"type": "function"
				}
			],
			"devdoc": {
				"kind": "dev",
				"methods": {},
				"version": 1
			},
			"evm": {
				"assembly": "    /* \"contract/escrow _contarct.sol\":61:2772  contract DeliveryEscrow {... */\n  mstore(0x40, 0x80)\n  callvalue\n  dup1\n  iszero\n  tag_1\n  jumpi\n  0x00\n  dup1\n  revert\ntag_1:\n  pop\n  dataSize(sub_0)\n  dup1\n  dataOffset(sub_0)\n  0x00\n  codecopy\n  0x00\n  return\nstop\n\nsub_0: assembly {\n        /* \"contract/escrow _contarct.sol\":61:2772  contract DeliveryEscrow {... */\n      mstore(0x40, 0x80)\n      jumpi(tag_1, lt(calldatasize, 0x04))\n      shr(0xe0, calldataload(0x00))\n      dup1\n      0x5ca5f219\n      eq\n      tag_2\n      jumpi\n      dup1\n      0x88685cd9\n      eq\n      tag_3\n      jumpi\n      dup1\n      0xa9e4a324\n      eq\n      tag_4\n      jumpi\n      dup1\n      0xcb3918a8\n      eq\n      tag_5\n      jumpi\n      dup1\n      0xfd84cb97\n      eq\n      tag_6\n      jumpi\n    tag_1:\n      0x00\n      dup1\n      revert\n        /* \"contract/escrow _contarct.sol\":912:1564  function createEscrow(uint256 jobId, address payable contractor, string memory itemDetails) external payable {... */\n    tag_2:\n      tag_7\n      0x04\n      dup1\n      calldatasize\n      sub\n      dup2\n      add\n      swap1\n      tag_8\n      swap2\n      swap1\n      tag_9\n      jump\t// in\n    tag_8:\n      tag_10\n      jump\t// in\n    tag_7:\n      stop\n        /* \"contract/escrow _contarct.sol\":1856:2342  function releasePayment(uint256 jobId) external onlyClient(jobId) onlyIfExists(jobId) {... */\n    tag_3:\n      callvalue\n      dup1\n      iszero\n      tag_11\n      jumpi\n      0x00\n      dup1\n      revert\n    tag_11:\n      pop\n      tag_12\n      0x04\n      dup1\n      calldatasize\n      sub\n      dup2\n      add\n      swap1\n      tag_13\n      swap2\n      swap1\n      tag_14\n      jump\t// in\n    tag_13:\n      tag_15\n      jump\t// in\n    tag_12:\n      stop\n        /* \"contract/escrow _contarct.sol\":302:348  mapping(uint256 => Delivery) public deliveries */\n    tag_4:\n      callvalue\n      dup1\n      iszero\n      tag_16\n      jumpi\n      0x00\n      dup1\n      revert\n    tag_16:\n      pop\n      tag_17\n      0x04\n      dup1\n      calldatasize\n      sub\n      dup2\n      add\n      swap1\n      tag_18\n      swap2\n      swap1\n      tag_14\n      jump\t// in\n    tag_18:\n      tag_19\n      jump\t// in\n    tag_17:\n      mload(0x40)\n      tag_20\n      swap7\n      swap6\n      swap5\n      swap4\n      swap3\n      swap2\n      swap1\n      tag_21\n      jump\t// in\n    tag_20:\n      mload(0x40)\n      dup1\n      swap2\n      sub\n      swap1\n      return\n        /* \"contract/escrow _contarct.sol\":2354:2769  function getDeliveryDetails(uint256 jobId) external view onlyIfExists(jobId) returns (... */\n    tag_5:\n      callvalue\n      dup1\n      iszero\n      tag_22\n      jumpi\n      0x00\n      dup1\n      revert\n    tag_22:\n      pop\n      tag_23\n      0x04\n      dup1\n      calldatasize\n      sub\n      dup2\n      add\n      swap1\n      tag_24\n      swap2\n      swap1\n      tag_14\n      jump\t// in\n    tag_24:\n      tag_25\n      jump\t// in\n    tag_23:\n      mload(0x40)\n      tag_26\n      swap7\n      swap6\n      swap5\n      swap4\n      swap3\n      swap2\n      swap1\n      tag_27\n      jump\t// in\n    tag_26:\n      mload(0x40)\n      dup1\n      swap2\n      sub\n      swap1\n      return\n        /* \"contract/escrow _contarct.sol\":1576:1844  function confirmDelivery(uint256 jobId) external onlyClient(jobId) onlyIfExists(jobId) {... */\n    tag_6:\n      callvalue\n      dup1\n      iszero\n      tag_28\n      jumpi\n      0x00\n      dup1\n      revert\n    tag_28:\n      pop\n      tag_29\n      0x04\n      dup1\n      calldatasize\n      sub\n      dup2\n      add\n      swap1\n      tag_30\n      swap2\n      swap1\n      tag_14\n      jump\t// in\n    tag_30:\n      tag_31\n      jump\t// in\n    tag_29:\n      stop\n        /* \"contract/escrow _contarct.sol\":912:1564  function createEscrow(uint256 jobId, address payable contractor, string memory itemDetails) external payable {... */\n    tag_10:\n        /* \"contract/escrow _contarct.sol\":1052:1053  0 */\n      0x00\n        /* \"contract/escrow _contarct.sol\":1040:1049  msg.value */\n      callvalue\n        /* \"contract/escrow _contarct.sol\":1040:1053  msg.value > 0 */\n      gt\n        /* \"contract/escrow _contarct.sol\":1032:1097  require(msg.value > 0, \"Escrow amount must be greater than zero\") */\n      tag_33\n      jumpi\n      mload(0x40)\n      0x08c379a000000000000000000000000000000000000000000000000000000000\n      dup2\n      mstore\n      0x04\n      add\n      tag_34\n      swap1\n      tag_35\n      jump\t// in\n    tag_34:\n      mload(0x40)\n      dup1\n      swap2\n      sub\n      swap1\n      revert\n    tag_33:\n        /* \"contract/escrow _contarct.sol\":1144:1145  0 */\n      0x00\n        /* \"contract/escrow _contarct.sol\":1116:1126  deliveries */\n      dup1\n        /* \"contract/escrow _contarct.sol\":1116:1133  deliveries[jobId] */\n      0x00\n        /* \"contract/escrow _contarct.sol\":1127:1132  jobId */\n      dup6\n        /* \"contract/escrow _contarct.sol\":1116:1133  deliveries[jobId] */\n      dup2\n      mstore\n      0x20\n      add\n      swap1\n      dup2\n      mstore\n      0x20\n      add\n      0x00\n      keccak256\n        /* \"contract/escrow _contarct.sol\":1116:1140  deliveries[jobId].amount */\n      0x03\n      add\n      sload\n        /* \"contract/escrow _contarct.sol\":1116:1145  deliveries[jobId].amount == 0 */\n      eq\n        /* \"contract/escrow _contarct.sol\":1108:1184  require(deliveries[jobId].amount == 0, \"Escrow already exists for this job\") */\n      tag_36\n      jumpi\n      mload(0x40)\n      0x08c379a000000000000000000000000000000000000000000000000000000000\n      dup2\n      mstore\n      0x04\n      add\n      tag_37\n      swap1\n      tag_38\n      jump\t// in\n    tag_37:\n      mload(0x40)\n      dup1\n      swap2\n      sub\n      swap1\n      revert\n    tag_36:\n        /* \"contract/escrow _contarct.sol\":1225:1462  Delivery({... */\n      mload(0x40)\n      dup1\n      0xc0\n      add\n      0x40\n      mstore\n      dup1\n        /* \"contract/escrow _contarct.sol\":1265:1275  msg.sender */\n      caller\n        /* \"contract/escrow _contarct.sol\":1225:1462  Delivery({... */\n      0xffffffffffffffffffffffffffffffffffffffff\n      and\n      dup2\n      mstore\n      0x20\n      add\n        /* \"contract/escrow _contarct.sol\":1303:1313  contractor */\n      dup4\n        /* \"contract/escrow _contarct.sol\":1225:1462  Delivery({... */\n      0xffffffffffffffffffffffffffffffffffffffff\n      and\n      dup2\n      mstore\n      0x20\n      add\n        /* \"contract/escrow _contarct.sol\":1341:1352  itemDetails */\n      dup3\n        /* \"contract/escrow _contarct.sol\":1225:1462  Delivery({... */\n      dup2\n      mstore\n      0x20\n      add\n        /* \"contract/escrow _contarct.sol\":1375:1384  msg.value */\n      callvalue\n        /* \"contract/escrow _contarct.sol\":1225:1462  Delivery({... */\n      dup2\n      mstore\n      0x20\n      add\n        /* \"contract/escrow _contarct.sol\":1410:1415  false */\n      0x00\n        /* \"contract/escrow _contarct.sol\":1225:1462  Delivery({... */\n      iszero\n      iszero\n      dup2\n      mstore\n      0x20\n      add\n        /* \"contract/escrow _contarct.sol\":1445:1450  false */\n      0x00\n        /* \"contract/escrow _contarct.sol\":1225:1462  Delivery({... */\n      iszero\n      iszero\n      dup2\n      mstore\n      pop\n        /* \"contract/escrow _contarct.sol\":1205:1215  deliveries */\n      0x00\n        /* \"contract/escrow _contarct.sol\":1205:1222  deliveries[jobId] */\n      dup1\n        /* \"contract/escrow _contarct.sol\":1216:1221  jobId */\n      dup6\n        /* \"contract/escrow _contarct.sol\":1205:1222  deliveries[jobId] */\n      dup2\n      mstore\n      0x20\n      add\n      swap1\n      dup2\n      mstore\n      0x20\n      add\n      0x00\n      keccak256\n        /* \"contract/escrow _contarct.sol\":1205:1462  deliveries[jobId] = Delivery({... */\n      0x00\n      dup3\n      add\n      mload\n      dup2\n      0x00\n      add\n      exp(0x0100, 0x00)\n      dup2\n      sload\n      dup2\n      0xffffffffffffffffffffffffffffffffffffffff\n      mul\n      not\n      and\n      swap1\n      dup4\n      0xffffffffffffffffffffffffffffffffffffffff\n      and\n      mul\n      or\n      swap1\n      sstore\n      pop\n      0x20\n      dup3\n      add\n      mload\n      dup2\n      0x01\n      add\n      exp(0x0100, 0x00)\n      dup2\n      sload\n      dup2\n      0xffffffffffffffffffffffffffffffffffffffff\n      mul\n      not\n      and\n      swap1\n      dup4\n      0xffffffffffffffffffffffffffffffffffffffff\n      and\n      mul\n      or\n      swap1\n      sstore\n      pop\n      0x40\n      dup3\n      add\n      mload\n      dup2\n      0x02\n      add\n      swap1\n      dup2\n      tag_39\n      swap2\n      swap1\n      tag_40\n      jump\t// in\n    tag_39:\n      pop\n      0x60\n      dup3\n      add\n      mload\n      dup2\n      0x03\n      add\n      sstore\n      0x80\n      dup3\n      add\n      mload\n      dup2\n      0x04\n      add\n      exp(0x0100, 0x00)\n      dup2\n      sload\n      dup2\n      0xff\n      mul\n      not\n      and\n      swap1\n      dup4\n      iszero\n      iszero\n      mul\n      or\n      swap1\n      sstore\n      pop\n      0xa0\n      dup3\n      add\n      mload\n      dup2\n      0x04\n      add\n      exp(0x0100, 0x01)\n      dup2\n      sload\n      dup2\n      0xff\n      mul\n      not\n      and\n      swap1\n      dup4\n      iszero\n      iszero\n      mul\n      or\n      swap1\n      sstore\n      pop\n      swap1\n      pop\n      pop\n        /* \"contract/escrow _contarct.sol\":1488:1556  EscrowCreated(jobId, msg.sender, contractor, msg.value, itemDetails) */\n      0x079316c6cb044ce8147d3a031eb8c26e06754da3a9393a80d7619a0e1269675f\n        /* \"contract/escrow _contarct.sol\":1502:1507  jobId */\n      dup4\n        /* \"contract/escrow _contarct.sol\":1509:1519  msg.sender */\n      caller\n        /* \"contract/escrow _contarct.sol\":1521:1531  contractor */\n      dup5\n        /* \"contract/escrow _contarct.sol\":1533:1542  msg.value */\n      callvalue\n        /* \"contract/escrow _contarct.sol\":1544:1555  itemDetails */\n      dup6\n        /* \"contract/escrow _contarct.sol\":1488:1556  EscrowCreated(jobId, msg.sender, contractor, msg.value, itemDetails) */\n      mload(0x40)\n      tag_41\n      swap6\n      swap5\n      swap4\n      swap3\n      swap2\n      swap1\n      tag_42\n      jump\t// in\n    tag_41:\n      mload(0x40)\n      dup1\n      swap2\n      sub\n      swap1\n      log1\n        /* \"contract/escrow _contarct.sol\":912:1564  function createEscrow(uint256 jobId, address payable contractor, string memory itemDetails) external payable {... */\n      pop\n      pop\n      pop\n      jump\t// out\n        /* \"contract/escrow _contarct.sol\":1856:2342  function releasePayment(uint256 jobId) external onlyClient(jobId) onlyIfExists(jobId) {... */\n    tag_15:\n        /* \"contract/escrow _contarct.sol\":1915:1920  jobId */\n      dup1\n        /* \"contract/escrow _contarct.sol\":672:682  deliveries */\n      0x00\n        /* \"contract/escrow _contarct.sol\":672:689  deliveries[jobId] */\n      dup1\n        /* \"contract/escrow _contarct.sol\":683:688  jobId */\n      dup3\n        /* \"contract/escrow _contarct.sol\":672:689  deliveries[jobId] */\n      dup2\n      mstore\n      0x20\n      add\n      swap1\n      dup2\n      mstore\n      0x20\n      add\n      0x00\n      keccak256\n        /* \"contract/escrow _contarct.sol\":672:696  deliveries[jobId].client */\n      0x00\n      add\n      0x00\n      swap1\n      sload\n      swap1\n      0x0100\n      exp\n      swap1\n      div\n      0xffffffffffffffffffffffffffffffffffffffff\n      and\n        /* \"contract/escrow _contarct.sol\":658:696  msg.sender == deliveries[jobId].client */\n      0xffffffffffffffffffffffffffffffffffffffff\n      and\n        /* \"contract/escrow _contarct.sol\":658:668  msg.sender */\n      caller\n        /* \"contract/escrow _contarct.sol\":658:696  msg.sender == deliveries[jobId].client */\n      0xffffffffffffffffffffffffffffffffffffffff\n      and\n      eq\n        /* \"contract/escrow _contarct.sol\":650:736  require(msg.sender == deliveries[jobId].client, \"Only client can perform this action\") */\n      tag_44\n      jumpi\n      mload(0x40)\n      0x08c379a000000000000000000000000000000000000000000000000000000000\n      dup2\n      mstore\n      0x04\n      add\n      tag_45\n      swap1\n      tag_46\n      jump\t// in\n    tag_45:\n      mload(0x40)\n      dup1\n      swap2\n      sub\n      swap1\n      revert\n    tag_44:\n        /* \"contract/escrow _contarct.sol\":1935:1940  jobId */\n      dup2\n        /* \"contract/escrow _contarct.sol\":851:852  0 */\n      0x00\n        /* \"contract/escrow _contarct.sol\":824:834  deliveries */\n      dup1\n        /* \"contract/escrow _contarct.sol\":824:841  deliveries[jobId] */\n      0x00\n        /* \"contract/escrow _contarct.sol\":835:840  jobId */\n      dup4\n        /* \"contract/escrow _contarct.sol\":824:841  deliveries[jobId] */\n      dup2\n      mstore\n      0x20\n      add\n      swap1\n      dup2\n      mstore\n      0x20\n      add\n      0x00\n      keccak256\n        /* \"contract/escrow _contarct.sol\":824:848  deliveries[jobId].amount */\n      0x03\n      add\n      sload\n        /* \"contract/escrow _contarct.sol\":824:852  deliveries[jobId].amount > 0 */\n      gt\n        /* \"contract/escrow _contarct.sol\":816:880  require(deliveries[jobId].amount > 0, \"Delivery does not exist\") */\n      tag_48\n      jumpi\n      mload(0x40)\n      0x08c379a000000000000000000000000000000000000000000000000000000000\n      dup2\n      mstore\n      0x04\n      add\n      tag_49\n      swap1\n      tag_50\n      jump\t// in\n    tag_49:\n      mload(0x40)\n      dup1\n      swap2\n      sub\n      swap1\n      revert\n    tag_48:\n        /* \"contract/escrow _contarct.sol\":1961:1971  deliveries */\n      0x00\n        /* \"contract/escrow _contarct.sol\":1961:1978  deliveries[jobId] */\n      dup1\n        /* \"contract/escrow _contarct.sol\":1972:1977  jobId */\n      dup5\n        /* \"contract/escrow _contarct.sol\":1961:1978  deliveries[jobId] */\n      dup2\n      mstore\n      0x20\n      add\n      swap1\n      dup2\n      mstore\n      0x20\n      add\n      0x00\n      keccak256\n        /* \"contract/escrow _contarct.sol\":1961:1988  deliveries[jobId].completed */\n      0x04\n      add\n      0x00\n      swap1\n      sload\n      swap1\n      0x0100\n      exp\n      swap1\n      div\n      0xff\n      and\n        /* \"contract/escrow _contarct.sol\":1953:2019  require(deliveries[jobId].completed, \"Delivery not confirmed yet\") */\n      tag_52\n      jumpi\n      mload(0x40)\n      0x08c379a000000000000000000000000000000000000000000000000000000000\n      dup2\n      mstore\n      0x04\n      add\n      tag_53\n      swap1\n      tag_54\n      jump\t// in\n    tag_53:\n      mload(0x40)\n      dup1\n      swap2\n      sub\n      swap1\n      revert\n    tag_52:\n        /* \"contract/escrow _contarct.sol\":2039:2049  deliveries */\n      0x00\n        /* \"contract/escrow _contarct.sol\":2039:2056  deliveries[jobId] */\n      dup1\n        /* \"contract/escrow _contarct.sol\":2050:2055  jobId */\n      dup5\n        /* \"contract/escrow _contarct.sol\":2039:2056  deliveries[jobId] */\n      dup2\n      mstore\n      0x20\n      add\n      swap1\n      dup2\n      mstore\n      0x20\n      add\n      0x00\n      keccak256\n        /* \"contract/escrow _contarct.sol\":2039:2070  deliveries[jobId].fundsReleased */\n      0x04\n      add\n      0x01\n      swap1\n      sload\n      swap1\n      0x0100\n      exp\n      swap1\n      div\n      0xff\n      and\n        /* \"contract/escrow _contarct.sol\":2038:2070  !deliveries[jobId].fundsReleased */\n      iszero\n        /* \"contract/escrow _contarct.sol\":2030:2097  require(!deliveries[jobId].fundsReleased, \"Funds already released\") */\n      tag_55\n      jumpi\n      mload(0x40)\n      0x08c379a000000000000000000000000000000000000000000000000000000000\n      dup2\n      mstore\n      0x04\n      add\n      tag_56\n      swap1\n      tag_57\n      jump\t// in\n    tag_56:\n      mload(0x40)\n      dup1\n      swap2\n      sub\n      swap1\n      revert\n    tag_55:\n        /* \"contract/escrow _contarct.sol\":2152:2156  true */\n      0x01\n        /* \"contract/escrow _contarct.sol\":2118:2128  deliveries */\n      0x00\n        /* \"contract/escrow _contarct.sol\":2118:2135  deliveries[jobId] */\n      dup1\n        /* \"contract/escrow _contarct.sol\":2129:2134  jobId */\n      dup6\n        /* \"contract/escrow _contarct.sol\":2118:2135  deliveries[jobId] */\n      dup2\n      mstore\n      0x20\n      add\n      swap1\n      dup2\n      mstore\n      0x20\n      add\n      0x00\n      keccak256\n        /* \"contract/escrow _contarct.sol\":2118:2149  deliveries[jobId].fundsReleased */\n      0x04\n      add\n      0x01\n        /* \"contract/escrow _contarct.sol\":2118:2156  deliveries[jobId].fundsReleased = true */\n      0x0100\n      exp\n      dup2\n      sload\n      dup2\n      0xff\n      mul\n      not\n      and\n      swap1\n      dup4\n      iszero\n      iszero\n      mul\n      or\n      swap1\n      sstore\n      pop\n        /* \"contract/escrow _contarct.sol\":2167:2177  deliveries */\n      0x00\n        /* \"contract/escrow _contarct.sol\":2167:2184  deliveries[jobId] */\n      dup1\n        /* \"contract/escrow _contarct.sol\":2178:2183  jobId */\n      dup5\n        /* \"contract/escrow _contarct.sol\":2167:2184  deliveries[jobId] */\n      dup2\n      mstore\n      0x20\n      add\n      swap1\n      dup2\n      mstore\n      0x20\n      add\n      0x00\n      keccak256\n        /* \"contract/escrow _contarct.sol\":2167:2195  deliveries[jobId].contractor */\n      0x01\n      add\n      0x00\n      swap1\n      sload\n      swap1\n      0x0100\n      exp\n      swap1\n      div\n      0xffffffffffffffffffffffffffffffffffffffff\n      and\n        /* \"contract/escrow _contarct.sol\":2167:2204  deliveries[jobId].contractor.transfer */\n      0xffffffffffffffffffffffffffffffffffffffff\n      and\n        /* \"contract/escrow _contarct.sol\":2167:2230  deliveries[jobId].contractor.transfer(deliveries[jobId].amount) */\n      0x08fc\n        /* \"contract/escrow _contarct.sol\":2205:2215  deliveries */\n      0x00\n        /* \"contract/escrow _contarct.sol\":2205:2222  deliveries[jobId] */\n      dup1\n        /* \"contract/escrow _contarct.sol\":2216:2221  jobId */\n      dup7\n        /* \"contract/escrow _contarct.sol\":2205:2222  deliveries[jobId] */\n      dup2\n      mstore\n      0x20\n      add\n      swap1\n      dup2\n      mstore\n      0x20\n      add\n      0x00\n      keccak256\n        /* \"contract/escrow _contarct.sol\":2205:2229  deliveries[jobId].amount */\n      0x03\n      add\n      sload\n        /* \"contract/escrow _contarct.sol\":2167:2230  deliveries[jobId].contractor.transfer(deliveries[jobId].amount) */\n      swap1\n      dup2\n      iszero\n      mul\n      swap1\n      mload(0x40)\n      0x00\n      mload(0x40)\n      dup1\n      dup4\n      sub\n      dup2\n      dup6\n      dup9\n      dup9\n      call\n      swap4\n      pop\n      pop\n      pop\n      pop\n      iszero\n      dup1\n      iszero\n      tag_59\n      jumpi\n      returndatasize\n      0x00\n      dup1\n      returndatacopy\n      revert(0x00, returndatasize)\n    tag_59:\n      pop\n        /* \"contract/escrow _contarct.sol\":2256:2334  PaymentReleased(jobId, deliveries[jobId].contractor, deliveries[jobId].amount) */\n      0x21d71db5be59bb9fa133895586b7404307dd33fb93b16db09dc6f1d9d7d231b0\n        /* \"contract/escrow _contarct.sol\":2272:2277  jobId */\n      dup4\n        /* \"contract/escrow _contarct.sol\":2279:2289  deliveries */\n      0x00\n        /* \"contract/escrow _contarct.sol\":2279:2296  deliveries[jobId] */\n      dup1\n        /* \"contract/escrow _contarct.sol\":2290:2295  jobId */\n      dup7\n        /* \"contract/escrow _contarct.sol\":2279:2296  deliveries[jobId] */\n      dup2\n      mstore\n      0x20\n      add\n      swap1\n      dup2\n      mstore\n      0x20\n      add\n      0x00\n      keccak256\n        /* \"contract/escrow _contarct.sol\":2279:2307  deliveries[jobId].contractor */\n      0x01\n      add\n      0x00\n      swap1\n      sload\n      swap1\n      0x0100\n      exp\n      swap1\n      div\n      0xffffffffffffffffffffffffffffffffffffffff\n      and\n        /* \"contract/escrow _contarct.sol\":2309:2319  deliveries */\n      0x00\n        /* \"contract/escrow _contarct.sol\":2309:2326  deliveries[jobId] */\n      dup1\n        /* \"contract/escrow _contarct.sol\":2320:2325  jobId */\n      dup8\n        /* \"contract/escrow _contarct.sol\":2309:2326  deliveries[jobId] */\n      dup2\n      mstore\n      0x20\n      add\n      swap1\n      dup2\n      mstore\n      0x20\n      add\n      0x00\n      keccak256\n        /* \"contract/escrow _contarct.sol\":2309:2333  deliveries[jobId].amount */\n      0x03\n      add\n      sload\n        /* \"contract/escrow _contarct.sol\":2256:2334  PaymentReleased(jobId, deliveries[jobId].contractor, deliveries[jobId].amount) */\n      mload(0x40)\n      tag_60\n      swap4\n      swap3\n      swap2\n      swap1\n      tag_61\n      jump\t// in\n    tag_60:\n      mload(0x40)\n      dup1\n      swap2\n      sub\n      swap1\n      log1\n        /* \"contract/escrow _contarct.sol\":747:748  _ */\n      pop\n        /* \"contract/escrow _contarct.sol\":1856:2342  function releasePayment(uint256 jobId) external onlyClient(jobId) onlyIfExists(jobId) {... */\n      pop\n      pop\n      jump\t// out\n        /* \"contract/escrow _contarct.sol\":302:348  mapping(uint256 => Delivery) public deliveries */\n    tag_19:\n      mstore(0x20, 0x00)\n      dup1\n      0x00\n      mstore\n      keccak256(0x00, 0x40)\n      0x00\n      swap2\n      pop\n      swap1\n      pop\n      dup1\n      0x00\n      add\n      0x00\n      swap1\n      sload\n      swap1\n      0x0100\n      exp\n      swap1\n      div\n      0xffffffffffffffffffffffffffffffffffffffff\n      and\n      swap1\n      dup1\n      0x01\n      add\n      0x00\n      swap1\n      sload\n      swap1\n      0x0100\n      exp\n      swap1\n      div\n      0xffffffffffffffffffffffffffffffffffffffff\n      and\n      swap1\n      dup1\n      0x02\n      add\n      dup1\n      sload\n      tag_62\n      swap1\n      tag_63\n      jump\t// in\n    tag_62:\n      dup1\n      0x1f\n      add\n      0x20\n      dup1\n      swap2\n      div\n      mul\n      0x20\n      add\n      mload(0x40)\n      swap1\n      dup2\n      add\n      0x40\n      mstore\n      dup1\n      swap3\n      swap2\n      swap1\n      dup2\n      dup2\n      mstore\n      0x20\n      add\n      dup3\n      dup1\n      sload\n      tag_64\n      swap1\n      tag_63\n      jump\t// in\n    tag_64:\n      dup1\n      iszero\n      tag_65\n      jumpi\n      dup1\n      0x1f\n      lt\n      tag_66\n      jumpi\n      0x0100\n      dup1\n      dup4\n      sload\n      div\n      mul\n      dup4\n      mstore\n      swap2\n      0x20\n      add\n      swap2\n      jump(tag_65)\n    tag_66:\n      dup3\n      add\n      swap2\n      swap1\n      0x00\n      mstore\n      keccak256(0x00, 0x20)\n      swap1\n    tag_67:\n      dup2\n      sload\n      dup2\n      mstore\n      swap1\n      0x01\n      add\n      swap1\n      0x20\n      add\n      dup1\n      dup4\n      gt\n      tag_67\n      jumpi\n      dup3\n      swap1\n      sub\n      0x1f\n      and\n      dup3\n      add\n      swap2\n    tag_65:\n      pop\n      pop\n      pop\n      pop\n      pop\n      swap1\n      dup1\n      0x03\n      add\n      sload\n      swap1\n      dup1\n      0x04\n      add\n      0x00\n      swap1\n      sload\n      swap1\n      0x0100\n      exp\n      swap1\n      div\n      0xff\n      and\n      swap1\n      dup1\n      0x04\n      add\n      0x01\n      swap1\n      sload\n      swap1\n      0x0100\n      exp\n      swap1\n      div\n      0xff\n      and\n      swap1\n      pop\n      dup7\n      jump\t// out\n        /* \"contract/escrow _contarct.sol\":2354:2769  function getDeliveryDetails(uint256 jobId) external view onlyIfExists(jobId) returns (... */\n    tag_25:\n        /* \"contract/escrow _contarct.sol\":2450:2464  address client */\n      0x00\n        /* \"contract/escrow _contarct.sol\":2475:2493  address contractor */\n      dup1\n        /* \"contract/escrow _contarct.sol\":2504:2529  string memory itemDetails */\n      0x60\n        /* \"contract/escrow _contarct.sol\":2540:2554  uint256 amount */\n      0x00\n        /* \"contract/escrow _contarct.sol\":2565:2579  bool completed */\n      dup1\n        /* \"contract/escrow _contarct.sol\":2590:2608  bool fundsReleased */\n      0x00\n        /* \"contract/escrow _contarct.sol\":2424:2429  jobId */\n      dup7\n        /* \"contract/escrow _contarct.sol\":851:852  0 */\n      0x00\n        /* \"contract/escrow _contarct.sol\":824:834  deliveries */\n      dup1\n        /* \"contract/escrow _contarct.sol\":824:841  deliveries[jobId] */\n      0x00\n        /* \"contract/escrow _contarct.sol\":835:840  jobId */\n      dup4\n        /* \"contract/escrow _contarct.sol\":824:841  deliveries[jobId] */\n      dup2\n      mstore\n      0x20\n      add\n      swap1\n      dup2\n      mstore\n      0x20\n      add\n      0x00\n      keccak256\n        /* \"contract/escrow _contarct.sol\":824:848  deliveries[jobId].amount */\n      0x03\n      add\n      sload\n        /* \"contract/escrow _contarct.sol\":824:852  deliveries[jobId].amount > 0 */\n      gt\n        /* \"contract/escrow _contarct.sol\":816:880  require(deliveries[jobId].amount > 0, \"Delivery does not exist\") */\n      tag_69\n      jumpi\n      mload(0x40)\n      0x08c379a000000000000000000000000000000000000000000000000000000000\n      dup2\n      mstore\n      0x04\n      add\n      tag_70\n      swap1\n      tag_50\n      jump\t// in\n    tag_70:\n      mload(0x40)\n      dup1\n      swap2\n      sub\n      swap1\n      revert\n    tag_69:\n        /* \"contract/escrow _contarct.sol\":2627:2644  Delivery memory d */\n      0x00\n        /* \"contract/escrow _contarct.sol\":2647:2657  deliveries */\n      dup1\n        /* \"contract/escrow _contarct.sol\":2647:2664  deliveries[jobId] */\n      0x00\n        /* \"contract/escrow _contarct.sol\":2658:2663  jobId */\n      dup11\n        /* \"contract/escrow _contarct.sol\":2647:2664  deliveries[jobId] */\n      dup2\n      mstore\n      0x20\n      add\n      swap1\n      dup2\n      mstore\n      0x20\n      add\n      0x00\n      keccak256\n        /* \"contract/escrow _contarct.sol\":2627:2664  Delivery memory d = deliveries[jobId] */\n      mload(0x40)\n      dup1\n      0xc0\n      add\n      0x40\n      mstore\n      swap1\n      dup2\n      0x00\n      dup3\n      add\n      0x00\n      swap1\n      sload\n      swap1\n      0x0100\n      exp\n      swap1\n      div\n      0xffffffffffffffffffffffffffffffffffffffff\n      and\n      0xffffffffffffffffffffffffffffffffffffffff\n      and\n      0xffffffffffffffffffffffffffffffffffffffff\n      and\n      dup2\n      mstore\n      0x20\n      add\n      0x01\n      dup3\n      add\n      0x00\n      swap1\n      sload\n      swap1\n      0x0100\n      exp\n      swap1\n      div\n      0xffffffffffffffffffffffffffffffffffffffff\n      and\n      0xffffffffffffffffffffffffffffffffffffffff\n      and\n      0xffffffffffffffffffffffffffffffffffffffff\n      and\n      dup2\n      mstore\n      0x20\n      add\n      0x02\n      dup3\n      add\n      dup1\n      sload\n      tag_72\n      swap1\n      tag_63\n      jump\t// in\n    tag_72:\n      dup1\n      0x1f\n      add\n      0x20\n      dup1\n      swap2\n      div\n      mul\n      0x20\n      add\n      mload(0x40)\n      swap1\n      dup2\n      add\n      0x40\n      mstore\n      dup1\n      swap3\n      swap2\n      swap1\n      dup2\n      dup2\n      mstore\n      0x20\n      add\n      dup3\n      dup1\n      sload\n      tag_73\n      swap1\n      tag_63\n      jump\t// in\n    tag_73:\n      dup1\n      iszero\n      tag_74\n      jumpi\n      dup1\n      0x1f\n      lt\n      tag_75\n      jumpi\n      0x0100\n      dup1\n      dup4\n      sload\n      div\n      mul\n      dup4\n      mstore\n      swap2\n      0x20\n      add\n      swap2\n      jump(tag_74)\n    tag_75:\n      dup3\n      add\n      swap2\n      swap1\n      0x00\n      mstore\n      keccak256(0x00, 0x20)\n      swap1\n    tag_76:\n      dup2\n      sload\n      dup2\n      mstore\n      swap1\n      0x01\n      add\n      swap1\n      0x20\n      add\n      dup1\n      dup4\n      gt\n      tag_76\n      jumpi\n      dup3\n      swap1\n      sub\n      0x1f\n      and\n      dup3\n      add\n      swap2\n    tag_74:\n      pop\n      pop\n      pop\n      pop\n      pop\n      dup2\n      mstore\n      0x20\n      add\n      0x03\n      dup3\n      add\n      sload\n      dup2\n      mstore\n      0x20\n      add\n      0x04\n      dup3\n      add\n      0x00\n      swap1\n      sload\n      swap1\n      0x0100\n      exp\n      swap1\n      div\n      0xff\n      and\n      iszero\n      iszero\n      iszero\n      iszero\n      dup2\n      mstore\n      0x20\n      add\n      0x04\n      dup3\n      add\n      0x01\n      swap1\n      sload\n      swap1\n      0x0100\n      exp\n      swap1\n      div\n      0xff\n      and\n      iszero\n      iszero\n      iszero\n      iszero\n      dup2\n      mstore\n      pop\n      pop\n      swap1\n      pop\n        /* \"contract/escrow _contarct.sol\":2683:2684  d */\n      dup1\n        /* \"contract/escrow _contarct.sol\":2683:2691  d.client */\n      0x00\n      add\n      mload\n        /* \"contract/escrow _contarct.sol\":2693:2694  d */\n      dup2\n        /* \"contract/escrow _contarct.sol\":2693:2705  d.contractor */\n      0x20\n      add\n      mload\n        /* \"contract/escrow _contarct.sol\":2707:2708  d */\n      dup3\n        /* \"contract/escrow _contarct.sol\":2707:2720  d.itemDetails */\n      0x40\n      add\n      mload\n        /* \"contract/escrow _contarct.sol\":2722:2723  d */\n      dup4\n        /* \"contract/escrow _contarct.sol\":2722:2730  d.amount */\n      0x60\n      add\n      mload\n        /* \"contract/escrow _contarct.sol\":2732:2733  d */\n      dup5\n        /* \"contract/escrow _contarct.sol\":2732:2743  d.completed */\n      0x80\n      add\n      mload\n        /* \"contract/escrow _contarct.sol\":2745:2746  d */\n      dup6\n        /* \"contract/escrow _contarct.sol\":2745:2760  d.fundsReleased */\n      0xa0\n      add\n      mload\n        /* \"contract/escrow _contarct.sol\":2675:2761  return (d.client, d.contractor, d.itemDetails, d.amount, d.completed, d.fundsReleased) */\n      swap8\n      pop\n      swap8\n      pop\n      swap8\n      pop\n      swap8\n      pop\n      swap8\n      pop\n      swap8\n      pop\n      pop\n        /* \"contract/escrow _contarct.sol\":2354:2769  function getDeliveryDetails(uint256 jobId) external view onlyIfExists(jobId) returns (... */\n      pop\n      swap2\n      swap4\n      swap6\n      pop\n      swap2\n      swap4\n      swap6\n      jump\t// out\n        /* \"contract/escrow _contarct.sol\":1576:1844  function confirmDelivery(uint256 jobId) external onlyClient(jobId) onlyIfExists(jobId) {... */\n    tag_31:\n        /* \"contract/escrow _contarct.sol\":1636:1641  jobId */\n      dup1\n        /* \"contract/escrow _contarct.sol\":672:682  deliveries */\n      0x00\n        /* \"contract/escrow _contarct.sol\":672:689  deliveries[jobId] */\n      dup1\n        /* \"contract/escrow _contarct.sol\":683:688  jobId */\n      dup3\n        /* \"contract/escrow _contarct.sol\":672:689  deliveries[jobId] */\n      dup2\n      mstore\n      0x20\n      add\n      swap1\n      dup2\n      mstore\n      0x20\n      add\n      0x00\n      keccak256\n        /* \"contract/escrow _contarct.sol\":672:696  deliveries[jobId].client */\n      0x00\n      add\n      0x00\n      swap1\n      sload\n      swap1\n      0x0100\n      exp\n      swap1\n      div\n      0xffffffffffffffffffffffffffffffffffffffff\n      and\n        /* \"contract/escrow _contarct.sol\":658:696  msg.sender == deliveries[jobId].client */\n      0xffffffffffffffffffffffffffffffffffffffff\n      and\n        /* \"contract/escrow _contarct.sol\":658:668  msg.sender */\n      caller\n        /* \"contract/escrow _contarct.sol\":658:696  msg.sender == deliveries[jobId].client */\n      0xffffffffffffffffffffffffffffffffffffffff\n      and\n      eq\n        /* \"contract/escrow _contarct.sol\":650:736  require(msg.sender == deliveries[jobId].client, \"Only client can perform this action\") */\n      tag_78\n      jumpi\n      mload(0x40)\n      0x08c379a000000000000000000000000000000000000000000000000000000000\n      dup2\n      mstore\n      0x04\n      add\n      tag_79\n      swap1\n      tag_46\n      jump\t// in\n    tag_79:\n      mload(0x40)\n      dup1\n      swap2\n      sub\n      swap1\n      revert\n    tag_78:\n        /* \"contract/escrow _contarct.sol\":1656:1661  jobId */\n      dup2\n        /* \"contract/escrow _contarct.sol\":851:852  0 */\n      0x00\n        /* \"contract/escrow _contarct.sol\":824:834  deliveries */\n      dup1\n        /* \"contract/escrow _contarct.sol\":824:841  deliveries[jobId] */\n      0x00\n        /* \"contract/escrow _contarct.sol\":835:840  jobId */\n      dup4\n        /* \"contract/escrow _contarct.sol\":824:841  deliveries[jobId] */\n      dup2\n      mstore\n      0x20\n      add\n      swap1\n      dup2\n      mstore\n      0x20\n      add\n      0x00\n      keccak256\n        /* \"contract/escrow _contarct.sol\":824:848  deliveries[jobId].amount */\n      0x03\n      add\n      sload\n        /* \"contract/escrow _contarct.sol\":824:852  deliveries[jobId].amount > 0 */\n      gt\n        /* \"contract/escrow _contarct.sol\":816:880  require(deliveries[jobId].amount > 0, \"Delivery does not exist\") */\n      tag_81\n      jumpi\n      mload(0x40)\n      0x08c379a000000000000000000000000000000000000000000000000000000000\n      dup2\n      mstore\n      0x04\n      add\n      tag_82\n      swap1\n      tag_50\n      jump\t// in\n    tag_82:\n      mload(0x40)\n      dup1\n      swap2\n      sub\n      swap1\n      revert\n    tag_81:\n        /* \"contract/escrow _contarct.sol\":1683:1693  deliveries */\n      0x00\n        /* \"contract/escrow _contarct.sol\":1683:1700  deliveries[jobId] */\n      dup1\n        /* \"contract/escrow _contarct.sol\":1694:1699  jobId */\n      dup5\n        /* \"contract/escrow _contarct.sol\":1683:1700  deliveries[jobId] */\n      dup2\n      mstore\n      0x20\n      add\n      swap1\n      dup2\n      mstore\n      0x20\n      add\n      0x00\n      keccak256\n        /* \"contract/escrow _contarct.sol\":1683:1710  deliveries[jobId].completed */\n      0x04\n      add\n      0x00\n      swap1\n      sload\n      swap1\n      0x0100\n      exp\n      swap1\n      div\n      0xff\n      and\n        /* \"contract/escrow _contarct.sol\":1682:1710  !deliveries[jobId].completed */\n      iszero\n        /* \"contract/escrow _contarct.sol\":1674:1741  require(!deliveries[jobId].completed, \"Delivery already confirmed\") */\n      tag_84\n      jumpi\n      mload(0x40)\n      0x08c379a000000000000000000000000000000000000000000000000000000000\n      dup2\n      mstore\n      0x04\n      add\n      tag_85\n      swap1\n      tag_86\n      jump\t// in\n    tag_85:\n      mload(0x40)\n      dup1\n      swap2\n      sub\n      swap1\n      revert\n    tag_84:\n        /* \"contract/escrow _contarct.sol\":1792:1796  true */\n      0x01\n        /* \"contract/escrow _contarct.sol\":1762:1772  deliveries */\n      0x00\n        /* \"contract/escrow _contarct.sol\":1762:1779  deliveries[jobId] */\n      dup1\n        /* \"contract/escrow _contarct.sol\":1773:1778  jobId */\n      dup6\n        /* \"contract/escrow _contarct.sol\":1762:1779  deliveries[jobId] */\n      dup2\n      mstore\n      0x20\n      add\n      swap1\n      dup2\n      mstore\n      0x20\n      add\n      0x00\n      keccak256\n        /* \"contract/escrow _contarct.sol\":1762:1789  deliveries[jobId].completed */\n      0x04\n      add\n      0x00\n        /* \"contract/escrow _contarct.sol\":1762:1796  deliveries[jobId].completed = true */\n      0x0100\n      exp\n      dup2\n      sload\n      dup2\n      0xff\n      mul\n      not\n      and\n      swap1\n      dup4\n      iszero\n      iszero\n      mul\n      or\n      swap1\n      sstore\n      pop\n        /* \"contract/escrow _contarct.sol\":1812:1836  DeliveryConfirmed(jobId) */\n      0x375b4005eeae25d0e37d56e1b3841d3bb394b277efa2548de3293f5dcb7a3493\n        /* \"contract/escrow _contarct.sol\":1830:1835  jobId */\n      dup4\n        /* \"contract/escrow _contarct.sol\":1812:1836  DeliveryConfirmed(jobId) */\n      mload(0x40)\n      tag_87\n      swap2\n      swap1\n      tag_88\n      jump\t// in\n    tag_87:\n      mload(0x40)\n      dup1\n      swap2\n      sub\n      swap1\n      log1\n        /* \"contract/escrow _contarct.sol\":747:748  _ */\n      pop\n        /* \"contract/escrow _contarct.sol\":1576:1844  function confirmDelivery(uint256 jobId) external onlyClient(jobId) onlyIfExists(jobId) {... */\n      pop\n      pop\n      jump\t// out\n        /* \"#utility.yul\":7:82   */\n    tag_89:\n        /* \"#utility.yul\":40:46   */\n      0x00\n        /* \"#utility.yul\":73:75   */\n      0x40\n        /* \"#utility.yul\":67:76   */\n      mload\n        /* \"#utility.yul\":57:76   */\n      swap1\n      pop\n        /* \"#utility.yul\":7:82   */\n      swap1\n      jump\t// out\n        /* \"#utility.yul\":88:205   */\n    tag_90:\n        /* \"#utility.yul\":197:198   */\n      0x00\n        /* \"#utility.yul\":194:195   */\n      dup1\n        /* \"#utility.yul\":187:199   */\n      revert\n        /* \"#utility.yul\":211:328   */\n    tag_91:\n        /* \"#utility.yul\":320:321   */\n      0x00\n        /* \"#utility.yul\":317:318   */\n      dup1\n        /* \"#utility.yul\":310:322   */\n      revert\n        /* \"#utility.yul\":334:411   */\n    tag_92:\n        /* \"#utility.yul\":371:378   */\n      0x00\n        /* \"#utility.yul\":400:405   */\n      dup2\n        /* \"#utility.yul\":389:405   */\n      swap1\n      pop\n        /* \"#utility.yul\":334:411   */\n      swap2\n      swap1\n      pop\n      jump\t// out\n        /* \"#utility.yul\":417:539   */\n    tag_93:\n        /* \"#utility.yul\":490:514   */\n      tag_159\n        /* \"#utility.yul\":508:513   */\n      dup2\n        /* \"#utility.yul\":490:514   */\n      tag_92\n      jump\t// in\n    tag_159:\n        /* \"#utility.yul\":483:488   */\n      dup2\n        /* \"#utility.yul\":480:515   */\n      eq\n        /* \"#utility.yul\":470:533   */\n      tag_160\n      jumpi\n        /* \"#utility.yul\":529:530   */\n      0x00\n        /* \"#utility.yul\":526:527   */\n      dup1\n        /* \"#utility.yul\":519:531   */\n      revert\n        /* \"#utility.yul\":470:533   */\n    tag_160:\n        /* \"#utility.yul\":417:539   */\n      pop\n      jump\t// out\n        /* \"#utility.yul\":545:684   */\n    tag_94:\n        /* \"#utility.yul\":591:596   */\n      0x00\n        /* \"#utility.yul\":629:635   */\n      dup2\n        /* \"#utility.yul\":616:636   */\n      calldataload\n        /* \"#utility.yul\":607:636   */\n      swap1\n      pop\n        /* \"#utility.yul\":645:678   */\n      tag_162\n        /* \"#utility.yul\":672:677   */\n      dup2\n        /* \"#utility.yul\":645:678   */\n      tag_93\n      jump\t// in\n    tag_162:\n        /* \"#utility.yul\":545:684   */\n      swap3\n      swap2\n      pop\n      pop\n      jump\t// out\n        /* \"#utility.yul\":690:816   */\n    tag_95:\n        /* \"#utility.yul\":727:734   */\n      0x00\n        /* \"#utility.yul\":767:809   */\n      0xffffffffffffffffffffffffffffffffffffffff\n        /* \"#utility.yul\":760:765   */\n      dup3\n        /* \"#utility.yul\":756:810   */\n      and\n        /* \"#utility.yul\":745:810   */\n      swap1\n      pop\n        /* \"#utility.yul\":690:816   */\n      swap2\n      swap1\n      pop\n      jump\t// out\n        /* \"#utility.yul\":822:926   */\n    tag_96:\n        /* \"#utility.yul\":867:874   */\n      0x00\n        /* \"#utility.yul\":896:920   */\n      tag_165\n        /* \"#utility.yul\":914:919   */\n      dup3\n        /* \"#utility.yul\":896:920   */\n      tag_95\n      jump\t// in\n    tag_165:\n        /* \"#utility.yul\":885:920   */\n      swap1\n      pop\n        /* \"#utility.yul\":822:926   */\n      swap2\n      swap1\n      pop\n      jump\t// out\n        /* \"#utility.yul\":932:1070   */\n    tag_97:\n        /* \"#utility.yul\":1013:1045   */\n      tag_167\n        /* \"#utility.yul\":1039:1044   */\n      dup2\n        /* \"#utility.yul\":1013:1045   */\n      tag_96\n      jump\t// in\n    tag_167:\n        /* \"#utility.yul\":1006:1011   */\n      dup2\n        /* \"#utility.yul\":1003:1046   */\n      eq\n        /* \"#utility.yul\":993:1064   */\n      tag_168\n      jumpi\n        /* \"#utility.yul\":1060:1061   */\n      0x00\n        /* \"#utility.yul\":1057:1058   */\n      dup1\n        /* \"#utility.yul\":1050:1062   */\n      revert\n        /* \"#utility.yul\":993:1064   */\n    tag_168:\n        /* \"#utility.yul\":932:1070   */\n      pop\n      jump\t// out\n        /* \"#utility.yul\":1076:1231   */\n    tag_98:\n        /* \"#utility.yul\":1130:1135   */\n      0x00\n        /* \"#utility.yul\":1168:1174   */\n      dup2\n        /* \"#utility.yul\":1155:1175   */\n      calldataload\n        /* \"#utility.yul\":1146:1175   */\n      swap1\n      pop\n        /* \"#utility.yul\":1184:1225   */\n      tag_170\n        /* \"#utility.yul\":1219:1224   */\n      dup2\n        /* \"#utility.yul\":1184:1225   */\n      tag_97\n      jump\t// in\n    tag_170:\n        /* \"#utility.yul\":1076:1231   */\n      swap3\n      swap2\n      pop\n      pop\n      jump\t// out\n        /* \"#utility.yul\":1237:1354   */\n    tag_99:\n        /* \"#utility.yul\":1346:1347   */\n      0x00\n        /* \"#utility.yul\":1343:1344   */\n      dup1\n        /* \"#utility.yul\":1336:1348   */\n      revert\n        /* \"#utility.yul\":1360:1477   */\n    tag_100:\n        /* \"#utility.yul\":1469:1470   */\n      0x00\n        /* \"#utility.yul\":1466:1467   */\n      dup1\n        /* \"#utility.yul\":1459:1471   */\n      revert\n        /* \"#utility.yul\":1483:1585   */\n    tag_101:\n        /* \"#utility.yul\":1524:1530   */\n      0x00\n        /* \"#utility.yul\":1575:1577   */\n      0x1f\n        /* \"#utility.yul\":1571:1578   */\n      not\n        /* \"#utility.yul\":1566:1568   */\n      0x1f\n        /* \"#utility.yul\":1559:1564   */\n      dup4\n        /* \"#utility.yul\":1555:1569   */\n      add\n        /* \"#utility.yul\":1551:1579   */\n      and\n        /* \"#utility.yul\":1541:1579   */\n      swap1\n      pop\n        /* \"#utility.yul\":1483:1585   */\n      swap2\n      swap1\n      pop\n      jump\t// out\n        /* \"#utility.yul\":1591:1771   */\n    tag_102:\n        /* \"#utility.yul\":1639:1716   */\n      0x4e487b7100000000000000000000000000000000000000000000000000000000\n        /* \"#utility.yul\":1636:1637   */\n      0x00\n        /* \"#utility.yul\":1629:1717   */\n      mstore\n        /* \"#utility.yul\":1736:1740   */\n      0x41\n        /* \"#utility.yul\":1733:1734   */\n      0x04\n        /* \"#utility.yul\":1726:1741   */\n      mstore\n        /* \"#utility.yul\":1760:1764   */\n      0x24\n        /* \"#utility.yul\":1757:1758   */\n      0x00\n        /* \"#utility.yul\":1750:1765   */\n      revert\n        /* \"#utility.yul\":1777:2058   */\n    tag_103:\n        /* \"#utility.yul\":1860:1887   */\n      tag_176\n        /* \"#utility.yul\":1882:1886   */\n      dup3\n        /* \"#utility.yul\":1860:1887   */\n      tag_101\n      jump\t// in\n    tag_176:\n        /* \"#utility.yul\":1852:1858   */\n      dup2\n        /* \"#utility.yul\":1848:1888   */\n      add\n        /* \"#utility.yul\":1990:1996   */\n      dup2\n        /* \"#utility.yul\":1978:1988   */\n      dup2\n        /* \"#utility.yul\":1975:1997   */\n      lt\n        /* \"#utility.yul\":1954:1972   */\n      0xffffffffffffffff\n        /* \"#utility.yul\":1942:1952   */\n      dup3\n        /* \"#utility.yul\":1939:1973   */\n      gt\n        /* \"#utility.yul\":1936:1998   */\n      or\n        /* \"#utility.yul\":1933:2021   */\n      iszero\n      tag_177\n      jumpi\n        /* \"#utility.yul\":2001:2019   */\n      tag_178\n      tag_102\n      jump\t// in\n    tag_178:\n        /* \"#utility.yul\":1933:2021   */\n    tag_177:\n        /* \"#utility.yul\":2041:2051   */\n      dup1\n        /* \"#utility.yul\":2037:2039   */\n      0x40\n        /* \"#utility.yul\":2030:2052   */\n      mstore\n        /* \"#utility.yul\":1820:2058   */\n      pop\n        /* \"#utility.yul\":1777:2058   */\n      pop\n      pop\n      jump\t// out\n        /* \"#utility.yul\":2064:2193   */\n    tag_104:\n        /* \"#utility.yul\":2098:2104   */\n      0x00\n        /* \"#utility.yul\":2125:2145   */\n      tag_180\n      tag_89\n      jump\t// in\n    tag_180:\n        /* \"#utility.yul\":2115:2145   */\n      swap1\n      pop\n        /* \"#utility.yul\":2154:2187   */\n      tag_181\n        /* \"#utility.yul\":2182:2186   */\n      dup3\n        /* \"#utility.yul\":2174:2180   */\n      dup3\n        /* \"#utility.yul\":2154:2187   */\n      tag_103\n      jump\t// in\n    tag_181:\n        /* \"#utility.yul\":2064:2193   */\n      swap2\n      swap1\n      pop\n      jump\t// out\n        /* \"#utility.yul\":2199:2507   */\n    tag_105:\n        /* \"#utility.yul\":2261:2265   */\n      0x00\n        /* \"#utility.yul\":2351:2369   */\n      0xffffffffffffffff\n        /* \"#utility.yul\":2343:2349   */\n      dup3\n        /* \"#utility.yul\":2340:2370   */\n      gt\n        /* \"#utility.yul\":2337:2393   */\n      iszero\n      tag_183\n      jumpi\n        /* \"#utility.yul\":2373:2391   */\n      tag_184\n      tag_102\n      jump\t// in\n    tag_184:\n        /* \"#utility.yul\":2337:2393   */\n    tag_183:\n        /* \"#utility.yul\":2411:2440   */\n      tag_185\n        /* \"#utility.yul\":2433:2439   */\n      dup3\n        /* \"#utility.yul\":2411:2440   */\n      tag_101\n      jump\t// in\n    tag_185:\n        /* \"#utility.yul\":2403:2440   */\n      swap1\n      pop\n        /* \"#utility.yul\":2495:2499   */\n      0x20\n        /* \"#utility.yul\":2489:2493   */\n      dup2\n        /* \"#utility.yul\":2485:2500   */\n      add\n        /* \"#utility.yul\":2477:2500   */\n      swap1\n      pop\n        /* \"#utility.yul\":2199:2507   */\n      swap2\n      swap1\n      pop\n      jump\t// out\n        /* \"#utility.yul\":2513:2661   */\n    tag_106:\n        /* \"#utility.yul\":2611:2617   */\n      dup3\n        /* \"#utility.yul\":2606:2609   */\n      dup2\n        /* \"#utility.yul\":2601:2604   */\n      dup4\n        /* \"#utility.yul\":2588:2618   */\n      calldatacopy\n        /* \"#utility.yul\":2652:2653   */\n      0x00\n        /* \"#utility.yul\":2643:2649   */\n      dup4\n        /* \"#utility.yul\":2638:2641   */\n      dup4\n        /* \"#utility.yul\":2634:2650   */\n      add\n        /* \"#utility.yul\":2627:2654   */\n      mstore\n        /* \"#utility.yul\":2513:2661   */\n      pop\n      pop\n      pop\n      jump\t// out\n        /* \"#utility.yul\":2667:3092   */\n    tag_107:\n        /* \"#utility.yul\":2745:2750   */\n      0x00\n        /* \"#utility.yul\":2770:2836   */\n      tag_188\n        /* \"#utility.yul\":2786:2835   */\n      tag_189\n        /* \"#utility.yul\":2828:2834   */\n      dup5\n        /* \"#utility.yul\":2786:2835   */\n      tag_105\n      jump\t// in\n    tag_189:\n        /* \"#utility.yul\":2770:2836   */\n      tag_104\n      jump\t// in\n    tag_188:\n        /* \"#utility.yul\":2761:2836   */\n      swap1\n      pop\n        /* \"#utility.yul\":2859:2865   */\n      dup3\n        /* \"#utility.yul\":2852:2857   */\n      dup2\n        /* \"#utility.yul\":2845:2866   */\n      mstore\n        /* \"#utility.yul\":2897:2901   */\n      0x20\n        /* \"#utility.yul\":2890:2895   */\n      dup2\n        /* \"#utility.yul\":2886:2902   */\n      add\n        /* \"#utility.yul\":2935:2938   */\n      dup5\n        /* \"#utility.yul\":2926:2932   */\n      dup5\n        /* \"#utility.yul\":2921:2924   */\n      dup5\n        /* \"#utility.yul\":2917:2933   */\n      add\n        /* \"#utility.yul\":2914:2939   */\n      gt\n        /* \"#utility.yul\":2911:3023   */\n      iszero\n      tag_190\n      jumpi\n        /* \"#utility.yul\":2942:3021   */\n      tag_191\n      tag_100\n      jump\t// in\n    tag_191:\n        /* \"#utility.yul\":2911:3023   */\n    tag_190:\n        /* \"#utility.yul\":3032:3086   */\n      tag_192\n        /* \"#utility.yul\":3079:3085   */\n      dup5\n        /* \"#utility.yul\":3074:3077   */\n      dup3\n        /* \"#utility.yul\":3069:3072   */\n      dup6\n        /* \"#utility.yul\":3032:3086   */\n      tag_106\n      jump\t// in\n    tag_192:\n        /* \"#utility.yul\":2751:3092   */\n      pop\n        /* \"#utility.yul\":2667:3092   */\n      swap4\n      swap3\n      pop\n      pop\n      pop\n      jump\t// out\n        /* \"#utility.yul\":3112:3452   */\n    tag_108:\n        /* \"#utility.yul\":3168:3173   */\n      0x00\n        /* \"#utility.yul\":3217:3220   */\n      dup3\n        /* \"#utility.yul\":3210:3214   */\n      0x1f\n        /* \"#utility.yul\":3202:3208   */\n      dup4\n        /* \"#utility.yul\":3198:3215   */\n      add\n        /* \"#utility.yul\":3194:3221   */\n      slt\n        /* \"#utility.yul\":3184:3306   */\n      tag_194\n      jumpi\n        /* \"#utility.yul\":3225:3304   */\n      tag_195\n      tag_99\n      jump\t// in\n    tag_195:\n        /* \"#utility.yul\":3184:3306   */\n    tag_194:\n        /* \"#utility.yul\":3342:3348   */\n      dup2\n        /* \"#utility.yul\":3329:3349   */\n      calldataload\n        /* \"#utility.yul\":3367:3446   */\n      tag_196\n        /* \"#utility.yul\":3442:3445   */\n      dup5\n        /* \"#utility.yul\":3434:3440   */\n      dup3\n        /* \"#utility.yul\":3427:3431   */\n      0x20\n        /* \"#utility.yul\":3419:3425   */\n      dup7\n        /* \"#utility.yul\":3415:3432   */\n      add\n        /* \"#utility.yul\":3367:3446   */\n      tag_107\n      jump\t// in\n    tag_196:\n        /* \"#utility.yul\":3358:3446   */\n      swap2\n      pop\n        /* \"#utility.yul\":3174:3452   */\n      pop\n        /* \"#utility.yul\":3112:3452   */\n      swap3\n      swap2\n      pop\n      pop\n      jump\t// out\n        /* \"#utility.yul\":3458:4273   */\n    tag_9:\n        /* \"#utility.yul\":3553:3559   */\n      0x00\n        /* \"#utility.yul\":3561:3567   */\n      dup1\n        /* \"#utility.yul\":3569:3575   */\n      0x00\n        /* \"#utility.yul\":3618:3620   */\n      0x60\n        /* \"#utility.yul\":3606:3615   */\n      dup5\n        /* \"#utility.yul\":3597:3604   */\n      dup7\n        /* \"#utility.yul\":3593:3616   */\n      sub\n        /* \"#utility.yul\":3589:3621   */\n      slt\n        /* \"#utility.yul\":3586:3705   */\n      iszero\n      tag_198\n      jumpi\n        /* \"#utility.yul\":3624:3703   */\n      tag_199\n      tag_90\n      jump\t// in\n    tag_199:\n        /* \"#utility.yul\":3586:3705   */\n    tag_198:\n        /* \"#utility.yul\":3744:3745   */\n      0x00\n        /* \"#utility.yul\":3769:3822   */\n      tag_200\n        /* \"#utility.yul\":3814:3821   */\n      dup7\n        /* \"#utility.yul\":3805:3811   */\n      dup3\n        /* \"#utility.yul\":3794:3803   */\n      dup8\n        /* \"#utility.yul\":3790:3812   */\n      add\n        /* \"#utility.yul\":3769:3822   */\n      tag_94\n      jump\t// in\n    tag_200:\n        /* \"#utility.yul\":3759:3822   */\n      swap4\n      pop\n        /* \"#utility.yul\":3715:3832   */\n      pop\n        /* \"#utility.yul\":3871:3873   */\n      0x20\n        /* \"#utility.yul\":3897:3958   */\n      tag_201\n        /* \"#utility.yul\":3950:3957   */\n      dup7\n        /* \"#utility.yul\":3941:3947   */\n      dup3\n        /* \"#utility.yul\":3930:3939   */\n      dup8\n        /* \"#utility.yul\":3926:3948   */\n      add\n        /* \"#utility.yul\":3897:3958   */\n      tag_98\n      jump\t// in\n    tag_201:\n        /* \"#utility.yul\":3887:3958   */\n      swap3\n      pop\n        /* \"#utility.yul\":3842:3968   */\n      pop\n        /* \"#utility.yul\":4035:4037   */\n      0x40\n        /* \"#utility.yul\":4024:4033   */\n      dup5\n        /* \"#utility.yul\":4020:4038   */\n      add\n        /* \"#utility.yul\":4007:4039   */\n      calldataload\n        /* \"#utility.yul\":4066:4084   */\n      0xffffffffffffffff\n        /* \"#utility.yul\":4058:4064   */\n      dup2\n        /* \"#utility.yul\":4055:4085   */\n      gt\n        /* \"#utility.yul\":4052:4169   */\n      iszero\n      tag_202\n      jumpi\n        /* \"#utility.yul\":4088:4167   */\n      tag_203\n      tag_91\n      jump\t// in\n    tag_203:\n        /* \"#utility.yul\":4052:4169   */\n    tag_202:\n        /* \"#utility.yul\":4193:4256   */\n      tag_204\n        /* \"#utility.yul\":4248:4255   */\n      dup7\n        /* \"#utility.yul\":4239:4245   */\n      dup3\n        /* \"#utility.yul\":4228:4237   */\n      dup8\n        /* \"#utility.yul\":4224:4246   */\n      add\n        /* \"#utility.yul\":4193:4256   */\n      tag_108\n      jump\t// in\n    tag_204:\n        /* \"#utility.yul\":4183:4256   */\n      swap2\n      pop\n        /* \"#utility.yul\":3978:4266   */\n      pop\n        /* \"#utility.yul\":3458:4273   */\n      swap3\n      pop\n      swap3\n      pop\n      swap3\n      jump\t// out\n        /* \"#utility.yul\":4279:4608   */\n    tag_14:\n        /* \"#utility.yul\":4338:4344   */\n      0x00\n        /* \"#utility.yul\":4387:4389   */\n      0x20\n        /* \"#utility.yul\":4375:4384   */\n      dup3\n        /* \"#utility.yul\":4366:4373   */\n      dup5\n        /* \"#utility.yul\":4362:4385   */\n      sub\n        /* \"#utility.yul\":4358:4390   */\n      slt\n        /* \"#utility.yul\":4355:4474   */\n      iszero\n      tag_206\n      jumpi\n        /* \"#utility.yul\":4393:4472   */\n      tag_207\n      tag_90\n      jump\t// in\n    tag_207:\n        /* \"#utility.yul\":4355:4474   */\n    tag_206:\n        /* \"#utility.yul\":4513:4514   */\n      0x00\n        /* \"#utility.yul\":4538:4591   */\n      tag_208\n        /* \"#utility.yul\":4583:4590   */\n      dup5\n        /* \"#utility.yul\":4574:4580   */\n      dup3\n        /* \"#utility.yul\":4563:4572   */\n      dup6\n        /* \"#utility.yul\":4559:4581   */\n      add\n        /* \"#utility.yul\":4538:4591   */\n      tag_94\n      jump\t// in\n    tag_208:\n        /* \"#utility.yul\":4528:4591   */\n      swap2\n      pop\n        /* \"#utility.yul\":4484:4601   */\n      pop\n        /* \"#utility.yul\":4279:4608   */\n      swap3\n      swap2\n      pop\n      pop\n      jump\t// out\n        /* \"#utility.yul\":4614:4756   */\n    tag_109:\n        /* \"#utility.yul\":4717:4749   */\n      tag_210\n        /* \"#utility.yul\":4743:4748   */\n      dup2\n        /* \"#utility.yul\":4717:4749   */\n      tag_96\n      jump\t// in\n    tag_210:\n        /* \"#utility.yul\":4712:4715   */\n      dup3\n        /* \"#utility.yul\":4705:4750   */\n      mstore\n        /* \"#utility.yul\":4614:4756   */\n      pop\n      pop\n      jump\t// out\n        /* \"#utility.yul\":4762:4861   */\n    tag_110:\n        /* \"#utility.yul\":4814:4820   */\n      0x00\n        /* \"#utility.yul\":4848:4853   */\n      dup2\n        /* \"#utility.yul\":4842:4854   */\n      mload\n        /* \"#utility.yul\":4832:4854   */\n      swap1\n      pop\n        /* \"#utility.yul\":4762:4861   */\n      swap2\n      swap1\n      pop\n      jump\t// out\n        /* \"#utility.yul\":4867:5036   */\n    tag_111:\n        /* \"#utility.yul\":4951:4962   */\n      0x00\n        /* \"#utility.yul\":4985:4991   */\n      dup3\n        /* \"#utility.yul\":4980:4983   */\n      dup3\n        /* \"#utility.yul\":4973:4992   */\n      mstore\n        /* \"#utility.yul\":5025:5029   */\n      0x20\n        /* \"#utility.yul\":5020:5023   */\n      dup3\n        /* \"#utility.yul\":5016:5030   */\n      add\n        /* \"#utility.yul\":5001:5030   */\n      swap1\n      pop\n        /* \"#utility.yul\":4867:5036   */\n      swap3\n      swap2\n      pop\n      pop\n      jump\t// out\n        /* \"#utility.yul\":5042:5181   */\n    tag_112:\n        /* \"#utility.yul\":5131:5137   */\n      dup3\n        /* \"#utility.yul\":5126:5129   */\n      dup2\n        /* \"#utility.yul\":5121:5124   */\n      dup4\n        /* \"#utility.yul\":5115:5138   */\n      mcopy\n        /* \"#utility.yul\":5172:5173   */\n      0x00\n        /* \"#utility.yul\":5163:5169   */\n      dup4\n        /* \"#utility.yul\":5158:5161   */\n      dup4\n        /* \"#utility.yul\":5154:5170   */\n      add\n        /* \"#utility.yul\":5147:5174   */\n      mstore\n        /* \"#utility.yul\":5042:5181   */\n      pop\n      pop\n      pop\n      jump\t// out\n        /* \"#utility.yul\":5187:5564   */\n    tag_113:\n        /* \"#utility.yul\":5275:5278   */\n      0x00\n        /* \"#utility.yul\":5303:5342   */\n      tag_215\n        /* \"#utility.yul\":5336:5341   */\n      dup3\n        /* \"#utility.yul\":5303:5342   */\n      tag_110\n      jump\t// in\n    tag_215:\n        /* \"#utility.yul\":5358:5429   */\n      tag_216\n        /* \"#utility.yul\":5422:5428   */\n      dup2\n        /* \"#utility.yul\":5417:5420   */\n      dup6\n        /* \"#utility.yul\":5358:5429   */\n      tag_111\n      jump\t// in\n    tag_216:\n        /* \"#utility.yul\":5351:5429   */\n      swap4\n      pop\n        /* \"#utility.yul\":5438:5503   */\n      tag_217\n        /* \"#utility.yul\":5496:5502   */\n      dup2\n        /* \"#utility.yul\":5491:5494   */\n      dup6\n        /* \"#utility.yul\":5484:5488   */\n      0x20\n        /* \"#utility.yul\":5477:5482   */\n      dup7\n        /* \"#utility.yul\":5473:5489   */\n      add\n        /* \"#utility.yul\":5438:5503   */\n      tag_112\n      jump\t// in\n    tag_217:\n        /* \"#utility.yul\":5528:5557   */\n      tag_218\n        /* \"#utility.yul\":5550:5556   */\n      dup2\n        /* \"#utility.yul\":5528:5557   */\n      tag_101\n      jump\t// in\n    tag_218:\n        /* \"#utility.yul\":5523:5526   */\n      dup5\n        /* \"#utility.yul\":5519:5558   */\n      add\n        /* \"#utility.yul\":5512:5558   */\n      swap2\n      pop\n        /* \"#utility.yul\":5279:5564   */\n      pop\n        /* \"#utility.yul\":5187:5564   */\n      swap3\n      swap2\n      pop\n      pop\n      jump\t// out\n        /* \"#utility.yul\":5570:5688   */\n    tag_114:\n        /* \"#utility.yul\":5657:5681   */\n      tag_220\n        /* \"#utility.yul\":5675:5680   */\n      dup2\n        /* \"#utility.yul\":5657:5681   */\n      tag_92\n      jump\t// in\n    tag_220:\n        /* \"#utility.yul\":5652:5655   */\n      dup3\n        /* \"#utility.yul\":5645:5682   */\n      mstore\n        /* \"#utility.yul\":5570:5688   */\n      pop\n      pop\n      jump\t// out\n        /* \"#utility.yul\":5694:5784   */\n    tag_115:\n        /* \"#utility.yul\":5728:5735   */\n      0x00\n        /* \"#utility.yul\":5771:5776   */\n      dup2\n        /* \"#utility.yul\":5764:5777   */\n      iszero\n        /* \"#utility.yul\":5757:5778   */\n      iszero\n        /* \"#utility.yul\":5746:5778   */\n      swap1\n      pop\n        /* \"#utility.yul\":5694:5784   */\n      swap2\n      swap1\n      pop\n      jump\t// out\n        /* \"#utility.yul\":5790:5899   */\n    tag_116:\n        /* \"#utility.yul\":5871:5892   */\n      tag_223\n        /* \"#utility.yul\":5886:5891   */\n      dup2\n        /* \"#utility.yul\":5871:5892   */\n      tag_115\n      jump\t// in\n    tag_223:\n        /* \"#utility.yul\":5866:5869   */\n      dup3\n        /* \"#utility.yul\":5859:5893   */\n      mstore\n        /* \"#utility.yul\":5790:5899   */\n      pop\n      pop\n      jump\t// out\n        /* \"#utility.yul\":5905:6811   */\n    tag_21:\n        /* \"#utility.yul\":6178:6182   */\n      0x00\n        /* \"#utility.yul\":6216:6219   */\n      0xc0\n        /* \"#utility.yul\":6205:6214   */\n      dup3\n        /* \"#utility.yul\":6201:6220   */\n      add\n        /* \"#utility.yul\":6193:6220   */\n      swap1\n      pop\n        /* \"#utility.yul\":6230:6317   */\n      tag_225\n        /* \"#utility.yul\":6314:6315   */\n      0x00\n        /* \"#utility.yul\":6303:6312   */\n      dup4\n        /* \"#utility.yul\":6299:6316   */\n      add\n        /* \"#utility.yul\":6290:6296   */\n      dup10\n        /* \"#utility.yul\":6230:6317   */\n      tag_109\n      jump\t// in\n    tag_225:\n        /* \"#utility.yul\":6327:6415   */\n      tag_226\n        /* \"#utility.yul\":6411:6413   */\n      0x20\n        /* \"#utility.yul\":6400:6409   */\n      dup4\n        /* \"#utility.yul\":6396:6414   */\n      add\n        /* \"#utility.yul\":6387:6393   */\n      dup9\n        /* \"#utility.yul\":6327:6415   */\n      tag_109\n      jump\t// in\n    tag_226:\n        /* \"#utility.yul\":6462:6471   */\n      dup2\n        /* \"#utility.yul\":6456:6460   */\n      dup2\n        /* \"#utility.yul\":6452:6472   */\n      sub\n        /* \"#utility.yul\":6447:6449   */\n      0x40\n        /* \"#utility.yul\":6436:6445   */\n      dup4\n        /* \"#utility.yul\":6432:6450   */\n      add\n        /* \"#utility.yul\":6425:6473   */\n      mstore\n        /* \"#utility.yul\":6490:6568   */\n      tag_227\n        /* \"#utility.yul\":6563:6567   */\n      dup2\n        /* \"#utility.yul\":6554:6560   */\n      dup8\n        /* \"#utility.yul\":6490:6568   */\n      tag_113\n      jump\t// in\n    tag_227:\n        /* \"#utility.yul\":6482:6568   */\n      swap1\n      pop\n        /* \"#utility.yul\":6578:6650   */\n      tag_228\n        /* \"#utility.yul\":6646:6648   */\n      0x60\n        /* \"#utility.yul\":6635:6644   */\n      dup4\n        /* \"#utility.yul\":6631:6649   */\n      add\n        /* \"#utility.yul\":6622:6628   */\n      dup7\n        /* \"#utility.yul\":6578:6650   */\n      tag_114\n      jump\t// in\n    tag_228:\n        /* \"#utility.yul\":6660:6727   */\n      tag_229\n        /* \"#utility.yul\":6722:6725   */\n      0x80\n        /* \"#utility.yul\":6711:6720   */\n      dup4\n        /* \"#utility.yul\":6707:6726   */\n      add\n        /* \"#utility.yul\":6698:6704   */\n      dup6\n        /* \"#utility.yul\":6660:6727   */\n      tag_116\n      jump\t// in\n    tag_229:\n        /* \"#utility.yul\":6737:6804   */\n      tag_230\n        /* \"#utility.yul\":6799:6802   */\n      0xa0\n        /* \"#utility.yul\":6788:6797   */\n      dup4\n        /* \"#utility.yul\":6784:6803   */\n      add\n        /* \"#utility.yul\":6775:6781   */\n      dup5\n        /* \"#utility.yul\":6737:6804   */\n      tag_116\n      jump\t// in\n    tag_230:\n        /* \"#utility.yul\":5905:6811   */\n      swap8\n      swap7\n      pop\n      pop\n      pop\n      pop\n      pop\n      pop\n      pop\n      jump\t// out\n        /* \"#utility.yul\":6817:6913   */\n    tag_117:\n        /* \"#utility.yul\":6854:6861   */\n      0x00\n        /* \"#utility.yul\":6883:6907   */\n      tag_232\n        /* \"#utility.yul\":6901:6906   */\n      dup3\n        /* \"#utility.yul\":6883:6907   */\n      tag_95\n      jump\t// in\n    tag_232:\n        /* \"#utility.yul\":6872:6907   */\n      swap1\n      pop\n        /* \"#utility.yul\":6817:6913   */\n      swap2\n      swap1\n      pop\n      jump\t// out\n        /* \"#utility.yul\":6919:7037   */\n    tag_118:\n        /* \"#utility.yul\":7006:7030   */\n      tag_234\n        /* \"#utility.yul\":7024:7029   */\n      dup2\n        /* \"#utility.yul\":7006:7030   */\n      tag_117\n      jump\t// in\n    tag_234:\n        /* \"#utility.yul\":7001:7004   */\n      dup3\n        /* \"#utility.yul\":6994:7031   */\n      mstore\n        /* \"#utility.yul\":6919:7037   */\n      pop\n      pop\n      jump\t// out\n        /* \"#utility.yul\":7043:7885   */\n    tag_27:\n        /* \"#utility.yul\":7284:7288   */\n      0x00\n        /* \"#utility.yul\":7322:7325   */\n      0xc0\n        /* \"#utility.yul\":7311:7320   */\n      dup3\n        /* \"#utility.yul\":7307:7326   */\n      add\n        /* \"#utility.yul\":7299:7326   */\n      swap1\n      pop\n        /* \"#utility.yul\":7336:7407   */\n      tag_236\n        /* \"#utility.yul\":7404:7405   */\n      0x00\n        /* \"#utility.yul\":7393:7402   */\n      dup4\n        /* \"#utility.yul\":7389:7406   */\n      add\n        /* \"#utility.yul\":7380:7386   */\n      dup10\n        /* \"#utility.yul\":7336:7407   */\n      tag_118\n      jump\t// in\n    tag_236:\n        /* \"#utility.yul\":7417:7489   */\n      tag_237\n        /* \"#utility.yul\":7485:7487   */\n      0x20\n        /* \"#utility.yul\":7474:7483   */\n      dup4\n        /* \"#utility.yul\":7470:7488   */\n      add\n        /* \"#utility.yul\":7461:7467   */\n      dup9\n        /* \"#utility.yul\":7417:7489   */\n      tag_118\n      jump\t// in\n    tag_237:\n        /* \"#utility.yul\":7536:7545   */\n      dup2\n        /* \"#utility.yul\":7530:7534   */\n      dup2\n        /* \"#utility.yul\":7526:7546   */\n      sub\n        /* \"#utility.yul\":7521:7523   */\n      0x40\n        /* \"#utility.yul\":7510:7519   */\n      dup4\n        /* \"#utility.yul\":7506:7524   */\n      add\n        /* \"#utility.yul\":7499:7547   */\n      mstore\n        /* \"#utility.yul\":7564:7642   */\n      tag_238\n        /* \"#utility.yul\":7637:7641   */\n      dup2\n        /* \"#utility.yul\":7628:7634   */\n      dup8\n        /* \"#utility.yul\":7564:7642   */\n      tag_113\n      jump\t// in\n    tag_238:\n        /* \"#utility.yul\":7556:7642   */\n      swap1\n      pop\n        /* \"#utility.yul\":7652:7724   */\n      tag_239\n        /* \"#utility.yul\":7720:7722   */\n      0x60\n        /* \"#utility.yul\":7709:7718   */\n      dup4\n        /* \"#utility.yul\":7705:7723   */\n      add\n        /* \"#utility.yul\":7696:7702   */\n      dup7\n        /* \"#utility.yul\":7652:7724   */\n      tag_114\n      jump\t// in\n    tag_239:\n        /* \"#utility.yul\":7734:7801   */\n      tag_240\n        /* \"#utility.yul\":7796:7799   */\n      0x80\n        /* \"#utility.yul\":7785:7794   */\n      dup4\n        /* \"#utility.yul\":7781:7800   */\n      add\n        /* \"#utility.yul\":7772:7778   */\n      dup6\n        /* \"#utility.yul\":7734:7801   */\n      tag_116\n      jump\t// in\n    tag_240:\n        /* \"#utility.yul\":7811:7878   */\n      tag_241\n        /* \"#utility.yul\":7873:7876   */\n      0xa0\n        /* \"#utility.yul\":7862:7871   */\n      dup4\n        /* \"#utility.yul\":7858:7877   */\n      add\n        /* \"#utility.yul\":7849:7855   */\n      dup5\n        /* \"#utility.yul\":7811:7878   */\n      tag_116\n      jump\t// in\n    tag_241:\n        /* \"#utility.yul\":7043:7885   */\n      swap8\n      swap7\n      pop\n      pop\n      pop\n      pop\n      pop\n      pop\n      pop\n      jump\t// out\n        /* \"#utility.yul\":7891:8117   */\n    tag_119:\n        /* \"#utility.yul\":8031:8065   */\n      0x457363726f7720616d6f756e74206d7573742062652067726561746572207468\n        /* \"#utility.yul\":8027:8028   */\n      0x00\n        /* \"#utility.yul\":8019:8025   */\n      dup3\n        /* \"#utility.yul\":8015:8029   */\n      add\n        /* \"#utility.yul\":8008:8066   */\n      mstore\n        /* \"#utility.yul\":8100:8109   */\n      0x616e207a65726f00000000000000000000000000000000000000000000000000\n        /* \"#utility.yul\":8095:8097   */\n      0x20\n        /* \"#utility.yul\":8087:8093   */\n      dup3\n        /* \"#utility.yul\":8083:8098   */\n      add\n        /* \"#utility.yul\":8076:8110   */\n      mstore\n        /* \"#utility.yul\":7891:8117   */\n      pop\n      jump\t// out\n        /* \"#utility.yul\":8123:8489   */\n    tag_120:\n        /* \"#utility.yul\":8265:8268   */\n      0x00\n        /* \"#utility.yul\":8286:8353   */\n      tag_244\n        /* \"#utility.yul\":8350:8352   */\n      0x27\n        /* \"#utility.yul\":8345:8348   */\n      dup4\n        /* \"#utility.yul\":8286:8353   */\n      tag_111\n      jump\t// in\n    tag_244:\n        /* \"#utility.yul\":8279:8353   */\n      swap2\n      pop\n        /* \"#utility.yul\":8362:8455   */\n      tag_245\n        /* \"#utility.yul\":8451:8454   */\n      dup3\n        /* \"#utility.yul\":8362:8455   */\n      tag_119\n      jump\t// in\n    tag_245:\n        /* \"#utility.yul\":8480:8482   */\n      0x40\n        /* \"#utility.yul\":8475:8478   */\n      dup3\n        /* \"#utility.yul\":8471:8483   */\n      add\n        /* \"#utility.yul\":8464:8483   */\n      swap1\n      pop\n        /* \"#utility.yul\":8123:8489   */\n      swap2\n      swap1\n      pop\n      jump\t// out\n        /* \"#utility.yul\":8495:8914   */\n    tag_35:\n        /* \"#utility.yul\":8661:8665   */\n      0x00\n        /* \"#utility.yul\":8699:8701   */\n      0x20\n        /* \"#utility.yul\":8688:8697   */\n      dup3\n        /* \"#utility.yul\":8684:8702   */\n      add\n        /* \"#utility.yul\":8676:8702   */\n      swap1\n      pop\n        /* \"#utility.yul\":8748:8757   */\n      dup2\n        /* \"#utility.yul\":8742:8746   */\n      dup2\n        /* \"#utility.yul\":8738:8758   */\n      sub\n        /* \"#utility.yul\":8734:8735   */\n      0x00\n        /* \"#utility.yul\":8723:8732   */\n      dup4\n        /* \"#utility.yul\":8719:8736   */\n      add\n        /* \"#utility.yul\":8712:8759   */\n      mstore\n        /* \"#utility.yul\":8776:8907   */\n      tag_247\n        /* \"#utility.yul\":8902:8906   */\n      dup2\n        /* \"#utility.yul\":8776:8907   */\n      tag_120\n      jump\t// in\n    tag_247:\n        /* \"#utility.yul\":8768:8907   */\n      swap1\n      pop\n        /* \"#utility.yul\":8495:8914   */\n      swap2\n      swap1\n      pop\n      jump\t// out\n        /* \"#utility.yul\":8920:9141   */\n    tag_121:\n        /* \"#utility.yul\":9060:9094   */\n      0x457363726f7720616c72656164792065786973747320666f722074686973206a\n        /* \"#utility.yul\":9056:9057   */\n      0x00\n        /* \"#utility.yul\":9048:9054   */\n      dup3\n        /* \"#utility.yul\":9044:9058   */\n      add\n        /* \"#utility.yul\":9037:9095   */\n      mstore\n        /* \"#utility.yul\":9129:9133   */\n      0x6f62000000000000000000000000000000000000000000000000000000000000\n        /* \"#utility.yul\":9124:9126   */\n      0x20\n        /* \"#utility.yul\":9116:9122   */\n      dup3\n        /* \"#utility.yul\":9112:9127   */\n      add\n        /* \"#utility.yul\":9105:9134   */\n      mstore\n        /* \"#utility.yul\":8920:9141   */\n      pop\n      jump\t// out\n        /* \"#utility.yul\":9147:9513   */\n    tag_122:\n        /* \"#utility.yul\":9289:9292   */\n      0x00\n        /* \"#utility.yul\":9310:9377   */\n      tag_250\n        /* \"#utility.yul\":9374:9376   */\n      0x22\n        /* \"#utility.yul\":9369:9372   */\n      dup4\n        /* \"#utility.yul\":9310:9377   */\n      tag_111\n      jump\t// in\n    tag_250:\n        /* \"#utility.yul\":9303:9377   */\n      swap2\n      pop\n        /* \"#utility.yul\":9386:9479   */\n      tag_251\n        /* \"#utility.yul\":9475:9478   */\n      dup3\n        /* \"#utility.yul\":9386:9479   */\n      tag_121\n      jump\t// in\n    tag_251:\n        /* \"#utility.yul\":9504:9506   */\n      0x40\n        /* \"#utility.yul\":9499:9502   */\n      dup3\n        /* \"#utility.yul\":9495:9507   */\n      add\n        /* \"#utility.yul\":9488:9507   */\n      swap1\n      pop\n        /* \"#utility.yul\":9147:9513   */\n      swap2\n      swap1\n      pop\n      jump\t// out\n        /* \"#utility.yul\":9519:9938   */\n    tag_38:\n        /* \"#utility.yul\":9685:9689   */\n      0x00\n        /* \"#utility.yul\":9723:9725   */\n      0x20\n        /* \"#utility.yul\":9712:9721   */\n      dup3\n        /* \"#utility.yul\":9708:9726   */\n      add\n        /* \"#utility.yul\":9700:9726   */\n      swap1\n      pop\n        /* \"#utility.yul\":9772:9781   */\n      dup2\n        /* \"#utility.yul\":9766:9770   */\n      dup2\n        /* \"#utility.yul\":9762:9782   */\n      sub\n        /* \"#utility.yul\":9758:9759   */\n      0x00\n        /* \"#utility.yul\":9747:9756   */\n      dup4\n        /* \"#utility.yul\":9743:9760   */\n      add\n        /* \"#utility.yul\":9736:9783   */\n      mstore\n        /* \"#utility.yul\":9800:9931   */\n      tag_253\n        /* \"#utility.yul\":9926:9930   */\n      dup2\n        /* \"#utility.yul\":9800:9931   */\n      tag_122\n      jump\t// in\n    tag_253:\n        /* \"#utility.yul\":9792:9931   */\n      swap1\n      pop\n        /* \"#utility.yul\":9519:9938   */\n      swap2\n      swap1\n      pop\n      jump\t// out\n        /* \"#utility.yul\":9944:10124   */\n    tag_123:\n        /* \"#utility.yul\":9992:10069   */\n      0x4e487b7100000000000000000000000000000000000000000000000000000000\n        /* \"#utility.yul\":9989:9990   */\n      0x00\n        /* \"#utility.yul\":9982:10070   */\n      mstore\n        /* \"#utility.yul\":10089:10093   */\n      0x22\n        /* \"#utility.yul\":10086:10087   */\n      0x04\n        /* \"#utility.yul\":10079:10094   */\n      mstore\n        /* \"#utility.yul\":10113:10117   */\n      0x24\n        /* \"#utility.yul\":10110:10111   */\n      0x00\n        /* \"#utility.yul\":10103:10118   */\n      revert\n        /* \"#utility.yul\":10130:10450   */\n    tag_63:\n        /* \"#utility.yul\":10174:10180   */\n      0x00\n        /* \"#utility.yul\":10211:10212   */\n      0x02\n        /* \"#utility.yul\":10205:10209   */\n      dup3\n        /* \"#utility.yul\":10201:10213   */\n      div\n        /* \"#utility.yul\":10191:10213   */\n      swap1\n      pop\n        /* \"#utility.yul\":10258:10259   */\n      0x01\n        /* \"#utility.yul\":10252:10256   */\n      dup3\n        /* \"#utility.yul\":10248:10260   */\n      and\n        /* \"#utility.yul\":10279:10297   */\n      dup1\n        /* \"#utility.yul\":10269:10350   */\n      tag_256\n      jumpi\n        /* \"#utility.yul\":10335:10339   */\n      0x7f\n        /* \"#utility.yul\":10327:10333   */\n      dup3\n        /* \"#utility.yul\":10323:10340   */\n      and\n        /* \"#utility.yul\":10313:10340   */\n      swap2\n      pop\n        /* \"#utility.yul\":10269:10350   */\n    tag_256:\n        /* \"#utility.yul\":10397:10399   */\n      0x20\n        /* \"#utility.yul\":10389:10395   */\n      dup3\n        /* \"#utility.yul\":10386:10400   */\n      lt\n        /* \"#utility.yul\":10366:10384   */\n      dup2\n        /* \"#utility.yul\":10363:10401   */\n      sub\n        /* \"#utility.yul\":10360:10444   */\n      tag_257\n      jumpi\n        /* \"#utility.yul\":10416:10434   */\n      tag_258\n      tag_123\n      jump\t// in\n    tag_258:\n        /* \"#utility.yul\":10360:10444   */\n    tag_257:\n        /* \"#utility.yul\":10181:10450   */\n      pop\n        /* \"#utility.yul\":10130:10450   */\n      swap2\n      swap1\n      pop\n      jump\t// out\n        /* \"#utility.yul\":10456:10597   */\n    tag_124:\n        /* \"#utility.yul\":10505:10509   */\n      0x00\n        /* \"#utility.yul\":10528:10531   */\n      dup2\n        /* \"#utility.yul\":10520:10531   */\n      swap1\n      pop\n        /* \"#utility.yul\":10551:10554   */\n      dup2\n        /* \"#utility.yul\":10548:10549   */\n      0x00\n        /* \"#utility.yul\":10541:10555   */\n      mstore\n        /* \"#utility.yul\":10585:10589   */\n      0x20\n        /* \"#utility.yul\":10582:10583   */\n      0x00\n        /* \"#utility.yul\":10572:10590   */\n      keccak256\n        /* \"#utility.yul\":10564:10590   */\n      swap1\n      pop\n        /* \"#utility.yul\":10456:10597   */\n      swap2\n      swap1\n      pop\n      jump\t// out\n        /* \"#utility.yul\":10603:10696   */\n    tag_125:\n        /* \"#utility.yul\":10640:10646   */\n      0x00\n        /* \"#utility.yul\":10687:10689   */\n      0x20\n        /* \"#utility.yul\":10682:10684   */\n      0x1f\n        /* \"#utility.yul\":10675:10680   */\n      dup4\n        /* \"#utility.yul\":10671:10685   */\n      add\n        /* \"#utility.yul\":10667:10690   */\n      div\n        /* \"#utility.yul\":10657:10690   */\n      swap1\n      pop\n        /* \"#utility.yul\":10603:10696   */\n      swap2\n      swap1\n      pop\n      jump\t// out\n        /* \"#utility.yul\":10702:10809   */\n    tag_126:\n        /* \"#utility.yul\":10746:10754   */\n      0x00\n        /* \"#utility.yul\":10796:10801   */\n      dup3\n        /* \"#utility.yul\":10790:10794   */\n      dup3\n        /* \"#utility.yul\":10786:10802   */\n      shl\n        /* \"#utility.yul\":10765:10802   */\n      swap1\n      pop\n        /* \"#utility.yul\":10702:10809   */\n      swap3\n      swap2\n      pop\n      pop\n      jump\t// out\n        /* \"#utility.yul\":10815:11208   */\n    tag_127:\n        /* \"#utility.yul\":10884:10890   */\n      0x00\n        /* \"#utility.yul\":10934:10935   */\n      0x08\n        /* \"#utility.yul\":10922:10932   */\n      dup4\n        /* \"#utility.yul\":10918:10936   */\n      mul\n        /* \"#utility.yul\":10957:11054   */\n      tag_263\n        /* \"#utility.yul\":10987:11053   */\n      0xffffffffffffffffffffffffffffffffffffffffffffffffffffffffffffffff\n        /* \"#utility.yul\":10976:10985   */\n      dup3\n        /* \"#utility.yul\":10957:11054   */\n      tag_126\n      jump\t// in\n    tag_263:\n        /* \"#utility.yul\":11075:11114   */\n      tag_264\n        /* \"#utility.yul\":11105:11113   */\n      dup7\n        /* \"#utility.yul\":11094:11103   */\n      dup4\n        /* \"#utility.yul\":11075:11114   */\n      tag_126\n      jump\t// in\n    tag_264:\n        /* \"#utility.yul\":11063:11114   */\n      swap6\n      pop\n        /* \"#utility.yul\":11147:11151   */\n      dup1\n        /* \"#utility.yul\":11143:11152   */\n      not\n        /* \"#utility.yul\":11136:11141   */\n      dup5\n        /* \"#utility.yul\":11132:11153   */\n      and\n        /* \"#utility.yul\":11123:11153   */\n      swap4\n      pop\n        /* \"#utility.yul\":11196:11200   */\n      dup1\n        /* \"#utility.yul\":11186:11194   */\n      dup7\n        /* \"#utility.yul\":11182:11201   */\n      and\n        /* \"#utility.yul\":11175:11180   */\n      dup5\n        /* \"#utility.yul\":11172:11202   */\n      or\n        /* \"#utility.yul\":11162:11202   */\n      swap3\n      pop\n        /* \"#utility.yul\":10891:11208   */\n      pop\n      pop\n        /* \"#utility.yul\":10815:11208   */\n      swap4\n      swap3\n      pop\n      pop\n      pop\n      jump\t// out\n        /* \"#utility.yul\":11214:11274   */\n    tag_128:\n        /* \"#utility.yul\":11242:11245   */\n      0x00\n        /* \"#utility.yul\":11263:11268   */\n      dup2\n        /* \"#utility.yul\":11256:11268   */\n      swap1\n      pop\n        /* \"#utility.yul\":11214:11274   */\n      swap2\n      swap1\n      pop\n      jump\t// out\n        /* \"#utility.yul\":11280:11422   */\n    tag_129:\n        /* \"#utility.yul\":11330:11339   */\n      0x00\n        /* \"#utility.yul\":11363:11416   */\n      tag_267\n        /* \"#utility.yul\":11381:11415   */\n      tag_268\n        /* \"#utility.yul\":11390:11414   */\n      tag_269\n        /* \"#utility.yul\":11408:11413   */\n      dup5\n        /* \"#utility.yul\":11390:11414   */\n      tag_92\n      jump\t// in\n    tag_269:\n        /* \"#utility.yul\":11381:11415   */\n      tag_128\n      jump\t// in\n    tag_268:\n        /* \"#utility.yul\":11363:11416   */\n      tag_92\n      jump\t// in\n    tag_267:\n        /* \"#utility.yul\":11350:11416   */\n      swap1\n      pop\n        /* \"#utility.yul\":11280:11422   */\n      swap2\n      swap1\n      pop\n      jump\t// out\n        /* \"#utility.yul\":11428:11503   */\n    tag_130:\n        /* \"#utility.yul\":11471:11474   */\n      0x00\n        /* \"#utility.yul\":11492:11497   */\n      dup2\n        /* \"#utility.yul\":11485:11497   */\n      swap1\n      pop\n        /* \"#utility.yul\":11428:11503   */\n      swap2\n      swap1\n      pop\n      jump\t// out\n        /* \"#utility.yul\":11509:11778   */\n    tag_131:\n        /* \"#utility.yul\":11619:11658   */\n      tag_272\n        /* \"#utility.yul\":11650:11657   */\n      dup4\n        /* \"#utility.yul\":11619:11658   */\n      tag_129\n      jump\t// in\n    tag_272:\n        /* \"#utility.yul\":11680:11771   */\n      tag_273\n        /* \"#utility.yul\":11729:11770   */\n      tag_274\n        /* \"#utility.yul\":11753:11769   */\n      dup3\n        /* \"#utility.yul\":11729:11770   */\n      tag_130\n      jump\t// in\n    tag_274:\n        /* \"#utility.yul\":11721:11727   */\n      dup5\n        /* \"#utility.yul\":11714:11718   */\n      dup5\n        /* \"#utility.yul\":11708:11719   */\n      sload\n        /* \"#utility.yul\":11680:11771   */\n      tag_127\n      jump\t// in\n    tag_273:\n        /* \"#utility.yul\":11674:11678   */\n      dup3\n        /* \"#utility.yul\":11667:11772   */\n      sstore\n        /* \"#utility.yul\":11585:11778   */\n      pop\n        /* \"#utility.yul\":11509:11778   */\n      pop\n      pop\n      pop\n      jump\t// out\n        /* \"#utility.yul\":11784:11857   */\n    tag_132:\n        /* \"#utility.yul\":11829:11832   */\n      0x00\n        /* \"#utility.yul\":11784:11857   */\n      swap1\n      jump\t// out\n        /* \"#utility.yul\":11863:12052   */\n    tag_133:\n        /* \"#utility.yul\":11940:11972   */\n      tag_277\n      tag_132\n      jump\t// in\n    tag_277:\n        /* \"#utility.yul\":11981:12046   */\n      tag_278\n        /* \"#utility.yul\":12039:12045   */\n      dup2\n        /* \"#utility.yul\":12031:12037   */\n      dup5\n        /* \"#utility.yul\":12025:12029   */\n      dup5\n        /* \"#utility.yul\":11981:12046   */\n      tag_131\n      jump\t// in\n    tag_278:\n        /* \"#utility.yul\":11916:12052   */\n      pop\n        /* \"#utility.yul\":11863:12052   */\n      pop\n      pop\n      jump\t// out\n        /* \"#utility.yul\":12058:12244   */\n    tag_134:\n        /* \"#utility.yul\":12118:12238   */\n    tag_280:\n        /* \"#utility.yul\":12135:12138   */\n      dup2\n        /* \"#utility.yul\":12128:12133   */\n      dup2\n        /* \"#utility.yul\":12125:12139   */\n      lt\n        /* \"#utility.yul\":12118:12238   */\n      iszero\n      tag_282\n      jumpi\n        /* \"#utility.yul\":12189:12228   */\n      tag_283\n        /* \"#utility.yul\":12226:12227   */\n      0x00\n        /* \"#utility.yul\":12219:12224   */\n      dup3\n        /* \"#utility.yul\":12189:12228   */\n      tag_133\n      jump\t// in\n    tag_283:\n        /* \"#utility.yul\":12162:12163   */\n      0x01\n        /* \"#utility.yul\":12155:12160   */\n      dup2\n        /* \"#utility.yul\":12151:12164   */\n      add\n        /* \"#utility.yul\":12142:12164   */\n      swap1\n      pop\n        /* \"#utility.yul\":12118:12238   */\n      jump(tag_280)\n    tag_282:\n        /* \"#utility.yul\":12058:12244   */\n      pop\n      pop\n      jump\t// out\n        /* \"#utility.yul\":12250:12793   */\n    tag_135:\n        /* \"#utility.yul\":12351:12353   */\n      0x1f\n        /* \"#utility.yul\":12346:12349   */\n      dup3\n        /* \"#utility.yul\":12343:12354   */\n      gt\n        /* \"#utility.yul\":12340:12786   */\n      iszero\n      tag_285\n      jumpi\n        /* \"#utility.yul\":12385:12423   */\n      tag_286\n        /* \"#utility.yul\":12417:12422   */\n      dup2\n        /* \"#utility.yul\":12385:12423   */\n      tag_124\n      jump\t// in\n    tag_286:\n        /* \"#utility.yul\":12469:12498   */\n      tag_287\n        /* \"#utility.yul\":12487:12497   */\n      dup5\n        /* \"#utility.yul\":12469:12498   */\n      tag_125\n      jump\t// in\n    tag_287:\n        /* \"#utility.yul\":12459:12467   */\n      dup2\n        /* \"#utility.yul\":12455:12499   */\n      add\n        /* \"#utility.yul\":12652:12654   */\n      0x20\n        /* \"#utility.yul\":12640:12650   */\n      dup6\n        /* \"#utility.yul\":12637:12655   */\n      lt\n        /* \"#utility.yul\":12634:12683   */\n      iszero\n      tag_288\n      jumpi\n        /* \"#utility.yul\":12673:12681   */\n      dup2\n        /* \"#utility.yul\":12658:12681   */\n      swap1\n      pop\n        /* \"#utility.yul\":12634:12683   */\n    tag_288:\n        /* \"#utility.yul\":12696:12776   */\n      tag_289\n        /* \"#utility.yul\":12752:12774   */\n      tag_290\n        /* \"#utility.yul\":12770:12773   */\n      dup6\n        /* \"#utility.yul\":12752:12774   */\n      tag_125\n      jump\t// in\n    tag_290:\n        /* \"#utility.yul\":12742:12750   */\n      dup4\n        /* \"#utility.yul\":12738:12775   */\n      add\n        /* \"#utility.yul\":12725:12736   */\n      dup3\n        /* \"#utility.yul\":12696:12776   */\n      tag_134\n      jump\t// in\n    tag_289:\n        /* \"#utility.yul\":12355:12786   */\n      pop\n      pop\n        /* \"#utility.yul\":12340:12786   */\n    tag_285:\n        /* \"#utility.yul\":12250:12793   */\n      pop\n      pop\n      pop\n      jump\t// out\n        /* \"#utility.yul\":12799:12916   */\n    tag_136:\n        /* \"#utility.yul\":12853:12861   */\n      0x00\n        /* \"#utility.yul\":12903:12908   */\n      dup3\n        /* \"#utility.yul\":12897:12901   */\n      dup3\n        /* \"#utility.yul\":12893:12909   */\n      shr\n        /* \"#utility.yul\":12872:12909   */\n      swap1\n      pop\n        /* \"#utility.yul\":12799:12916   */\n      swap3\n      swap2\n      pop\n      pop\n      jump\t// out\n        /* \"#utility.yul\":12922:13091   */\n    tag_137:\n        /* \"#utility.yul\":12966:12972   */\n      0x00\n        /* \"#utility.yul\":12999:13050   */\n      tag_293\n        /* \"#utility.yul\":13047:13048   */\n      0x00\n        /* \"#utility.yul\":13043:13049   */\n      not\n        /* \"#utility.yul\":13035:13040   */\n      dup5\n        /* \"#utility.yul\":13032:13033   */\n      0x08\n        /* \"#utility.yul\":13028:13041   */\n      mul\n        /* \"#utility.yul\":12999:13050   */\n      tag_136\n      jump\t// in\n    tag_293:\n        /* \"#utility.yul\":12995:13051   */\n      not\n        /* \"#utility.yul\":13080:13084   */\n      dup1\n        /* \"#utility.yul\":13074:13078   */\n      dup4\n        /* \"#utility.yul\":13070:13085   */\n      and\n        /* \"#utility.yul\":13060:13085   */\n      swap2\n      pop\n        /* \"#utility.yul\":12973:13091   */\n      pop\n        /* \"#utility.yul\":12922:13091   */\n      swap3\n      swap2\n      pop\n      pop\n      jump\t// out\n        /* \"#utility.yul\":13096:13391   */\n    tag_138:\n        /* \"#utility.yul\":13172:13176   */\n      0x00\n        /* \"#utility.yul\":13318:13347   */\n      tag_295\n        /* \"#utility.yul\":13343:13346   */\n      dup4\n        /* \"#utility.yul\":13337:13341   */\n      dup4\n        /* \"#utility.yul\":13318:13347   */\n      tag_137\n      jump\t// in\n    tag_295:\n        /* \"#utility.yul\":13310:13347   */\n      swap2\n      pop\n        /* \"#utility.yul\":13380:13383   */\n      dup3\n        /* \"#utility.yul\":13377:13378   */\n      0x02\n        /* \"#utility.yul\":13373:13384   */\n      mul\n        /* \"#utility.yul\":13367:13371   */\n      dup3\n        /* \"#utility.yul\":13364:13385   */\n      or\n        /* \"#utility.yul\":13356:13385   */\n      swap1\n      pop\n        /* \"#utility.yul\":13096:13391   */\n      swap3\n      swap2\n      pop\n      pop\n      jump\t// out\n        /* \"#utility.yul\":13396:14791   */\n    tag_40:\n        /* \"#utility.yul\":13513:13550   */\n      tag_297\n        /* \"#utility.yul\":13546:13549   */\n      dup3\n        /* \"#utility.yul\":13513:13550   */\n      tag_110\n      jump\t// in\n    tag_297:\n        /* \"#utility.yul\":13615:13633   */\n      0xffffffffffffffff\n        /* \"#utility.yul\":13607:13613   */\n      dup2\n        /* \"#utility.yul\":13604:13634   */\n      gt\n        /* \"#utility.yul\":13601:13657   */\n      iszero\n      tag_298\n      jumpi\n        /* \"#utility.yul\":13637:13655   */\n      tag_299\n      tag_102\n      jump\t// in\n    tag_299:\n        /* \"#utility.yul\":13601:13657   */\n    tag_298:\n        /* \"#utility.yul\":13681:13719   */\n      tag_300\n        /* \"#utility.yul\":13713:13717   */\n      dup3\n        /* \"#utility.yul\":13707:13718   */\n      sload\n        /* \"#utility.yul\":13681:13719   */\n      tag_63\n      jump\t// in\n    tag_300:\n        /* \"#utility.yul\":13766:13833   */\n      tag_301\n        /* \"#utility.yul\":13826:13832   */\n      dup3\n        /* \"#utility.yul\":13818:13824   */\n      dup3\n        /* \"#utility.yul\":13812:13816   */\n      dup6\n        /* \"#utility.yul\":13766:13833   */\n      tag_135\n      jump\t// in\n    tag_301:\n        /* \"#utility.yul\":13860:13861   */\n      0x00\n        /* \"#utility.yul\":13884:13888   */\n      0x20\n        /* \"#utility.yul\":13871:13888   */\n      swap1\n      pop\n        /* \"#utility.yul\":13916:13918   */\n      0x1f\n        /* \"#utility.yul\":13908:13914   */\n      dup4\n        /* \"#utility.yul\":13905:13919   */\n      gt\n        /* \"#utility.yul\":13933:13934   */\n      0x01\n        /* \"#utility.yul\":13928:14546   */\n      dup2\n      eq\n      tag_303\n      jumpi\n        /* \"#utility.yul\":14590:14591   */\n      0x00\n        /* \"#utility.yul\":14607:14613   */\n      dup5\n        /* \"#utility.yul\":14604:14681   */\n      iszero\n      tag_304\n      jumpi\n        /* \"#utility.yul\":14656:14665   */\n      dup3\n        /* \"#utility.yul\":14651:14654   */\n      dup8\n        /* \"#utility.yul\":14647:14666   */\n      add\n        /* \"#utility.yul\":14641:14667   */\n      mload\n        /* \"#utility.yul\":14632:14667   */\n      swap1\n      pop\n        /* \"#utility.yul\":14604:14681   */\n    tag_304:\n        /* \"#utility.yul\":14707:14774   */\n      tag_305\n        /* \"#utility.yul\":14767:14773   */\n      dup6\n        /* \"#utility.yul\":14760:14765   */\n      dup3\n        /* \"#utility.yul\":14707:14774   */\n      tag_138\n      jump\t// in\n    tag_305:\n        /* \"#utility.yul\":14701:14705   */\n      dup7\n        /* \"#utility.yul\":14694:14775   */\n      sstore\n        /* \"#utility.yul\":14563:14785   */\n      pop\n        /* \"#utility.yul\":13898:14785   */\n      jump(tag_302)\n        /* \"#utility.yul\":13928:14546   */\n    tag_303:\n        /* \"#utility.yul\":13980:13984   */\n      0x1f\n        /* \"#utility.yul\":13976:13985   */\n      not\n        /* \"#utility.yul\":13968:13974   */\n      dup5\n        /* \"#utility.yul\":13964:13986   */\n      and\n        /* \"#utility.yul\":14014:14051   */\n      tag_306\n        /* \"#utility.yul\":14046:14050   */\n      dup7\n        /* \"#utility.yul\":14014:14051   */\n      tag_124\n      jump\t// in\n    tag_306:\n        /* \"#utility.yul\":14073:14074   */\n      0x00\n        /* \"#utility.yul\":14087:14295   */\n    tag_307:\n        /* \"#utility.yul\":14101:14108   */\n      dup3\n        /* \"#utility.yul\":14098:14099   */\n      dup2\n        /* \"#utility.yul\":14095:14109   */\n      lt\n        /* \"#utility.yul\":14087:14295   */\n      iszero\n      tag_309\n      jumpi\n        /* \"#utility.yul\":14180:14189   */\n      dup5\n        /* \"#utility.yul\":14175:14178   */\n      dup10\n        /* \"#utility.yul\":14171:14190   */\n      add\n        /* \"#utility.yul\":14165:14191   */\n      mload\n        /* \"#utility.yul\":14157:14163   */\n      dup3\n        /* \"#utility.yul\":14150:14192   */\n      sstore\n        /* \"#utility.yul\":14231:14232   */\n      0x01\n        /* \"#utility.yul\":14223:14229   */\n      dup3\n        /* \"#utility.yul\":14219:14233   */\n      add\n        /* \"#utility.yul\":14209:14233   */\n      swap2\n      pop\n        /* \"#utility.yul\":14278:14280   */\n      0x20\n        /* \"#utility.yul\":14267:14276   */\n      dup6\n        /* \"#utility.yul\":14263:14281   */\n      add\n        /* \"#utility.yul\":14250:14281   */\n      swap5\n      pop\n        /* \"#utility.yul\":14124:14128   */\n      0x20\n        /* \"#utility.yul\":14121:14122   */\n      dup2\n        /* \"#utility.yul\":14117:14129   */\n      add\n        /* \"#utility.yul\":14112:14129   */\n      swap1\n      pop\n        /* \"#utility.yul\":14087:14295   */\n      jump(tag_307)\n    tag_309:\n        /* \"#utility.yul\":14323:14329   */\n      dup7\n        /* \"#utility.yul\":14314:14321   */\n      dup4\n        /* \"#utility.yul\":14311:14330   */\n      lt\n        /* \"#utility.yul\":14308:14487   */\n      iszero\n      tag_310\n      jumpi\n        /* \"#utility.yul\":14381:14390   */\n      dup5\n        /* \"#utility.yul\":14376:14379   */\n      dup10\n        /* \"#utility.yul\":14372:14391   */\n      add\n        /* \"#utility.yul\":14366:14392   */\n      mload\n        /* \"#utility.yul\":14424:14472   */\n      tag_311\n        /* \"#utility.yul\":14466:14470   */\n      0x1f\n        /* \"#utility.yul\":14458:14464   */\n      dup10\n        /* \"#utility.yul\":14454:14471   */\n      and\n        /* \"#utility.yul\":14443:14452   */\n      dup3\n        /* \"#utility.yul\":14424:14472   */\n      tag_137\n      jump\t// in\n    tag_311:\n        /* \"#utility.yul\":14416:14422   */\n      dup4\n        /* \"#utility.yul\":14409:14473   */\n      sstore\n        /* \"#utility.yul\":14331:14487   */\n      pop\n        /* \"#utility.yul\":14308:14487   */\n    tag_310:\n        /* \"#utility.yul\":14533:14534   */\n      0x01\n        /* \"#utility.yul\":14529:14530   */\n      0x02\n        /* \"#utility.yul\":14521:14527   */\n      dup9\n        /* \"#utility.yul\":14517:14531   */\n      mul\n        /* \"#utility.yul\":14513:14535   */\n      add\n        /* \"#utility.yul\":14507:14511   */\n      dup9\n        /* \"#utility.yul\":14500:14536   */\n      sstore\n        /* \"#utility.yul\":13935:14546   */\n      pop\n      pop\n      pop\n        /* \"#utility.yul\":13898:14785   */\n    tag_302:\n      pop\n        /* \"#utility.yul\":13488:14791   */\n      pop\n      pop\n      pop\n        /* \"#utility.yul\":13396:14791   */\n      pop\n      pop\n      jump\t// out\n        /* \"#utility.yul\":14797:14939   */\n    tag_139:\n        /* \"#utility.yul\":14847:14856   */\n      0x00\n        /* \"#utility.yul\":14880:14933   */\n      tag_313\n        /* \"#utility.yul\":14898:14932   */\n      tag_314\n        /* \"#utility.yul\":14907:14931   */\n      tag_315\n        /* \"#utility.yul\":14925:14930   */\n      dup5\n        /* \"#utility.yul\":14907:14931   */\n      tag_95\n      jump\t// in\n    tag_315:\n        /* \"#utility.yul\":14898:14932   */\n      tag_128\n      jump\t// in\n    tag_314:\n        /* \"#utility.yul\":14880:14933   */\n      tag_95\n      jump\t// in\n    tag_313:\n        /* \"#utility.yul\":14867:14933   */\n      swap1\n      pop\n        /* \"#utility.yul\":14797:14939   */\n      swap2\n      swap1\n      pop\n      jump\t// out\n        /* \"#utility.yul\":14945:15071   */\n    tag_140:\n        /* \"#utility.yul\":14995:15004   */\n      0x00\n        /* \"#utility.yul\":15028:15065   */\n      tag_317\n        /* \"#utility.yul\":15059:15064   */\n      dup3\n        /* \"#utility.yul\":15028:15065   */\n      tag_139\n      jump\t// in\n    tag_317:\n        /* \"#utility.yul\":15015:15065   */\n      swap1\n      pop\n        /* \"#utility.yul\":14945:15071   */\n      swap2\n      swap1\n      pop\n      jump\t// out\n        /* \"#utility.yul\":15077:15211   */\n    tag_141:\n        /* \"#utility.yul\":15135:15144   */\n      0x00\n        /* \"#utility.yul\":15168:15205   */\n      tag_319\n        /* \"#utility.yul\":15199:15204   */\n      dup3\n        /* \"#utility.yul\":15168:15205   */\n      tag_140\n      jump\t// in\n    tag_319:\n        /* \"#utility.yul\":15155:15205   */\n      swap1\n      pop\n        /* \"#utility.yul\":15077:15211   */\n      swap2\n      swap1\n      pop\n      jump\t// out\n        /* \"#utility.yul\":15217:15364   */\n    tag_142:\n        /* \"#utility.yul\":15312:15357   */\n      tag_321\n        /* \"#utility.yul\":15351:15356   */\n      dup2\n        /* \"#utility.yul\":15312:15357   */\n      tag_141\n      jump\t// in\n    tag_321:\n        /* \"#utility.yul\":15307:15310   */\n      dup3\n        /* \"#utility.yul\":15300:15358   */\n      mstore\n        /* \"#utility.yul\":15217:15364   */\n      pop\n      pop\n      jump\t// out\n        /* \"#utility.yul\":15370:16141   */\n    tag_42:\n        /* \"#utility.yul\":15603:15607   */\n      0x00\n        /* \"#utility.yul\":15641:15644   */\n      0xa0\n        /* \"#utility.yul\":15630:15639   */\n      dup3\n        /* \"#utility.yul\":15626:15645   */\n      add\n        /* \"#utility.yul\":15618:15645   */\n      swap1\n      pop\n        /* \"#utility.yul\":15655:15726   */\n      tag_323\n        /* \"#utility.yul\":15723:15724   */\n      0x00\n        /* \"#utility.yul\":15712:15721   */\n      dup4\n        /* \"#utility.yul\":15708:15725   */\n      add\n        /* \"#utility.yul\":15699:15705   */\n      dup9\n        /* \"#utility.yul\":15655:15726   */\n      tag_114\n      jump\t// in\n    tag_323:\n        /* \"#utility.yul\":15736:15808   */\n      tag_324\n        /* \"#utility.yul\":15804:15806   */\n      0x20\n        /* \"#utility.yul\":15793:15802   */\n      dup4\n        /* \"#utility.yul\":15789:15807   */\n      add\n        /* \"#utility.yul\":15780:15786   */\n      dup8\n        /* \"#utility.yul\":15736:15808   */\n      tag_118\n      jump\t// in\n    tag_324:\n        /* \"#utility.yul\":15818:15898   */\n      tag_325\n        /* \"#utility.yul\":15894:15896   */\n      0x40\n        /* \"#utility.yul\":15883:15892   */\n      dup4\n        /* \"#utility.yul\":15879:15897   */\n      add\n        /* \"#utility.yul\":15870:15876   */\n      dup7\n        /* \"#utility.yul\":15818:15898   */\n      tag_142\n      jump\t// in\n    tag_325:\n        /* \"#utility.yul\":15908:15980   */\n      tag_326\n        /* \"#utility.yul\":15976:15978   */\n      0x60\n        /* \"#utility.yul\":15965:15974   */\n      dup4\n        /* \"#utility.yul\":15961:15979   */\n      add\n        /* \"#utility.yul\":15952:15958   */\n      dup6\n        /* \"#utility.yul\":15908:15980   */\n      tag_114\n      jump\t// in\n    tag_326:\n        /* \"#utility.yul\":16028:16037   */\n      dup2\n        /* \"#utility.yul\":16022:16026   */\n      dup2\n        /* \"#utility.yul\":16018:16038   */\n      sub\n        /* \"#utility.yul\":16012:16015   */\n      0x80\n        /* \"#utility.yul\":16001:16010   */\n      dup4\n        /* \"#utility.yul\":15997:16016   */\n      add\n        /* \"#utility.yul\":15990:16039   */\n      mstore\n        /* \"#utility.yul\":16056:16134   */\n      tag_327\n        /* \"#utility.yul\":16129:16133   */\n      dup2\n        /* \"#utility.yul\":16120:16126   */\n      dup5\n        /* \"#utility.yul\":16056:16134   */\n      tag_113\n      jump\t// in\n    tag_327:\n        /* \"#utility.yul\":16048:16134   */\n      swap1\n      pop\n        /* \"#utility.yul\":15370:16141   */\n      swap7\n      swap6\n      pop\n      pop\n      pop\n      pop\n      pop\n      pop\n      jump\t// out\n        /* \"#utility.yul\":16147:16369   */\n    tag_143:\n        /* \"#utility.yul\":16287:16321   */\n      0x4f6e6c7920636c69656e742063616e20706572666f726d207468697320616374\n        /* \"#utility.yul\":16283:16284   */\n      0x00\n        /* \"#utility.yul\":16275:16281   */\n      dup3\n        /* \"#utility.yul\":16271:16285   */\n      add\n        /* \"#utility.yul\":16264:16322   */\n      mstore\n        /* \"#utility.yul\":16356:16361   */\n      0x696f6e0000000000000000000000000000000000000000000000000000000000\n        /* \"#utility.yul\":16351:16353   */\n      0x20\n        /* \"#utility.yul\":16343:16349   */\n      dup3\n        /* \"#utility.yul\":16339:16354   */\n      add\n        /* \"#utility.yul\":16332:16362   */\n      mstore\n        /* \"#utility.yul\":16147:16369   */\n      pop\n      jump\t// out\n        /* \"#utility.yul\":16375:16741   */\n    tag_144:\n        /* \"#utility.yul\":16517:16520   */\n      0x00\n        /* \"#utility.yul\":16538:16605   */\n      tag_330\n        /* \"#utility.yul\":16602:16604   */\n      0x23\n        /* \"#utility.yul\":16597:16600   */\n      dup4\n        /* \"#utility.yul\":16538:16605   */\n      tag_111\n      jump\t// in\n    tag_330:\n        /* \"#utility.yul\":16531:16605   */\n      swap2\n      pop\n        /* \"#utility.yul\":16614:16707   */\n      tag_331\n        /* \"#utility.yul\":16703:16706   */\n      dup3\n        /* \"#utility.yul\":16614:16707   */\n      tag_143\n      jump\t// in\n    tag_331:\n        /* \"#utility.yul\":16732:16734   */\n      0x40\n        /* \"#utility.yul\":16727:16730   */\n      dup3\n        /* \"#utility.yul\":16723:16735   */\n      add\n        /* \"#utility.yul\":16716:16735   */\n      swap1\n      pop\n        /* \"#utility.yul\":16375:16741   */\n      swap2\n      swap1\n      pop\n      jump\t// out\n        /* \"#utility.yul\":16747:17166   */\n    tag_46:\n        /* \"#utility.yul\":16913:16917   */\n      0x00\n        /* \"#utility.yul\":16951:16953   */\n      0x20\n        /* \"#utility.yul\":16940:16949   */\n      dup3\n        /* \"#utility.yul\":16936:16954   */\n      add\n        /* \"#utility.yul\":16928:16954   */\n      swap1\n      pop\n        /* \"#utility.yul\":17000:17009   */\n      dup2\n        /* \"#utility.yul\":16994:16998   */\n      dup2\n        /* \"#utility.yul\":16990:17010   */\n      sub\n        /* \"#utility.yul\":16986:16987   */\n      0x00\n        /* \"#utility.yul\":16975:16984   */\n      dup4\n        /* \"#utility.yul\":16971:16988   */\n      add\n        /* \"#utility.yul\":16964:17011   */\n      mstore\n        /* \"#utility.yul\":17028:17159   */\n      tag_333\n        /* \"#utility.yul\":17154:17158   */\n      dup2\n        /* \"#utility.yul\":17028:17159   */\n      tag_144\n      jump\t// in\n    tag_333:\n        /* \"#utility.yul\":17020:17159   */\n      swap1\n      pop\n        /* \"#utility.yul\":16747:17166   */\n      swap2\n      swap1\n      pop\n      jump\t// out\n        /* \"#utility.yul\":17172:17345   */\n    tag_145:\n        /* \"#utility.yul\":17312:17337   */\n      0x44656c697665727920646f6573206e6f74206578697374000000000000000000\n        /* \"#utility.yul\":17308:17309   */\n      0x00\n        /* \"#utility.yul\":17300:17306   */\n      dup3\n        /* \"#utility.yul\":17296:17310   */\n      add\n        /* \"#utility.yul\":17289:17338   */\n      mstore\n        /* \"#utility.yul\":17172:17345   */\n      pop\n      jump\t// out\n        /* \"#utility.yul\":17351:17717   */\n    tag_146:\n        /* \"#utility.yul\":17493:17496   */\n      0x00\n        /* \"#utility.yul\":17514:17581   */\n      tag_336\n        /* \"#utility.yul\":17578:17580   */\n      0x17\n        /* \"#utility.yul\":17573:17576   */\n      dup4\n        /* \"#utility.yul\":17514:17581   */\n      tag_111\n      jump\t// in\n    tag_336:\n        /* \"#utility.yul\":17507:17581   */\n      swap2\n      pop\n        /* \"#utility.yul\":17590:17683   */\n      tag_337\n        /* \"#utility.yul\":17679:17682   */\n      dup3\n        /* \"#utility.yul\":17590:17683   */\n      tag_145\n      jump\t// in\n    tag_337:\n        /* \"#utility.yul\":17708:17710   */\n      0x20\n        /* \"#utility.yul\":17703:17706   */\n      dup3\n        /* \"#utility.yul\":17699:17711   */\n      add\n        /* \"#utility.yul\":17692:17711   */\n      swap1\n      pop\n        /* \"#utility.yul\":17351:17717   */\n      swap2\n      swap1\n      pop\n      jump\t// out\n        /* \"#utility.yul\":17723:18142   */\n    tag_50:\n        /* \"#utility.yul\":17889:17893   */\n      0x00\n        /* \"#utility.yul\":17927:17929   */\n      0x20\n        /* \"#utility.yul\":17916:17925   */\n      dup3\n        /* \"#utility.yul\":17912:17930   */\n      add\n        /* \"#utility.yul\":17904:17930   */\n      swap1\n      pop\n        /* \"#utility.yul\":17976:17985   */\n      dup2\n        /* \"#utility.yul\":17970:17974   */\n      dup2\n        /* \"#utility.yul\":17966:17986   */\n      sub\n        /* \"#utility.yul\":17962:17963   */\n      0x00\n        /* \"#utility.yul\":17951:17960   */\n      dup4\n        /* \"#utility.yul\":17947:17964   */\n      add\n        /* \"#utility.yul\":17940:17987   */\n      mstore\n        /* \"#utility.yul\":18004:18135   */\n      tag_339\n        /* \"#utility.yul\":18130:18134   */\n      dup2\n        /* \"#utility.yul\":18004:18135   */\n      tag_146\n      jump\t// in\n    tag_339:\n        /* \"#utility.yul\":17996:18135   */\n      swap1\n      pop\n        /* \"#utility.yul\":17723:18142   */\n      swap2\n      swap1\n      pop\n      jump\t// out\n        /* \"#utility.yul\":18148:18324   */\n    tag_147:\n        /* \"#utility.yul\":18288:18316   */\n      0x44656c6976657279206e6f7420636f6e6669726d656420796574000000000000\n        /* \"#utility.yul\":18284:18285   */\n      0x00\n        /* \"#utility.yul\":18276:18282   */\n      dup3\n        /* \"#utility.yul\":18272:18286   */\n      add\n        /* \"#utility.yul\":18265:18317   */\n      mstore\n        /* \"#utility.yul\":18148:18324   */\n      pop\n      jump\t// out\n        /* \"#utility.yul\":18330:18696   */\n    tag_148:\n        /* \"#utility.yul\":18472:18475   */\n      0x00\n        /* \"#utility.yul\":18493:18560   */\n      tag_342\n        /* \"#utility.yul\":18557:18559   */\n      0x1a\n        /* \"#utility.yul\":18552:18555   */\n      dup4\n        /* \"#utility.yul\":18493:18560   */\n      tag_111\n      jump\t// in\n    tag_342:\n        /* \"#utility.yul\":18486:18560   */\n      swap2\n      pop\n        /* \"#utility.yul\":18569:18662   */\n      tag_343\n        /* \"#utility.yul\":18658:18661   */\n      dup3\n        /* \"#utility.yul\":18569:18662   */\n      tag_147\n      jump\t// in\n    tag_343:\n        /* \"#utility.yul\":18687:18689   */\n      0x20\n        /* \"#utility.yul\":18682:18685   */\n      dup3\n        /* \"#utility.yul\":18678:18690   */\n      add\n        /* \"#utility.yul\":18671:18690   */\n      swap1\n      pop\n        /* \"#utility.yul\":18330:18696   */\n      swap2\n      swap1\n      pop\n      jump\t// out\n        /* \"#utility.yul\":18702:19121   */\n    tag_54:\n        /* \"#utility.yul\":18868:18872   */\n      0x00\n        /* \"#utility.yul\":18906:18908   */\n      0x20\n        /* \"#utility.yul\":18895:18904   */\n      dup3\n        /* \"#utility.yul\":18891:18909   */\n      add\n        /* \"#utility.yul\":18883:18909   */\n      swap1\n      pop\n        /* \"#utility.yul\":18955:18964   */\n      dup2\n        /* \"#utility.yul\":18949:18953   */\n      dup2\n        /* \"#utility.yul\":18945:18965   */\n      sub\n        /* \"#utility.yul\":18941:18942   */\n      0x00\n        /* \"#utility.yul\":18930:18939   */\n      dup4\n        /* \"#utility.yul\":18926:18943   */\n      add\n        /* \"#utility.yul\":18919:18966   */\n      mstore\n        /* \"#utility.yul\":18983:19114   */\n      tag_345\n        /* \"#utility.yul\":19109:19113   */\n      dup2\n        /* \"#utility.yul\":18983:19114   */\n      tag_148\n      jump\t// in\n    tag_345:\n        /* \"#utility.yul\":18975:19114   */\n      swap1\n      pop\n        /* \"#utility.yul\":18702:19121   */\n      swap2\n      swap1\n      pop\n      jump\t// out\n        /* \"#utility.yul\":19127:19299   */\n    tag_149:\n        /* \"#utility.yul\":19267:19291   */\n      0x46756e647320616c72656164792072656c656173656400000000000000000000\n        /* \"#utility.yul\":19263:19264   */\n      0x00\n        /* \"#utility.yul\":19255:19261   */\n      dup3\n        /* \"#utility.yul\":19251:19265   */\n      add\n        /* \"#utility.yul\":19244:19292   */\n      mstore\n        /* \"#utility.yul\":19127:19299   */\n      pop\n      jump\t// out\n        /* \"#utility.yul\":19305:19671   */\n    tag_150:\n        /* \"#utility.yul\":19447:19450   */\n      0x00\n        /* \"#utility.yul\":19468:19535   */\n      tag_348\n        /* \"#utility.yul\":19532:19534   */\n      0x16\n        /* \"#utility.yul\":19527:19530   */\n      dup4\n        /* \"#utility.yul\":19468:19535   */\n      tag_111\n      jump\t// in\n    tag_348:\n        /* \"#utility.yul\":19461:19535   */\n      swap2\n      pop\n        /* \"#utility.yul\":19544:19637   */\n      tag_349\n        /* \"#utility.yul\":19633:19636   */\n      dup3\n        /* \"#utility.yul\":19544:19637   */\n      tag_149\n      jump\t// in\n    tag_349:\n        /* \"#utility.yul\":19662:19664   */\n      0x20\n        /* \"#utility.yul\":19657:19660   */\n      dup3\n        /* \"#utility.yul\":19653:19665   */\n      add\n        /* \"#utility.yul\":19646:19665   */\n      swap1\n      pop\n        /* \"#utility.yul\":19305:19671   */\n      swap2\n      swap1\n      pop\n      jump\t// out\n        /* \"#utility.yul\":19677:20096   */\n    tag_57:\n        /* \"#utility.yul\":19843:19847   */\n      0x00\n        /* \"#utility.yul\":19881:19883   */\n      0x20\n        /* \"#utility.yul\":19870:19879   */\n      dup3\n        /* \"#utility.yul\":19866:19884   */\n      add\n        /* \"#utility.yul\":19858:19884   */\n      swap1\n      pop\n        /* \"#utility.yul\":19930:19939   */\n      dup2\n        /* \"#utility.yul\":19924:19928   */\n      dup2\n        /* \"#utility.yul\":19920:19940   */\n      sub\n        /* \"#utility.yul\":19916:19917   */\n      0x00\n        /* \"#utility.yul\":19905:19914   */\n      dup4\n        /* \"#utility.yul\":19901:19918   */\n      add\n        /* \"#utility.yul\":19894:19941   */\n      mstore\n        /* \"#utility.yul\":19958:20089   */\n      tag_351\n        /* \"#utility.yul\":20084:20088   */\n      dup2\n        /* \"#utility.yul\":19958:20089   */\n      tag_150\n      jump\t// in\n    tag_351:\n        /* \"#utility.yul\":19950:20089   */\n      swap1\n      pop\n        /* \"#utility.yul\":19677:20096   */\n      swap2\n      swap1\n      pop\n      jump\t// out\n        /* \"#utility.yul\":20102:20560   */\n    tag_61:\n        /* \"#utility.yul\":20259:20263   */\n      0x00\n        /* \"#utility.yul\":20297:20299   */\n      0x60\n        /* \"#utility.yul\":20286:20295   */\n      dup3\n        /* \"#utility.yul\":20282:20300   */\n      add\n        /* \"#utility.yul\":20274:20300   */\n      swap1\n      pop\n        /* \"#utility.yul\":20310:20381   */\n      tag_353\n        /* \"#utility.yul\":20378:20379   */\n      0x00\n        /* \"#utility.yul\":20367:20376   */\n      dup4\n        /* \"#utility.yul\":20363:20380   */\n      add\n        /* \"#utility.yul\":20354:20360   */\n      dup7\n        /* \"#utility.yul\":20310:20381   */\n      tag_114\n      jump\t// in\n    tag_353:\n        /* \"#utility.yul\":20391:20471   */\n      tag_354\n        /* \"#utility.yul\":20467:20469   */\n      0x20\n        /* \"#utility.yul\":20456:20465   */\n      dup4\n        /* \"#utility.yul\":20452:20470   */\n      add\n        /* \"#utility.yul\":20443:20449   */\n      dup6\n        /* \"#utility.yul\":20391:20471   */\n      tag_142\n      jump\t// in\n    tag_354:\n        /* \"#utility.yul\":20481:20553   */\n      tag_355\n        /* \"#utility.yul\":20549:20551   */\n      0x40\n        /* \"#utility.yul\":20538:20547   */\n      dup4\n        /* \"#utility.yul\":20534:20552   */\n      add\n        /* \"#utility.yul\":20525:20531   */\n      dup5\n        /* \"#utility.yul\":20481:20553   */\n      tag_114\n      jump\t// in\n    tag_355:\n        /* \"#utility.yul\":20102:20560   */\n      swap5\n      swap4\n      pop\n      pop\n      pop\n      pop\n      jump\t// out\n        /* \"#utility.yul\":20566:20742   */\n    tag_151:\n        /* \"#utility.yul\":20706:20734   */\n      0x44656c697665727920616c726561647920636f6e6669726d6564000000000000\n        /* \"#utility.yul\":20702:20703   */\n      0x00\n        /* \"#utility.yul\":20694:20700   */\n      dup3\n        /* \"#utility.yul\":20690:20704   */\n      add\n        /* \"#utility.yul\":20683:20735   */\n      mstore\n        /* \"#utility.yul\":20566:20742   */\n      pop\n      jump\t// out\n        /* \"#utility.yul\":20748:21114   */\n    tag_152:\n        /* \"#utility.yul\":20890:20893   */\n      0x00\n        /* \"#utility.yul\":20911:20978   */\n      tag_358\n        /* \"#utility.yul\":20975:20977   */\n      0x1a\n        /* \"#utility.yul\":20970:20973   */\n      dup4\n        /* \"#utility.yul\":20911:20978   */\n      tag_111\n      jump\t// in\n    tag_358:\n        /* \"#utility.yul\":20904:20978   */\n      swap2\n      pop\n        /* \"#utility.yul\":20987:21080   */\n      tag_359\n        /* \"#utility.yul\":21076:21079   */\n      dup3\n        /* \"#utility.yul\":20987:21080   */\n      tag_151\n      jump\t// in\n    tag_359:\n        /* \"#utility.yul\":21105:21107   */\n      0x20\n        /* \"#utility.yul\":21100:21103   */\n      dup3\n        /* \"#utility.yul\":21096:21108   */\n      add\n        /* \"#utility.yul\":21089:21108   */\n      swap1\n      pop\n        /* \"#utility.yul\":20748:21114   */\n      swap2\n      swap1\n      pop\n      jump\t// out\n        /* \"#utility.yul\":21120:21539   */\n    tag_86:\n        /* \"#utility.yul\":21286:21290   */\n      0x00\n        /* \"#utility.yul\":21324:21326   */\n      0x20\n        /* \"#utility.yul\":21313:21322   */\n      dup3\n        /* \"#utility.yul\":21309:21327   */\n      add\n        /* \"#utility.yul\":21301:21327   */\n      swap1\n      pop\n        /* \"#utility.yul\":21373:21382   */\n      dup2\n        /* \"#utility.yul\":21367:21371   */\n      dup2\n        /* \"#utility.yul\":21363:21383   */\n      sub\n        /* \"#utility.yul\":21359:21360   */\n      0x00\n        /* \"#utility.yul\":21348:21357   */\n      dup4\n        /* \"#utility.yul\":21344:21361   */\n      add\n        /* \"#utility.yul\":21337:21384   */\n      mstore\n        /* \"#utility.yul\":21401:21532   */\n      tag_361\n        /* \"#utility.yul\":21527:21531   */\n      dup2\n        /* \"#utility.yul\":21401:21532   */\n      tag_152\n      jump\t// in\n    tag_361:\n        /* \"#utility.yul\":21393:21532   */\n      swap1\n      pop\n        /* \"#utility.yul\":21120:21539   */\n      swap2\n      swap1\n      pop\n      jump\t// out\n        /* \"#utility.yul\":21545:21767   */\n    tag_88:\n        /* \"#utility.yul\":21638:21642   */\n      0x00\n        /* \"#utility.yul\":21676:21678   */\n      0x20\n        /* \"#utility.yul\":21665:21674   */\n      dup3\n        /* \"#utility.yul\":21661:21679   */\n      add\n        /* \"#utility.yul\":21653:21679   */\n      swap1\n      pop\n        /* \"#utility.yul\":21689:21760   */\n      tag_363\n        /* \"#utility.yul\":21757:21758   */\n      0x00\n        /* \"#utility.yul\":21746:21755   */\n      dup4\n        /* \"#utility.yul\":21742:21759   */\n      add\n        /* \"#utility.yul\":21733:21739   */\n      dup5\n        /* \"#utility.yul\":21689:21760   */\n      tag_114\n      jump\t// in\n    tag_363:\n        /* \"#utility.yul\":21545:21767   */\n      swap3\n      swap2\n      pop\n      pop\n      jump\t// out\n\n    auxdata: 0xa2646970667358221220352c5a1f2f6f0ef44f5e6779821eb4f7f37f015db87543013872558f4769660d64736f6c634300081a0033\n}\n",
				"bytecode": {
					"linkReferences": {},
					"object": "6080604052348015600e575f80fd5b5061168d8061001c5f395ff3fe608060405260043610610049575f3560e01c80635ca5f2191461004d57806388685cd914610069578063a9e4a32414610091578063cb3918a8146100d2578063fd84cb9714610113575b5f80fd5b61006760048036038101906100629190610d31565b61013b565b005b348015610074575f80fd5b5061008f600480360381019061008a9190610d9d565b61036f565b005b34801561009c575f80fd5b506100b760048036038101906100b29190610d9d565b61065f565b6040516100c996959493929190610e60565b60405180910390f35b3480156100dd575f80fd5b506100f860048036038101906100f39190610d9d565b610773565b60405161010a96959493929190610ee6565b60405180910390f35b34801561011e575f80fd5b5061013960048036038101906101349190610d9d565b61099a565b005b5f341161017d576040517f08c379a000000000000000000000000000000000000000000000000000000000815260040161017490610fbc565b60405180910390fd5b5f805f8581526020019081526020015f2060030154146101d2576040517f08c379a00000000000000000000000000000000000000000000000000000000081526004016101c99061104a565b60405180910390fd5b6040518060c001604052803373ffffffffffffffffffffffffffffffffffffffff1681526020018373ffffffffffffffffffffffffffffffffffffffff1681526020018281526020013481526020015f151581526020015f15158152505f808581526020019081526020015f205f820151815f015f6101000a81548173ffffffffffffffffffffffffffffffffffffffff021916908373ffffffffffffffffffffffffffffffffffffffff1602179055506020820151816001015f6101000a81548173ffffffffffffffffffffffffffffffffffffffff021916908373ffffffffffffffffffffffffffffffffffffffff16021790555060408201518160020190816102de9190611262565b50606082015181600301556080820151816004015f6101000a81548160ff02191690831515021790555060a08201518160040160016101000a81548160ff0219169083151502179055509050507f079316c6cb044ce8147d3a031eb8c26e06754da3a9393a80d7619a0e1269675f8333843485604051610362959493929190611383565b60405180910390a1505050565b805f808281526020019081526020015f205f015f9054906101000a900473ffffffffffffffffffffffffffffffffffffffff1673ffffffffffffffffffffffffffffffffffffffff163373ffffffffffffffffffffffffffffffffffffffff161461040f576040517f08c379a00000000000000000000000000000000000000000000000000000000081526004016104069061144b565b60405180910390fd5b815f805f8381526020019081526020015f206003015411610465576040517f08c379a000000000000000000000000000000000000000000000000000000000815260040161045c906114b3565b60405180910390fd5b5f808481526020019081526020015f206004015f9054906101000a900460ff166104c4576040517f08c379a00000000000000000000000000000000000000000000000000000000081526004016104bb9061151b565b60405180910390fd5b5f808481526020019081526020015f2060040160019054906101000a900460ff1615610525576040517f08c379a000000000000000000000000000000000000000000000000000000000815260040161051c90611583565b60405180910390fd5b60015f808581526020019081526020015f2060040160016101000a81548160ff0219169083151502179055505f808481526020019081526020015f206001015f9054906101000a900473ffffffffffffffffffffffffffffffffffffffff1673ffffffffffffffffffffffffffffffffffffffff166108fc5f808681526020019081526020015f206003015490811502906040515f60405180830381858888f193505050501580156105d9573d5f803e3d5ffd5b507f21d71db5be59bb9fa133895586b7404307dd33fb93b16db09dc6f1d9d7d231b0835f808681526020019081526020015f206001015f9054906101000a900473ffffffffffffffffffffffffffffffffffffffff165f808781526020019081526020015f2060030154604051610652939291906115a1565b60405180910390a1505050565b5f602052805f5260405f205f91509050805f015f9054906101000a900473ffffffffffffffffffffffffffffffffffffffff1690806001015f9054906101000a900473ffffffffffffffffffffffffffffffffffffffff16908060020180546106c790611095565b80601f01602080910402602001604051908101604052809291908181526020018280546106f390611095565b801561073e5780601f106107155761010080835404028352916020019161073e565b820191905f5260205f20905b81548152906001019060200180831161072157829003601f168201915b505050505090806003015490806004015f9054906101000a900460ff16908060040160019054906101000a900460ff16905086565b5f8060605f805f865f805f8381526020019081526020015f2060030154116107d0576040517f08c379a00000000000000000000000000000000000000000000000000000000081526004016107c7906114b3565b60405180910390fd5b5f805f8a81526020019081526020015f206040518060c00160405290815f82015f9054906101000a900473ffffffffffffffffffffffffffffffffffffffff1673ffffffffffffffffffffffffffffffffffffffff1673ffffffffffffffffffffffffffffffffffffffff168152602001600182015f9054906101000a900473ffffffffffffffffffffffffffffffffffffffff1673ffffffffffffffffffffffffffffffffffffffff1673ffffffffffffffffffffffffffffffffffffffff1681526020016002820180546108a590611095565b80601f01602080910402602001604051908101604052809291908181526020018280546108d190611095565b801561091c5780601f106108f35761010080835404028352916020019161091c565b820191905f5260205f20905b8154815290600101906020018083116108ff57829003601f168201915b5050505050815260200160038201548152602001600482015f9054906101000a900460ff161515151581526020016004820160019054906101000a900460ff1615151515815250509050805f015181602001518260400151836060015184608001518560a00151975097509750975097509750505091939550919395565b805f808281526020019081526020015f205f015f9054906101000a900473ffffffffffffffffffffffffffffffffffffffff1673ffffffffffffffffffffffffffffffffffffffff163373ffffffffffffffffffffffffffffffffffffffff1614610a3a576040517f08c379a0000000000000000000000000000000000000000000000000000000008152600401610a319061144b565b60405180910390fd5b815f805f8381526020019081526020015f206003015411610a90576040517f08c379a0000000000000000000000000000000000000000000000000000000008152600401610a87906114b3565b60405180910390fd5b5f808481526020019081526020015f206004015f9054906101000a900460ff1615610af0576040517f08c379a0000000000000000000000000000000000000000000000000000000008152600401610ae790611620565b60405180910390fd5b60015f808581526020019081526020015f206004015f6101000a81548160ff0219169083151502179055507f375b4005eeae25d0e37d56e1b3841d3bb394b277efa2548de3293f5dcb7a349383604051610b4a919061163e565b60405180910390a1505050565b5f604051905090565b5f80fd5b5f80fd5b5f819050919050565b610b7a81610b68565b8114610b84575f80fd5b50565b5f81359050610b9581610b71565b92915050565b5f73ffffffffffffffffffffffffffffffffffffffff82169050919050565b5f610bc482610b9b565b9050919050565b610bd481610bba565b8114610bde575f80fd5b50565b5f81359050610bef81610bcb565b92915050565b5f80fd5b5f80fd5b5f601f19601f8301169050919050565b7f4e487b71000000000000000000000000000000000000000000000000000000005f52604160045260245ffd5b610c4382610bfd565b810181811067ffffffffffffffff82111715610c6257610c61610c0d565b5b80604052505050565b5f610c74610b57565b9050610c808282610c3a565b919050565b5f67ffffffffffffffff821115610c9f57610c9e610c0d565b5b610ca882610bfd565b9050602081019050919050565b828183375f83830152505050565b5f610cd5610cd084610c85565b610c6b565b905082815260208101848484011115610cf157610cf0610bf9565b5b610cfc848285610cb5565b509392505050565b5f82601f830112610d1857610d17610bf5565b5b8135610d28848260208601610cc3565b91505092915050565b5f805f60608486031215610d4857610d47610b60565b5b5f610d5586828701610b87565b9350506020610d6686828701610be1565b925050604084013567ffffffffffffffff811115610d8757610d86610b64565b5b610d9386828701610d04565b9150509250925092565b5f60208284031215610db257610db1610b60565b5b5f610dbf84828501610b87565b91505092915050565b610dd181610bba565b82525050565b5f81519050919050565b5f82825260208201905092915050565b8281835e5f83830152505050565b5f610e0982610dd7565b610e138185610de1565b9350610e23818560208601610df1565b610e2c81610bfd565b840191505092915050565b610e4081610b68565b82525050565b5f8115159050919050565b610e5a81610e46565b82525050565b5f60c082019050610e735f830189610dc8565b610e806020830188610dc8565b8181036040830152610e928187610dff565b9050610ea16060830186610e37565b610eae6080830185610e51565b610ebb60a0830184610e51565b979650505050505050565b5f610ed082610b9b565b9050919050565b610ee081610ec6565b82525050565b5f60c082019050610ef95f830189610ed7565b610f066020830188610ed7565b8181036040830152610f188187610dff565b9050610f276060830186610e37565b610f346080830185610e51565b610f4160a0830184610e51565b979650505050505050565b7f457363726f7720616d6f756e74206d75737420626520677265617465722074685f8201527f616e207a65726f00000000000000000000000000000000000000000000000000602082015250565b5f610fa6602783610de1565b9150610fb182610f4c565b604082019050919050565b5f6020820190508181035f830152610fd381610f9a565b9050919050565b7f457363726f7720616c72656164792065786973747320666f722074686973206a5f8201527f6f62000000000000000000000000000000000000000000000000000000000000602082015250565b5f611034602283610de1565b915061103f82610fda565b604082019050919050565b5f6020820190508181035f83015261106181611028565b9050919050565b7f4e487b71000000000000000000000000000000000000000000000000000000005f52602260045260245ffd5b5f60028204905060018216806110ac57607f821691505b6020821081036110bf576110be611068565b5b50919050565b5f819050815f5260205f209050919050565b5f6020601f8301049050919050565b5f82821b905092915050565b5f600883026111217fffffffffffffffffffffffffffffffffffffffffffffffffffffffffffffffff826110e6565b61112b86836110e6565b95508019841693508086168417925050509392505050565b5f819050919050565b5f61116661116161115c84610b68565b611143565b610b68565b9050919050565b5f819050919050565b61117f8361114c565b61119361118b8261116d565b8484546110f2565b825550505050565b5f90565b6111a761119b565b6111b2818484611176565b505050565b5b818110156111d5576111ca5f8261119f565b6001810190506111b8565b5050565b601f82111561121a576111eb816110c5565b6111f4846110d7565b81016020851015611203578190505b61121761120f856110d7565b8301826111b7565b50505b505050565b5f82821c905092915050565b5f61123a5f198460080261121f565b1980831691505092915050565b5f611252838361122b565b9150826002028217905092915050565b61126b82610dd7565b67ffffffffffffffff81111561128457611283610c0d565b5b61128e8254611095565b6112998282856111d9565b5f60209050601f8311600181146112ca575f84156112b8578287015190505b6112c28582611247565b865550611329565b601f1984166112d8866110c5565b5f5b828110156112ff578489015182556001820191506020850194506020810190506112da565b8683101561131c5784890151611318601f89168261122b565b8355505b6001600288020188555050505b505050505050565b5f61134b61134661134184610b9b565b611143565b610b9b565b9050919050565b5f61135c82611331565b9050919050565b5f61136d82611352565b9050919050565b61137d81611363565b82525050565b5f60a0820190506113965f830188610e37565b6113a36020830187610ed7565b6113b06040830186611374565b6113bd6060830185610e37565b81810360808301526113cf8184610dff565b90509695505050505050565b7f4f6e6c7920636c69656e742063616e20706572666f726d2074686973206163745f8201527f696f6e0000000000000000000000000000000000000000000000000000000000602082015250565b5f611435602383610de1565b9150611440826113db565b604082019050919050565b5f6020820190508181035f83015261146281611429565b9050919050565b7f44656c697665727920646f6573206e6f742065786973740000000000000000005f82015250565b5f61149d601783610de1565b91506114a882611469565b602082019050919050565b5f6020820190508181035f8301526114ca81611491565b9050919050565b7f44656c6976657279206e6f7420636f6e6669726d6564207965740000000000005f82015250565b5f611505601a83610de1565b9150611510826114d1565b602082019050919050565b5f6020820190508181035f830152611532816114f9565b9050919050565b7f46756e647320616c72656164792072656c6561736564000000000000000000005f82015250565b5f61156d601683610de1565b915061157882611539565b602082019050919050565b5f6020820190508181035f83015261159a81611561565b9050919050565b5f6060820190506115b45f830186610e37565b6115c16020830185611374565b6115ce6040830184610e37565b949350505050565b7f44656c697665727920616c726561647920636f6e6669726d65640000000000005f82015250565b5f61160a601a83610de1565b9150611615826115d6565b602082019050919050565b5f6020820190508181035f830152611637816115fe565b9050919050565b5f6020820190506116515f830184610e37565b9291505056fea2646970667358221220352c5a1f2f6f0ef44f5e6779821eb4f7f37f015db87543013872558f4769660d64736f6c634300081a0033",
					"opcodes": "PUSH1 0x80 PUSH1 0x40 MSTORE CALLVALUE DUP1 ISZERO PUSH1 0xE JUMPI PUSH0 DUP1 REVERT JUMPDEST POP PUSH2 0x168D DUP1 PUSH2 0x1C PUSH0 CODECOPY PUSH0 RETURN INVALID PUSH1 0x80 PUSH1 0x40 MSTORE PUSH1 0x4 CALLDATASIZE LT PUSH2 0x49 JUMPI PUSH0 CALLDATALOAD PUSH1 0xE0 SHR DUP1 PUSH4 0x5CA5F219 EQ PUSH2 0x4D JUMPI DUP1 PUSH4 0x88685CD9 EQ PUSH2 0x69 JUMPI DUP1 PUSH4 0xA9E4A324 EQ PUSH2 0x91 JUMPI DUP1 PUSH4 0xCB3918A8 EQ PUSH2 0xD2 JUMPI DUP1 PUSH4 0xFD84CB97 EQ PUSH2 0x113 JUMPI JUMPDEST PUSH0 DUP1 REVERT JUMPDEST PUSH2 0x67 PUSH1 0x4 DUP1 CALLDATASIZE SUB DUP2 ADD SWAP1 PUSH2 0x62 SWAP2 SWAP1 PUSH2 0xD31 JUMP JUMPDEST PUSH2 0x13B JUMP JUMPDEST STOP JUMPDEST CALLVALUE DUP1 ISZERO PUSH2 0x74 JUMPI PUSH0 DUP1 REVERT JUMPDEST POP PUSH2 0x8F PUSH1 0x4 DUP1 CALLDATASIZE SUB DUP2 ADD SWAP1 PUSH2 0x8A SWAP2 SWAP1 PUSH2 0xD9D JUMP JUMPDEST PUSH2 0x36F JUMP JUMPDEST STOP JUMPDEST CALLVALUE DUP1 ISZERO PUSH2 0x9C JUMPI PUSH0 DUP1 REVERT JUMPDEST POP PUSH2 0xB7 PUSH1 0x4 DUP1 CALLDATASIZE SUB DUP2 ADD SWAP1 PUSH2 0xB2 SWAP2 SWAP1 PUSH2 0xD9D JUMP JUMPDEST PUSH2 0x65F JUMP JUMPDEST PUSH1 0x40 MLOAD PUSH2 0xC9 SWAP7 SWAP6 SWAP5 SWAP4 SWAP3 SWAP2 SWAP1 PUSH2 0xE60 JUMP JUMPDEST PUSH1 0x40 MLOAD DUP1 SWAP2 SUB SWAP1 RETURN JUMPDEST CALLVALUE DUP1 ISZERO PUSH2 0xDD JUMPI PUSH0 DUP1 REVERT JUMPDEST POP PUSH2 0xF8 PUSH1 0x4 DUP1 CALLDATASIZE SUB DUP2 ADD SWAP1 PUSH2 0xF3 SWAP2 SWAP1 PUSH2 0xD9D JUMP JUMPDEST PUSH2 0x773 JUMP JUMPDEST PUSH1 0x40 MLOAD PUSH2 0x10A SWAP7 SWAP6 SWAP5 SWAP4 SWAP3 SWAP2 SWAP1 PUSH2 0xEE6 JUMP JUMPDEST PUSH1 0x40 MLOAD DUP1 SWAP2 SUB SWAP1 RETURN JUMPDEST CALLVALUE DUP1 ISZERO PUSH2 0x11E JUMPI PUSH0 DUP1 REVERT JUMPDEST POP PUSH2 0x139 PUSH1 0x4 DUP1 CALLDATASIZE SUB DUP2 ADD SWAP1 PUSH2 0x134 SWAP2 SWAP1 PUSH2 0xD9D JUMP JUMPDEST PUSH2 0x99A JUMP JUMPDEST STOP JUMPDEST PUSH0 CALLVALUE GT PUSH2 0x17D JUMPI PUSH1 0x40 MLOAD PUSH32 0x8C379A000000000000000000000000000000000000000000000000000000000 DUP2 MSTORE PUSH1 0x4 ADD PUSH2 0x174 SWAP1 PUSH2 0xFBC JUMP JUMPDEST PUSH1 0x40 MLOAD DUP1 SWAP2 SUB SWAP1 REVERT JUMPDEST PUSH0 DUP1 PUSH0 DUP6 DUP2 MSTORE PUSH1 0x20 ADD SWAP1 DUP2 MSTORE PUSH1 0x20 ADD PUSH0 KECCAK256 PUSH1 0x3 ADD SLOAD EQ PUSH2 0x1D2 JUMPI PUSH1 0x40 MLOAD PUSH32 0x8C379A000000000000000000000000000000000000000000000000000000000 DUP2 MSTORE PUSH1 0x4 ADD PUSH2 0x1C9 SWAP1 PUSH2 0x104A JUMP JUMPDEST PUSH1 0x40 MLOAD DUP1 SWAP2 SUB SWAP1 REVERT JUMPDEST PUSH1 0x40 MLOAD DUP1 PUSH1 0xC0 ADD PUSH1 0x40 MSTORE DUP1 CALLER PUSH20 0xFFFFFFFFFFFFFFFFFFFFFFFFFFFFFFFFFFFFFFFF AND DUP2 MSTORE PUSH1 0x20 ADD DUP4 PUSH20 0xFFFFFFFFFFFFFFFFFFFFFFFFFFFFFFFFFFFFFFFF AND DUP2 MSTORE PUSH1 0x20 ADD DUP3 DUP2 MSTORE PUSH1 0x20 ADD CALLVALUE DUP2 MSTORE PUSH1 0x20 ADD PUSH0 ISZERO ISZERO DUP2 MSTORE PUSH1 0x20 ADD PUSH0 ISZERO ISZERO DUP2 MSTORE POP PUSH0 DUP1 DUP6 DUP2 MSTORE PUSH1 0x20 ADD SWAP1 DUP2 MSTORE PUSH1 0x20 ADD PUSH0 KECCAK256 PUSH0 DUP3 ADD MLOAD DUP2 PUSH0 ADD PUSH0 PUSH2 0x100 EXP DUP2 SLOAD DUP2 PUSH20 0xFFFFFFFFFFFFFFFFFFFFFFFFFFFFFFFFFFFFFFFF MUL NOT AND SWAP1 DUP4 PUSH20 0xFFFFFFFFFFFFFFFFFFFFFFFFFFFFFFFFFFFFFFFF AND MUL OR SWAP1 SSTORE POP PUSH1 0x20 DUP3 ADD MLOAD DUP2 PUSH1 0x1 ADD PUSH0 PUSH2 0x100 EXP DUP2 SLOAD DUP2 PUSH20 0xFFFFFFFFFFFFFFFFFFFFFFFFFFFFFFFFFFFFFFFF MUL NOT AND SWAP1 DUP4 PUSH20 0xFFFFFFFFFFFFFFFFFFFFFFFFFFFFFFFFFFFFFFFF AND MUL OR SWAP1 SSTORE POP PUSH1 0x40 DUP3 ADD MLOAD DUP2 PUSH1 0x2 ADD SWAP1 DUP2 PUSH2 0x2DE SWAP2 SWAP1 PUSH2 0x1262 JUMP JUMPDEST POP PUSH1 0x60 DUP3 ADD MLOAD DUP2 PUSH1 0x3 ADD SSTORE PUSH1 0x80 DUP3 ADD MLOAD DUP2 PUSH1 0x4 ADD PUSH0 PUSH2 0x100 EXP DUP2 SLOAD DUP2 PUSH1 0xFF MUL NOT AND SWAP1 DUP4 ISZERO ISZERO MUL OR SWAP1 SSTORE POP PUSH1 0xA0 DUP3 ADD MLOAD DUP2 PUSH1 0x4 ADD PUSH1 0x1 PUSH2 0x100 EXP DUP2 SLOAD DUP2 PUSH1 0xFF MUL NOT AND SWAP1 DUP4 ISZERO ISZERO MUL OR SWAP1 SSTORE POP SWAP1 POP POP PUSH32 0x79316C6CB044CE8147D3A031EB8C26E06754DA3A9393A80D7619A0E1269675F DUP4 CALLER DUP5 CALLVALUE DUP6 PUSH1 0x40 MLOAD PUSH2 0x362 SWAP6 SWAP5 SWAP4 SWAP3 SWAP2 SWAP1 PUSH2 0x1383 JUMP JUMPDEST PUSH1 0x40 MLOAD DUP1 SWAP2 SUB SWAP1 LOG1 POP POP POP JUMP JUMPDEST DUP1 PUSH0 DUP1 DUP3 DUP2 MSTORE PUSH1 0x20 ADD SWAP1 DUP2 MSTORE PUSH1 0x20 ADD PUSH0 KECCAK256 PUSH0 ADD PUSH0 SWAP1 SLOAD SWAP1 PUSH2 0x100 EXP SWAP1 DIV PUSH20 0xFFFFFFFFFFFFFFFFFFFFFFFFFFFFFFFFFFFFFFFF AND PUSH20 0xFFFFFFFFFFFFFFFFFFFFFFFFFFFFFFFFFFFFFFFF AND CALLER PUSH20 0xFFFFFFFFFFFFFFFFFFFFFFFFFFFFFFFFFFFFFFFF AND EQ PUSH2 0x40F JUMPI PUSH1 0x40 MLOAD PUSH32 0x8C379A000000000000000000000000000000000000000000000000000000000 DUP2 MSTORE PUSH1 0x4 ADD PUSH2 0x406 SWAP1 PUSH2 0x144B JUMP JUMPDEST PUSH1 0x40 MLOAD DUP1 SWAP2 SUB SWAP1 REVERT JUMPDEST DUP2 PUSH0 DUP1 PUSH0 DUP4 DUP2 MSTORE PUSH1 0x20 ADD SWAP1 DUP2 MSTORE PUSH1 0x20 ADD PUSH0 KECCAK256 PUSH1 0x3 ADD SLOAD GT PUSH2 0x465 JUMPI PUSH1 0x40 MLOAD PUSH32 0x8C379A000000000000000000000000000000000000000000000000000000000 DUP2 MSTORE PUSH1 0x4 ADD PUSH2 0x45C SWAP1 PUSH2 0x14B3 JUMP JUMPDEST PUSH1 0x40 MLOAD DUP1 SWAP2 SUB SWAP1 REVERT JUMPDEST PUSH0 DUP1 DUP5 DUP2 MSTORE PUSH1 0x20 ADD SWAP1 DUP2 MSTORE PUSH1 0x20 ADD PUSH0 KECCAK256 PUSH1 0x4 ADD PUSH0 SWAP1 SLOAD SWAP1 PUSH2 0x100 EXP SWAP1 DIV PUSH1 0xFF AND PUSH2 0x4C4 JUMPI PUSH1 0x40 MLOAD PUSH32 0x8C379A000000000000000000000000000000000000000000000000000000000 DUP2 MSTORE PUSH1 0x4 ADD PUSH2 0x4BB SWAP1 PUSH2 0x151B JUMP JUMPDEST PUSH1 0x40 MLOAD DUP1 SWAP2 SUB SWAP1 REVERT JUMPDEST PUSH0 DUP1 DUP5 DUP2 MSTORE PUSH1 0x20 ADD SWAP1 DUP2 MSTORE PUSH1 0x20 ADD PUSH0 KECCAK256 PUSH1 0x4 ADD PUSH1 0x1 SWAP1 SLOAD SWAP1 PUSH2 0x100 EXP SWAP1 DIV PUSH1 0xFF AND ISZERO PUSH2 0x525 JUMPI PUSH1 0x40 MLOAD PUSH32 0x8C379A000000000000000000000000000000000000000000000000000000000 DUP2 MSTORE PUSH1 0x4 ADD PUSH2 0x51C SWAP1 PUSH2 0x1583 JUMP JUMPDEST PUSH1 0x40 MLOAD DUP1 SWAP2 SUB SWAP1 REVERT JUMPDEST PUSH1 0x1 PUSH0 DUP1 DUP6 DUP2 MSTORE PUSH1 0x20 ADD SWAP1 DUP2 MSTORE PUSH1 0x20 ADD PUSH0 KECCAK256 PUSH1 0x4 ADD PUSH1 0x1 PUSH2 0x100 EXP DUP2 SLOAD DUP2 PUSH1 0xFF MUL NOT AND SWAP1 DUP4 ISZERO ISZERO MUL OR SWAP1 SSTORE POP PUSH0 DUP1 DUP5 DUP2 MSTORE PUSH1 0x20 ADD SWAP1 DUP2 MSTORE PUSH1 0x20 ADD PUSH0 KECCAK256 PUSH1 0x1 ADD PUSH0 SWAP1 SLOAD SWAP1 PUSH2 0x100 EXP SWAP1 DIV PUSH20 0xFFFFFFFFFFFFFFFFFFFFFFFFFFFFFFFFFFFFFFFF AND PUSH20 0xFFFFFFFFFFFFFFFFFFFFFFFFFFFFFFFFFFFFFFFF AND PUSH2 0x8FC PUSH0 DUP1 DUP7 DUP2 MSTORE PUSH1 0x20 ADD SWAP1 DUP2 MSTORE PUSH1 0x20 ADD PUSH0 KECCAK256 PUSH1 0x3 ADD SLOAD SWAP1 DUP2 ISZERO MUL SWAP1 PUSH1 0x40 MLOAD PUSH0 PUSH1 0x40 MLOAD DUP1 DUP4 SUB DUP2 DUP6 DUP9 DUP9 CALL SWAP4 POP POP POP POP ISZERO DUP1 ISZERO PUSH2 0x5D9 JUMPI RETURNDATASIZE PUSH0 DUP1 RETURNDATACOPY RETURNDATASIZE PUSH0 REVERT JUMPDEST POP PUSH32 0x21D71DB5BE59BB9FA133895586B7404307DD33FB93B16DB09DC6F1D9D7D231B0 DUP4 PUSH0 DUP1 DUP7 DUP2 MSTORE PUSH1 0x20 ADD SWAP1 DUP2 MSTORE PUSH1 0x20 ADD PUSH0 KECCAK256 PUSH1 0x1 ADD PUSH0 SWAP1 SLOAD SWAP1 PUSH2 0x100 EXP SWAP1 DIV PUSH20 0xFFFFFFFFFFFFFFFFFFFFFFFFFFFFFFFFFFFFFFFF AND PUSH0 DUP1 DUP8 DUP2 MSTORE PUSH1 0x20 ADD SWAP1 DUP2 MSTORE PUSH1 0x20 ADD PUSH0 KECCAK256 PUSH1 0x3 ADD SLOAD PUSH1 0x40 MLOAD PUSH2 0x652 SWAP4 SWAP3 SWAP2 SWAP1 PUSH2 0x15A1 JUMP JUMPDEST PUSH1 0x40 MLOAD DUP1 SWAP2 SUB SWAP1 LOG1 POP POP POP JUMP JUMPDEST PUSH0 PUSH1 0x20 MSTORE DUP1 PUSH0 MSTORE PUSH1 0x40 PUSH0 KECCAK256 PUSH0 SWAP2 POP SWAP1 POP DUP1 PUSH0 ADD PUSH0 SWAP1 SLOAD SWAP1 PUSH2 0x100 EXP SWAP1 DIV PUSH20 0xFFFFFFFFFFFFFFFFFFFFFFFFFFFFFFFFFFFFFFFF AND SWAP1 DUP1 PUSH1 0x1 ADD PUSH0 SWAP1 SLOAD SWAP1 PUSH2 0x100 EXP SWAP1 DIV PUSH20 0xFFFFFFFFFFFFFFFFFFFFFFFFFFFFFFFFFFFFFFFF AND SWAP1 DUP1 PUSH1 0x2 ADD DUP1 SLOAD PUSH2 0x6C7 SWAP1 PUSH2 0x1095 JUMP JUMPDEST DUP1 PUSH1 0x1F ADD PUSH1 0x20 DUP1 SWAP2 DIV MUL PUSH1 0x20 ADD PUSH1 0x40 MLOAD SWAP1 DUP2 ADD PUSH1 0x40 MSTORE DUP1 SWAP3 SWAP2 SWAP1 DUP2 DUP2 MSTORE PUSH1 0x20 ADD DUP3 DUP1 SLOAD PUSH2 0x6F3 SWAP1 PUSH2 0x1095 JUMP JUMPDEST DUP1 ISZERO PUSH2 0x73E JUMPI DUP1 PUSH1 0x1F LT PUSH2 0x715 JUMPI PUSH2 0x100 DUP1 DUP4 SLOAD DIV MUL DUP4 MSTORE SWAP2 PUSH1 0x20 ADD SWAP2 PUSH2 0x73E JUMP JUMPDEST DUP3 ADD SWAP2 SWAP1 PUSH0 MSTORE PUSH1 0x20 PUSH0 KECCAK256 SWAP1 JUMPDEST DUP2 SLOAD DUP2 MSTORE SWAP1 PUSH1 0x1 ADD SWAP1 PUSH1 0x20 ADD DUP1 DUP4 GT PUSH2 0x721 JUMPI DUP3 SWAP1 SUB PUSH1 0x1F AND DUP3 ADD SWAP2 JUMPDEST POP POP POP POP POP SWAP1 DUP1 PUSH1 0x3 ADD SLOAD SWAP1 DUP1 PUSH1 0x4 ADD PUSH0 SWAP1 SLOAD SWAP1 PUSH2 0x100 EXP SWAP1 DIV PUSH1 0xFF AND SWAP1 DUP1 PUSH1 0x4 ADD PUSH1 0x1 SWAP1 SLOAD SWAP1 PUSH2 0x100 EXP SWAP1 DIV PUSH1 0xFF AND SWAP1 POP DUP7 JUMP JUMPDEST PUSH0 DUP1 PUSH1 0x60 PUSH0 DUP1 PUSH0 DUP7 PUSH0 DUP1 PUSH0 DUP4 DUP2 MSTORE PUSH1 0x20 ADD SWAP1 DUP2 MSTORE PUSH1 0x20 ADD PUSH0 KECCAK256 PUSH1 0x3 ADD SLOAD GT PUSH2 0x7D0 JUMPI PUSH1 0x40 MLOAD PUSH32 0x8C379A000000000000000000000000000000000000000000000000000000000 DUP2 MSTORE PUSH1 0x4 ADD PUSH2 0x7C7 SWAP1 PUSH2 0x14B3 JUMP JUMPDEST PUSH1 0x40 MLOAD DUP1 SWAP2 SUB SWAP1 REVERT JUMPDEST PUSH0 DUP1 PUSH0 DUP11 DUP2 MSTORE PUSH1 0x20 ADD SWAP1 DUP2 MSTORE PUSH1 0x20 ADD PUSH0 KECCAK256 PUSH1 0x40 MLOAD DUP1 PUSH1 0xC0 ADD PUSH1 0x40 MSTORE SWAP1 DUP2 PUSH0 DUP3 ADD PUSH0 SWAP1 SLOAD SWAP1 PUSH2 0x100 EXP SWAP1 DIV PUSH20 0xFFFFFFFFFFFFFFFFFFFFFFFFFFFFFFFFFFFFFFFF AND PUSH20 0xFFFFFFFFFFFFFFFFFFFFFFFFFFFFFFFFFFFFFFFF AND PUSH20 0xFFFFFFFFFFFFFFFFFFFFFFFFFFFFFFFFFFFFFFFF AND DUP2 MSTORE PUSH1 0x20 ADD PUSH1 0x1 DUP3 ADD PUSH0 SWAP1 SLOAD SWAP1 PUSH2 0x100 EXP SWAP1 DIV PUSH20 0xFFFFFFFFFFFFFFFFFFFFFFFFFFFFFFFFFFFFFFFF AND PUSH20 0xFFFFFFFFFFFFFFFFFFFFFFFFFFFFFFFFFFFFFFFF AND PUSH20 0xFFFFFFFFFFFFFFFFFFFFFFFFFFFFFFFFFFFFFFFF AND DUP2 MSTORE PUSH1 0x20 ADD PUSH1 0x2 DUP3 ADD DUP1 SLOAD PUSH2 0x8A5 SWAP1 PUSH2 0x1095 JUMP JUMPDEST DUP1 PUSH1 0x1F ADD PUSH1 0x20 DUP1 SWAP2 DIV MUL PUSH1 0x20 ADD PUSH1 0x40 MLOAD SWAP1 DUP2 ADD PUSH1 0x40 MSTORE DUP1 SWAP3 SWAP2 SWAP1 DUP2 DUP2 MSTORE PUSH1 0x20 ADD DUP3 DUP1 SLOAD PUSH2 0x8D1 SWAP1 PUSH2 0x1095 JUMP JUMPDEST DUP1 ISZERO PUSH2 0x91C JUMPI DUP1 PUSH1 0x1F LT PUSH2 0x8F3 JUMPI PUSH2 0x100 DUP1 DUP4 SLOAD DIV MUL DUP4 MSTORE SWAP2 PUSH1 0x20 ADD SWAP2 PUSH2 0x91C JUMP JUMPDEST DUP3 ADD SWAP2 SWAP1 PUSH0 MSTORE PUSH1 0x20 PUSH0 KECCAK256 SWAP1 JUMPDEST DUP2 SLOAD DUP2 MSTORE SWAP1 PUSH1 0x1 ADD SWAP1 PUSH1 0x20 ADD DUP1 DUP4 GT PUSH2 0x8FF JUMPI DUP3 SWAP1 SUB PUSH1 0x1F AND DUP3 ADD SWAP2 JUMPDEST POP POP POP POP POP DUP2 MSTORE PUSH1 0x20 ADD PUSH1 0x3 DUP3 ADD SLOAD DUP2 MSTORE PUSH1 0x20 ADD PUSH1 0x4 DUP3 ADD PUSH0 SWAP1 SLOAD SWAP1 PUSH2 0x100 EXP SWAP1 DIV PUSH1 0xFF AND ISZERO ISZERO ISZERO ISZERO DUP2 MSTORE PUSH1 0x20 ADD PUSH1 0x4 DUP3 ADD PUSH1 0x1 SWAP1 SLOAD SWAP1 PUSH2 0x100 EXP SWAP1 DIV PUSH1 0xFF AND ISZERO ISZERO ISZERO ISZERO DUP2 MSTORE POP POP SWAP1 POP DUP1 PUSH0 ADD MLOAD DUP2 PUSH1 0x20 ADD MLOAD DUP3 PUSH1 0x40 ADD MLOAD DUP4 PUSH1 0x60 ADD MLOAD DUP5 PUSH1 0x80 ADD MLOAD DUP6 PUSH1 0xA0 ADD MLOAD SWAP8 POP SWAP8 POP SWAP8 POP SWAP8 POP SWAP8 POP SWAP8 POP POP POP SWAP2 SWAP4 SWAP6 POP SWAP2 SWAP4 SWAP6 JUMP JUMPDEST DUP1 PUSH0 DUP1 DUP3 DUP2 MSTORE PUSH1 0x20 ADD SWAP1 DUP2 MSTORE PUSH1 0x20 ADD PUSH0 KECCAK256 PUSH0 ADD PUSH0 SWAP1 SLOAD SWAP1 PUSH2 0x100 EXP SWAP1 DIV PUSH20 0xFFFFFFFFFFFFFFFFFFFFFFFFFFFFFFFFFFFFFFFF AND PUSH20 0xFFFFFFFFFFFFFFFFFFFFFFFFFFFFFFFFFFFFFFFF AND CALLER PUSH20 0xFFFFFFFFFFFFFFFFFFFFFFFFFFFFFFFFFFFFFFFF AND EQ PUSH2 0xA3A JUMPI PUSH1 0x40 MLOAD PUSH32 0x8C379A000000000000000000000000000000000000000000000000000000000 DUP2 MSTORE PUSH1 0x4 ADD PUSH2 0xA31 SWAP1 PUSH2 0x144B JUMP JUMPDEST PUSH1 0x40 MLOAD DUP1 SWAP2 SUB SWAP1 REVERT JUMPDEST DUP2 PUSH0 DUP1 PUSH0 DUP4 DUP2 MSTORE PUSH1 0x20 ADD SWAP1 DUP2 MSTORE PUSH1 0x20 ADD PUSH0 KECCAK256 PUSH1 0x3 ADD SLOAD GT PUSH2 0xA90 JUMPI PUSH1 0x40 MLOAD PUSH32 0x8C379A000000000000000000000000000000000000000000000000000000000 DUP2 MSTORE PUSH1 0x4 ADD PUSH2 0xA87 SWAP1 PUSH2 0x14B3 JUMP JUMPDEST PUSH1 0x40 MLOAD DUP1 SWAP2 SUB SWAP1 REVERT JUMPDEST PUSH0 DUP1 DUP5 DUP2 MSTORE PUSH1 0x20 ADD SWAP1 DUP2 MSTORE PUSH1 0x20 ADD PUSH0 KECCAK256 PUSH1 0x4 ADD PUSH0 SWAP1 SLOAD SWAP1 PUSH2 0x100 EXP SWAP1 DIV PUSH1 0xFF AND ISZERO PUSH2 0xAF0 JUMPI PUSH1 0x40 MLOAD PUSH32 0x8C379A000000000000000000000000000000000000000000000000000000000 DUP2 MSTORE PUSH1 0x4 ADD PUSH2 0xAE7 SWAP1 PUSH2 0x1620 JUMP JUMPDEST PUSH1 0x40 MLOAD DUP1 SWAP2 SUB SWAP1 REVERT JUMPDEST PUSH1 0x1 PUSH0 DUP1 DUP6 DUP2 MSTORE PUSH1 0x20 ADD SWAP1 DUP2 MSTORE PUSH1 0x20 ADD PUSH0 KECCAK256 PUSH1 0x4 ADD PUSH0 PUSH2 0x100 EXP DUP2 SLOAD DUP2 PUSH1 0xFF MUL NOT AND SWAP1 DUP4 ISZERO ISZERO MUL OR SWAP1 SSTORE POP PUSH32 0x375B4005EEAE25D0E37D56E1B3841D3BB394B277EFA2548DE3293F5DCB7A3493 DUP4 PUSH1 0x40 MLOAD PUSH2 0xB4A SWAP2 SWAP1 PUSH2 0x163E JUMP JUMPDEST PUSH1 0x40 MLOAD DUP1 SWAP2 SUB SWAP1 LOG1 POP POP POP JUMP JUMPDEST PUSH0 PUSH1 0x40 MLOAD SWAP1 POP SWAP1 JUMP JUMPDEST PUSH0 DUP1 REVERT JUMPDEST PUSH0 DUP1 REVERT JUMPDEST PUSH0 DUP2 SWAP1 POP SWAP2 SWAP1 POP JUMP JUMPDEST PUSH2 0xB7A DUP2 PUSH2 0xB68 JUMP JUMPDEST DUP2 EQ PUSH2 0xB84 JUMPI PUSH0 DUP1 REVERT JUMPDEST POP JUMP JUMPDEST PUSH0 DUP2 CALLDATALOAD SWAP1 POP PUSH2 0xB95 DUP2 PUSH2 0xB71 JUMP JUMPDEST SWAP3 SWAP2 POP POP JUMP JUMPDEST PUSH0 PUSH20 0xFFFFFFFFFFFFFFFFFFFFFFFFFFFFFFFFFFFFFFFF DUP3 AND SWAP1 POP SWAP2 SWAP1 POP JUMP JUMPDEST PUSH0 PUSH2 0xBC4 DUP3 PUSH2 0xB9B JUMP JUMPDEST SWAP1 POP SWAP2 SWAP1 POP JUMP JUMPDEST PUSH2 0xBD4 DUP2 PUSH2 0xBBA JUMP JUMPDEST DUP2 EQ PUSH2 0xBDE JUMPI PUSH0 DUP1 REVERT JUMPDEST POP JUMP JUMPDEST PUSH0 DUP2 CALLDATALOAD SWAP1 POP PUSH2 0xBEF DUP2 PUSH2 0xBCB JUMP JUMPDEST SWAP3 SWAP2 POP POP JUMP JUMPDEST PUSH0 DUP1 REVERT JUMPDEST PUSH0 DUP1 REVERT JUMPDEST PUSH0 PUSH1 0x1F NOT PUSH1 0x1F DUP4 ADD AND SWAP1 POP SWAP2 SWAP1 POP JUMP JUMPDEST PUSH32 0x4E487B7100000000000000000000000000000000000000000000000000000000 PUSH0 MSTORE PUSH1 0x41 PUSH1 0x4 MSTORE PUSH1 0x24 PUSH0 REVERT JUMPDEST PUSH2 0xC43 DUP3 PUSH2 0xBFD JUMP JUMPDEST DUP2 ADD DUP2 DUP2 LT PUSH8 0xFFFFFFFFFFFFFFFF DUP3 GT OR ISZERO PUSH2 0xC62 JUMPI PUSH2 0xC61 PUSH2 0xC0D JUMP JUMPDEST JUMPDEST DUP1 PUSH1 0x40 MSTORE POP POP POP JUMP JUMPDEST PUSH0 PUSH2 0xC74 PUSH2 0xB57 JUMP JUMPDEST SWAP1 POP PUSH2 0xC80 DUP3 DUP3 PUSH2 0xC3A JUMP JUMPDEST SWAP2 SWAP1 POP JUMP JUMPDEST PUSH0 PUSH8 0xFFFFFFFFFFFFFFFF DUP3 GT ISZERO PUSH2 0xC9F JUMPI PUSH2 0xC9E PUSH2 0xC0D JUMP JUMPDEST JUMPDEST PUSH2 0xCA8 DUP3 PUSH2 0xBFD JUMP JUMPDEST SWAP1 POP PUSH1 0x20 DUP2 ADD SWAP1 POP SWAP2 SWAP1 POP JUMP JUMPDEST DUP3 DUP2 DUP4 CALLDATACOPY PUSH0 DUP4 DUP4 ADD MSTORE POP POP POP JUMP JUMPDEST PUSH0 PUSH2 0xCD5 PUSH2 0xCD0 DUP5 PUSH2 0xC85 JUMP JUMPDEST PUSH2 0xC6B JUMP JUMPDEST SWAP1 POP DUP3 DUP2 MSTORE PUSH1 0x20 DUP2 ADD DUP5 DUP5 DUP5 ADD GT ISZERO PUSH2 0xCF1 JUMPI PUSH2 0xCF0 PUSH2 0xBF9 JUMP JUMPDEST JUMPDEST PUSH2 0xCFC DUP5 DUP3 DUP6 PUSH2 0xCB5 JUMP JUMPDEST POP SWAP4 SWAP3 POP POP POP JUMP JUMPDEST PUSH0 DUP3 PUSH1 0x1F DUP4 ADD SLT PUSH2 0xD18 JUMPI PUSH2 0xD17 PUSH2 0xBF5 JUMP JUMPDEST JUMPDEST DUP2 CALLDATALOAD PUSH2 0xD28 DUP5 DUP3 PUSH1 0x20 DUP7 ADD PUSH2 0xCC3 JUMP JUMPDEST SWAP2 POP POP SWAP3 SWAP2 POP POP JUMP JUMPDEST PUSH0 DUP1 PUSH0 PUSH1 0x60 DUP5 DUP7 SUB SLT ISZERO PUSH2 0xD48 JUMPI PUSH2 0xD47 PUSH2 0xB60 JUMP JUMPDEST JUMPDEST PUSH0 PUSH2 0xD55 DUP7 DUP3 DUP8 ADD PUSH2 0xB87 JUMP JUMPDEST SWAP4 POP POP PUSH1 0x20 PUSH2 0xD66 DUP7 DUP3 DUP8 ADD PUSH2 0xBE1 JUMP JUMPDEST SWAP3 POP POP PUSH1 0x40 DUP5 ADD CALLDATALOAD PUSH8 0xFFFFFFFFFFFFFFFF DUP2 GT ISZERO PUSH2 0xD87 JUMPI PUSH2 0xD86 PUSH2 0xB64 JUMP JUMPDEST JUMPDEST PUSH2 0xD93 DUP7 DUP3 DUP8 ADD PUSH2 0xD04 JUMP JUMPDEST SWAP2 POP POP SWAP3 POP SWAP3 POP SWAP3 JUMP JUMPDEST PUSH0 PUSH1 0x20 DUP3 DUP5 SUB SLT ISZERO PUSH2 0xDB2 JUMPI PUSH2 0xDB1 PUSH2 0xB60 JUMP JUMPDEST JUMPDEST PUSH0 PUSH2 0xDBF DUP5 DUP3 DUP6 ADD PUSH2 0xB87 JUMP JUMPDEST SWAP2 POP POP SWAP3 SWAP2 POP POP JUMP JUMPDEST PUSH2 0xDD1 DUP2 PUSH2 0xBBA JUMP JUMPDEST DUP3 MSTORE POP POP JUMP JUMPDEST PUSH0 DUP2 MLOAD SWAP1 POP SWAP2 SWAP1 POP JUMP JUMPDEST PUSH0 DUP3 DUP3 MSTORE PUSH1 0x20 DUP3 ADD SWAP1 POP SWAP3 SWAP2 POP POP JUMP JUMPDEST DUP3 DUP2 DUP4 MCOPY PUSH0 DUP4 DUP4 ADD MSTORE POP POP POP JUMP JUMPDEST PUSH0 PUSH2 0xE09 DUP3 PUSH2 0xDD7 JUMP JUMPDEST PUSH2 0xE13 DUP2 DUP6 PUSH2 0xDE1 JUMP JUMPDEST SWAP4 POP PUSH2 0xE23 DUP2 DUP6 PUSH1 0x20 DUP7 ADD PUSH2 0xDF1 JUMP JUMPDEST PUSH2 0xE2C DUP2 PUSH2 0xBFD JUMP JUMPDEST DUP5 ADD SWAP2 POP POP SWAP3 SWAP2 POP POP JUMP JUMPDEST PUSH2 0xE40 DUP2 PUSH2 0xB68 JUMP JUMPDEST DUP3 MSTORE POP POP JUMP JUMPDEST PUSH0 DUP2 ISZERO ISZERO SWAP1 POP SWAP2 SWAP1 POP JUMP JUMPDEST PUSH2 0xE5A DUP2 PUSH2 0xE46 JUMP JUMPDEST DUP3 MSTORE POP POP JUMP JUMPDEST PUSH0 PUSH1 0xC0 DUP3 ADD SWAP1 POP PUSH2 0xE73 PUSH0 DUP4 ADD DUP10 PUSH2 0xDC8 JUMP JUMPDEST PUSH2 0xE80 PUSH1 0x20 DUP4 ADD DUP9 PUSH2 0xDC8 JUMP JUMPDEST DUP2 DUP2 SUB PUSH1 0x40 DUP4 ADD MSTORE PUSH2 0xE92 DUP2 DUP8 PUSH2 0xDFF JUMP JUMPDEST SWAP1 POP PUSH2 0xEA1 PUSH1 0x60 DUP4 ADD DUP7 PUSH2 0xE37 JUMP JUMPDEST PUSH2 0xEAE PUSH1 0x80 DUP4 ADD DUP6 PUSH2 0xE51 JUMP JUMPDEST PUSH2 0xEBB PUSH1 0xA0 DUP4 ADD DUP5 PUSH2 0xE51 JUMP JUMPDEST SWAP8 SWAP7 POP POP POP POP POP POP POP JUMP JUMPDEST PUSH0 PUSH2 0xED0 DUP3 PUSH2 0xB9B JUMP JUMPDEST SWAP1 POP SWAP2 SWAP1 POP JUMP JUMPDEST PUSH2 0xEE0 DUP2 PUSH2 0xEC6 JUMP JUMPDEST DUP3 MSTORE POP POP JUMP JUMPDEST PUSH0 PUSH1 0xC0 DUP3 ADD SWAP1 POP PUSH2 0xEF9 PUSH0 DUP4 ADD DUP10 PUSH2 0xED7 JUMP JUMPDEST PUSH2 0xF06 PUSH1 0x20 DUP4 ADD DUP9 PUSH2 0xED7 JUMP JUMPDEST DUP2 DUP2 SUB PUSH1 0x40 DUP4 ADD MSTORE PUSH2 0xF18 DUP2 DUP8 PUSH2 0xDFF JUMP JUMPDEST SWAP1 POP PUSH2 0xF27 PUSH1 0x60 DUP4 ADD DUP7 PUSH2 0xE37 JUMP JUMPDEST PUSH2 0xF34 PUSH1 0x80 DUP4 ADD DUP6 PUSH2 0xE51 JUMP JUMPDEST PUSH2 0xF41 PUSH1 0xA0 DUP4 ADD DUP5 PUSH2 0xE51 JUMP JUMPDEST SWAP8 SWAP7 POP POP POP POP POP POP POP JUMP JUMPDEST PUSH32 0x457363726F7720616D6F756E74206D7573742062652067726561746572207468 PUSH0 DUP3 ADD MSTORE PUSH32 0x616E207A65726F00000000000000000000000000000000000000000000000000 PUSH1 0x20 DUP3 ADD MSTORE POP JUMP JUMPDEST PUSH0 PUSH2 0xFA6 PUSH1 0x27 DUP4 PUSH2 0xDE1 JUMP JUMPDEST SWAP2 POP PUSH2 0xFB1 DUP3 PUSH2 0xF4C JUMP JUMPDEST PUSH1 0x40 DUP3 ADD SWAP1 POP SWAP2 SWAP1 POP JUMP JUMPDEST PUSH0 PUSH1 0x20 DUP3 ADD SWAP1 POP DUP2 DUP2 SUB PUSH0 DUP4 ADD MSTORE PUSH2 0xFD3 DUP2 PUSH2 0xF9A JUMP JUMPDEST SWAP1 POP SWAP2 SWAP1 POP JUMP JUMPDEST PUSH32 0x457363726F7720616C72656164792065786973747320666F722074686973206A PUSH0 DUP3 ADD MSTORE PUSH32 0x6F62000000000000000000000000000000000000000000000000000000000000 PUSH1 0x20 DUP3 ADD MSTORE POP JUMP JUMPDEST PUSH0 PUSH2 0x1034 PUSH1 0x22 DUP4 PUSH2 0xDE1 JUMP JUMPDEST SWAP2 POP PUSH2 0x103F DUP3 PUSH2 0xFDA JUMP JUMPDEST PUSH1 0x40 DUP3 ADD SWAP1 POP SWAP2 SWAP1 POP JUMP JUMPDEST PUSH0 PUSH1 0x20 DUP3 ADD SWAP1 POP DUP2 DUP2 SUB PUSH0 DUP4 ADD MSTORE PUSH2 0x1061 DUP2 PUSH2 0x1028 JUMP JUMPDEST SWAP1 POP SWAP2 SWAP1 POP JUMP JUMPDEST PUSH32 0x4E487B7100000000000000000000000000000000000000000000000000000000 PUSH0 MSTORE PUSH1 0x22 PUSH1 0x4 MSTORE PUSH1 0x24 PUSH0 REVERT JUMPDEST PUSH0 PUSH1 0x2 DUP3 DIV SWAP1 POP PUSH1 0x1 DUP3 AND DUP1 PUSH2 0x10AC JUMPI PUSH1 0x7F DUP3 AND SWAP2 POP JUMPDEST PUSH1 0x20 DUP3 LT DUP2 SUB PUSH2 0x10BF JUMPI PUSH2 0x10BE PUSH2 0x1068 JUMP JUMPDEST JUMPDEST POP SWAP2 SWAP1 POP JUMP JUMPDEST PUSH0 DUP2 SWAP1 POP DUP2 PUSH0 MSTORE PUSH1 0x20 PUSH0 KECCAK256 SWAP1 POP SWAP2 SWAP1 POP JUMP JUMPDEST PUSH0 PUSH1 0x20 PUSH1 0x1F DUP4 ADD DIV SWAP1 POP SWAP2 SWAP1 POP JUMP JUMPDEST PUSH0 DUP3 DUP3 SHL SWAP1 POP SWAP3 SWAP2 POP POP JUMP JUMPDEST PUSH0 PUSH1 0x8 DUP4 MUL PUSH2 0x1121 PUSH32 0xFFFFFFFFFFFFFFFFFFFFFFFFFFFFFFFFFFFFFFFFFFFFFFFFFFFFFFFFFFFFFFFF DUP3 PUSH2 0x10E6 JUMP JUMPDEST PUSH2 0x112B DUP7 DUP4 PUSH2 0x10E6 JUMP JUMPDEST SWAP6 POP DUP1 NOT DUP5 AND SWAP4 POP DUP1 DUP7 AND DUP5 OR SWAP3 POP POP POP SWAP4 SWAP3 POP POP POP JUMP JUMPDEST PUSH0 DUP2 SWAP1 POP SWAP2 SWAP1 POP JUMP JUMPDEST PUSH0 PUSH2 0x1166 PUSH2 0x1161 PUSH2 0x115C DUP5 PUSH2 0xB68 JUMP JUMPDEST PUSH2 0x1143 JUMP JUMPDEST PUSH2 0xB68 JUMP JUMPDEST SWAP1 POP SWAP2 SWAP1 POP JUMP JUMPDEST PUSH0 DUP2 SWAP1 POP SWAP2 SWAP1 POP JUMP JUMPDEST PUSH2 0x117F DUP4 PUSH2 0x114C JUMP JUMPDEST PUSH2 0x1193 PUSH2 0x118B DUP3 PUSH2 0x116D JUMP JUMPDEST DUP5 DUP5 SLOAD PUSH2 0x10F2 JUMP JUMPDEST DUP3 SSTORE POP POP POP POP JUMP JUMPDEST PUSH0 SWAP1 JUMP JUMPDEST PUSH2 0x11A7 PUSH2 0x119B JUMP JUMPDEST PUSH2 0x11B2 DUP2 DUP5 DUP5 PUSH2 0x1176 JUMP JUMPDEST POP POP POP JUMP JUMPDEST JUMPDEST DUP2 DUP2 LT ISZERO PUSH2 0x11D5 JUMPI PUSH2 0x11CA PUSH0 DUP3 PUSH2 0x119F JUMP JUMPDEST PUSH1 0x1 DUP2 ADD SWAP1 POP PUSH2 0x11B8 JUMP JUMPDEST POP POP JUMP JUMPDEST PUSH1 0x1F DUP3 GT ISZERO PUSH2 0x121A JUMPI PUSH2 0x11EB DUP2 PUSH2 0x10C5 JUMP JUMPDEST PUSH2 0x11F4 DUP5 PUSH2 0x10D7 JUMP JUMPDEST DUP2 ADD PUSH1 0x20 DUP6 LT ISZERO PUSH2 0x1203 JUMPI DUP2 SWAP1 POP JUMPDEST PUSH2 0x1217 PUSH2 0x120F DUP6 PUSH2 0x10D7 JUMP JUMPDEST DUP4 ADD DUP3 PUSH2 0x11B7 JUMP JUMPDEST POP POP JUMPDEST POP POP POP JUMP JUMPDEST PUSH0 DUP3 DUP3 SHR SWAP1 POP SWAP3 SWAP2 POP POP JUMP JUMPDEST PUSH0 PUSH2 0x123A PUSH0 NOT DUP5 PUSH1 0x8 MUL PUSH2 0x121F JUMP JUMPDEST NOT DUP1 DUP4 AND SWAP2 POP POP SWAP3 SWAP2 POP POP JUMP JUMPDEST PUSH0 PUSH2 0x1252 DUP4 DUP4 PUSH2 0x122B JUMP JUMPDEST SWAP2 POP DUP3 PUSH1 0x2 MUL DUP3 OR SWAP1 POP SWAP3 SWAP2 POP POP JUMP JUMPDEST PUSH2 0x126B DUP3 PUSH2 0xDD7 JUMP JUMPDEST PUSH8 0xFFFFFFFFFFFFFFFF DUP2 GT ISZERO PUSH2 0x1284 JUMPI PUSH2 0x1283 PUSH2 0xC0D JUMP JUMPDEST JUMPDEST PUSH2 0x128E DUP3 SLOAD PUSH2 0x1095 JUMP JUMPDEST PUSH2 0x1299 DUP3 DUP3 DUP6 PUSH2 0x11D9 JUMP JUMPDEST PUSH0 PUSH1 0x20 SWAP1 POP PUSH1 0x1F DUP4 GT PUSH1 0x1 DUP2 EQ PUSH2 0x12CA JUMPI PUSH0 DUP5 ISZERO PUSH2 0x12B8 JUMPI DUP3 DUP8 ADD MLOAD SWAP1 POP JUMPDEST PUSH2 0x12C2 DUP6 DUP3 PUSH2 0x1247 JUMP JUMPDEST DUP7 SSTORE POP PUSH2 0x1329 JUMP JUMPDEST PUSH1 0x1F NOT DUP5 AND PUSH2 0x12D8 DUP7 PUSH2 0x10C5 JUMP JUMPDEST PUSH0 JUMPDEST DUP3 DUP2 LT ISZERO PUSH2 0x12FF JUMPI DUP5 DUP10 ADD MLOAD DUP3 SSTORE PUSH1 0x1 DUP3 ADD SWAP2 POP PUSH1 0x20 DUP6 ADD SWAP5 POP PUSH1 0x20 DUP2 ADD SWAP1 POP PUSH2 0x12DA JUMP JUMPDEST DUP7 DUP4 LT ISZERO PUSH2 0x131C JUMPI DUP5 DUP10 ADD MLOAD PUSH2 0x1318 PUSH1 0x1F DUP10 AND DUP3 PUSH2 0x122B JUMP JUMPDEST DUP4 SSTORE POP JUMPDEST PUSH1 0x1 PUSH1 0x2 DUP9 MUL ADD DUP9 SSTORE POP POP POP JUMPDEST POP POP POP POP POP POP JUMP JUMPDEST PUSH0 PUSH2 0x134B PUSH2 0x1346 PUSH2 0x1341 DUP5 PUSH2 0xB9B JUMP JUMPDEST PUSH2 0x1143 JUMP JUMPDEST PUSH2 0xB9B JUMP JUMPDEST SWAP1 POP SWAP2 SWAP1 POP JUMP JUMPDEST PUSH0 PUSH2 0x135C DUP3 PUSH2 0x1331 JUMP JUMPDEST SWAP1 POP SWAP2 SWAP1 POP JUMP JUMPDEST PUSH0 PUSH2 0x136D DUP3 PUSH2 0x1352 JUMP JUMPDEST SWAP1 POP SWAP2 SWAP1 POP JUMP JUMPDEST PUSH2 0x137D DUP2 PUSH2 0x1363 JUMP JUMPDEST DUP3 MSTORE POP POP JUMP JUMPDEST PUSH0 PUSH1 0xA0 DUP3 ADD SWAP1 POP PUSH2 0x1396 PUSH0 DUP4 ADD DUP9 PUSH2 0xE37 JUMP JUMPDEST PUSH2 0x13A3 PUSH1 0x20 DUP4 ADD DUP8 PUSH2 0xED7 JUMP JUMPDEST PUSH2 0x13B0 PUSH1 0x40 DUP4 ADD DUP7 PUSH2 0x1374 JUMP JUMPDEST PUSH2 0x13BD PUSH1 0x60 DUP4 ADD DUP6 PUSH2 0xE37 JUMP JUMPDEST DUP2 DUP2 SUB PUSH1 0x80 DUP4 ADD MSTORE PUSH2 0x13CF DUP2 DUP5 PUSH2 0xDFF JUMP JUMPDEST SWAP1 POP SWAP7 SWAP6 POP POP POP POP POP POP JUMP JUMPDEST PUSH32 0x4F6E6C7920636C69656E742063616E20706572666F726D207468697320616374 PUSH0 DUP3 ADD MSTORE PUSH32 0x696F6E0000000000000000000000000000000000000000000000000000000000 PUSH1 0x20 DUP3 ADD MSTORE POP JUMP JUMPDEST PUSH0 PUSH2 0x1435 PUSH1 0x23 DUP4 PUSH2 0xDE1 JUMP JUMPDEST SWAP2 POP PUSH2 0x1440 DUP3 PUSH2 0x13DB JUMP JUMPDEST PUSH1 0x40 DUP3 ADD SWAP1 POP SWAP2 SWAP1 POP JUMP JUMPDEST PUSH0 PUSH1 0x20 DUP3 ADD SWAP1 POP DUP2 DUP2 SUB PUSH0 DUP4 ADD MSTORE PUSH2 0x1462 DUP2 PUSH2 0x1429 JUMP JUMPDEST SWAP1 POP SWAP2 SWAP1 POP JUMP JUMPDEST PUSH32 0x44656C697665727920646F6573206E6F74206578697374000000000000000000 PUSH0 DUP3 ADD MSTORE POP JUMP JUMPDEST PUSH0 PUSH2 0x149D PUSH1 0x17 DUP4 PUSH2 0xDE1 JUMP JUMPDEST SWAP2 POP PUSH2 0x14A8 DUP3 PUSH2 0x1469 JUMP JUMPDEST PUSH1 0x20 DUP3 ADD SWAP1 POP SWAP2 SWAP1 POP JUMP JUMPDEST PUSH0 PUSH1 0x20 DUP3 ADD SWAP1 POP DUP2 DUP2 SUB PUSH0 DUP4 ADD MSTORE PUSH2 0x14CA DUP2 PUSH2 0x1491 JUMP JUMPDEST SWAP1 POP SWAP2 SWAP1 POP JUMP JUMPDEST PUSH32 0x44656C6976657279206E6F7420636F6E6669726D656420796574000000000000 PUSH0 DUP3 ADD MSTORE POP JUMP JUMPDEST PUSH0 PUSH2 0x1505 PUSH1 0x1A DUP4 PUSH2 0xDE1 JUMP JUMPDEST SWAP2 POP PUSH2 0x1510 DUP3 PUSH2 0x14D1 JUMP JUMPDEST PUSH1 0x20 DUP3 ADD SWAP1 POP SWAP2 SWAP1 POP JUMP JUMPDEST PUSH0 PUSH1 0x20 DUP3 ADD SWAP1 POP DUP2 DUP2 SUB PUSH0 DUP4 ADD MSTORE PUSH2 0x1532 DUP2 PUSH2 0x14F9 JUMP JUMPDEST SWAP1 POP SWAP2 SWAP1 POP JUMP JUMPDEST PUSH32 0x46756E647320616C72656164792072656C656173656400000000000000000000 PUSH0 DUP3 ADD MSTORE POP JUMP JUMPDEST PUSH0 PUSH2 0x156D PUSH1 0x16 DUP4 PUSH2 0xDE1 JUMP JUMPDEST SWAP2 POP PUSH2 0x1578 DUP3 PUSH2 0x1539 JUMP JUMPDEST PUSH1 0x20 DUP3 ADD SWAP1 POP SWAP2 SWAP1 POP JUMP JUMPDEST PUSH0 PUSH1 0x20 DUP3 ADD SWAP1 POP DUP2 DUP2 SUB PUSH0 DUP4 ADD MSTORE PUSH2 0x159A DUP2 PUSH2 0x1561 JUMP JUMPDEST SWAP1 POP SWAP2 SWAP1 POP JUMP JUMPDEST PUSH0 PUSH1 0x60 DUP3 ADD SWAP1 POP PUSH2 0x15B4 PUSH0 DUP4 ADD DUP7 PUSH2 0xE37 JUMP JUMPDEST PUSH2 0x15C1 PUSH1 0x20 DUP4 ADD DUP6 PUSH2 0x1374 JUMP JUMPDEST PUSH2 0x15CE PUSH1 0x40 DUP4 ADD DUP5 PUSH2 0xE37 JUMP JUMPDEST SWAP5 SWAP4 POP POP POP POP JUMP JUMPDEST PUSH32 0x44656C697665727920616C726561647920636F6E6669726D6564000000000000 PUSH0 DUP3 ADD MSTORE POP JUMP JUMPDEST PUSH0 PUSH2 0x160A PUSH1 0x1A DUP4 PUSH2 0xDE1 JUMP JUMPDEST SWAP2 POP PUSH2 0x1615 DUP3 PUSH2 0x15D6 JUMP JUMPDEST PUSH1 0x20 DUP3 ADD SWAP1 POP SWAP2 SWAP1 POP JUMP JUMPDEST PUSH0 PUSH1 0x20 DUP3 ADD SWAP1 POP DUP2 DUP2 SUB PUSH0 DUP4 ADD MSTORE PUSH2 0x1637 DUP2 PUSH2 0x15FE JUMP JUMPDEST SWAP1 POP SWAP2 SWAP1 POP JUMP JUMPDEST PUSH0 PUSH1 0x20 DUP3 ADD SWAP1 POP PUSH2 0x1651 PUSH0 DUP4 ADD DUP5 PUSH2 0xE37 JUMP JUMPDEST SWAP3 SWAP2 POP POP JUMP INVALID LOG2 PUSH5 0x6970667358 0x22 SLT KECCAK256 CALLDATALOAD 0x2C GAS 0x1F 0x2F PUSH16 0xEF44F5E6779821EB4F7F37F015DB875 NUMBER ADD CODESIZE PUSH19 0x558F4769660D64736F6C634300081A00330000 "
				},
				"gasEstimates": {
					"creation": {
						"codeDepositCost": "1154600",
						"executionCost": "1198",
						"totalCost": "1155798"
					},
					"external": {
						"confirmDelivery(uint256)": "infinite",
						"createEscrow(uint256,address,string)": "infinite",
						"deliveries(uint256)": "infinite",
						"getDeliveryDetails(uint256)": "infinite",
						"releasePayment(uint256)": "infinite"
					}
				},
				"methodIdentifiers": {
					"confirmDelivery(uint256)": "fd84cb97",
					"createEscrow(uint256,address,string)": "5ca5f219",
					"deliveries(uint256)": "a9e4a324",
					"getDeliveryDetails(uint256)": "cb3918a8",
					"releasePayment(uint256)": "88685cd9"
				}
			},
			"storageLayout": {
				"storage": [
					{
						"astId": 19,
						"contract": "contract/escrow _contarct.sol:DeliveryEscrow",
						"label": "deliveries",
						"offset": 0,
						"slot": "0",
						"type": "t_mapping(t_uint256,t_struct(Delivery)14_storage)"
					}
				],
				"types": {
					"t_address_payable": {
						"encoding": "inplace",
						"label": "address payable",
						"numberOfBytes": "20"
					},
					"t_bool": {
						"encoding": "inplace",
						"label": "bool",
						"numberOfBytes": "1"
					},
					"t_mapping(t_uint256,t_struct(Delivery)14_storage)": {
						"encoding": "mapping",
						"key": "t_uint256",
						"label": "mapping(uint256 => struct DeliveryEscrow.Delivery)",
						"numberOfBytes": "32",
						"value": "t_struct(Delivery)14_storage"
					},
					"t_string_storage": {
						"encoding": "bytes",
						"label": "string",
						"numberOfBytes": "32"
					},
					"t_struct(Delivery)14_storage": {
						"encoding": "inplace",
						"label": "struct DeliveryEscrow.Delivery",
						"members": [
							{
								"astId": 3,
								"contract": "contract/escrow _contarct.sol:DeliveryEscrow",
								"label": "client",
								"offset": 0,
								"slot": "0",
								"type": "t_address_payable"
							},
							{
								"astId": 5,
								"contract": "contract/escrow _contarct.sol:DeliveryEscrow",
								"label": "contractor",
								"offset": 0,
								"slot": "1",
								"type": "t_address_payable"
							},
							{
								"astId": 7,
								"contract": "contract/escrow _contarct.sol:DeliveryEscrow",
								"label": "itemDetails",
								"offset": 0,
								"slot": "2",
								"type": "t_string_storage"
							},
							{
								"astId": 9,
								"contract": "contract/escrow _contarct.sol:DeliveryEscrow",
								"label": "amount",
								"offset": 0,
								"slot": "3",
								"type": "t_uint256"
							},
							{
								"astId": 11,
								"contract": "contract/escrow _contarct.sol:DeliveryEscrow",
								"label": "completed",
								"offset": 0,
								"slot": "4",
								"type": "t_bool"
							},
							{
								"astId": 13,
								"contract": "contract/escrow _contarct.sol:DeliveryEscrow",
								"label": "fundsReleased",
								"offset": 1,
								"slot": "4",
								"type": "t_bool"
							}
						],
						"numberOfBytes": "160"
					},
					"t_uint256": {
						"encoding": "inplace",
						"label": "uint256",
						"numberOfBytes": "32"
					}
				}
			},
			"userdoc": {
				"kind": "user",
				"methods": {},
				"version": 1
			}
		}
	}
}