{
  "_format": "hh-sol-artifact-1",
  "contractName": "DeliveryEscrow",
  "sourceName": "contracts/DeliveryEscrow.sol",
  "abi": [
    {
      "anonymous": false,
      "inputs": [
        {
          "indexed": false,
          "internalType": "uint256",
          "name": "jobId",
          "type": "uint256"
        }
      ],
      "name": "DeliveryConfirmed",
      "type": "event"
    },
    {
      "anonymous": false,
      "inputs": [
        {
          "indexed": false,
          "internalType": "uint256",
          "name": "jobId",
          "type": "uint256"
        },
        {
          "indexed": false,
          "internalType": "address",
          "name": "client",
          "type": "address"
        },
        {
          "indexed": false,
          "internalType": "address",
          "name": "contractor",
          "type": "address"
        },
        {
          "indexed": false,
          "internalType": "uint256",
          "name": "amount",
          "type": "uint256"
        },
        {
          "indexed": false,
          "internalType": "string",
          "name": "itemDetails",
          "type": "string"
        }
      ],
      "name": "EscrowCreated",
      "type": "event"
    },
    {
      "anonymous": false,
      "inputs": [
        {
          "indexed": false,
          "internalType": "uint256",
          "name": "jobId",
          "type": "uint256"
        },
        {
          "indexed": false,
          "internalType": "address",
          "name": "contractor",
          "type": "address"
        },
        {
          "indexed": false,
          "internalType": "uint256",
          "name": "amount",
          "type": "uint256"
        }
      ],
      "name": "PaymentReleased",
      "type": "event"
    },
    {
      "inputs": [
        {
          "internalType": "uint256",
          "name": "jobId",
          "type": "uint256"
        }
      ],
      "name": "confirmDelivery",
      "outputs": [],
      "stateMutability": "nonpayable",
      "type": "function"
    },
    {
      "inputs": [
        {
          "internalType": "uint256",
          "name": "jobId",
          "type": "uint256"
        },
        {
          "internalType": "address payable",
          "name": "contractor",
          "type": "address"
        },
        {
          "internalType": "string",
          "name": "itemDetails",
          "type": "string"
        }
      ],
      "name": "createEscrow",
      "outputs": [],
      "stateMutability": "payable",
      "type": "function"
    },
    {
      "inputs": [
        {
          "internalType": "uint256",
          "name": "",
          "type": "uint256"
        }
      ],
      "name": "deliveries",
      "outputs": [
        {
          "internalType": "address payable",
          "name": "client",
          "type": "address"
        },
        {
          "internalType": "address payable",
          "name": "contractor",
          "type": "address"
        },
        {
          "internalType": "string",
          "name": "itemDetails",
          "type": "string"
        },
        {
          "internalType": "uint256",
          "name": "amount",
          "type": "uint256"
        },
        {
          "internalType": "bool",
          "name": "completed",
          "type": "bool"
        },
        {
          "internalType": "bool",
          "name": "fundsReleased",
          "type": "bool"
        }
      ],
      "stateMutability": "view",
      "type": "function"
    },
    {
      "inputs": [
        {
          "internalType": "uint256",
          "name": "jobId",
          "type": "uint256"
        }
      ],
      "name": "getDeliveryDetails",
      "outputs": [
        {
          "internalType": "address",
          "name": "client",
          "type": "address"
        },
        {
          "internalType": "address",
          "name": "contractor",
          "type": "address"
        },
        {
          "internalType": "string",
          "name": "itemDetails",
          "type": "string"
        },
        {
          "internalType": "uint256",
          "name": "amount",
          "type": "uint256"
        },
        {
          "internalType": "bool",
          "name": "completed",
          "type": "bool"
        },
        {
          "internalType": "bool",
          "name": "fundsReleased",
          "type": "bool"
        }
      ],
      "stateMutability": "view",
      "type": "function"
    },
    {
      "inputs": [
        {
          "internalType": "uint256",
          "name": "jobId",
          "type": "uint256"
        }
      ],
      "name": "releasePayment",
      "outputs": [],
      "stateMutability": "nonpayable",
      "type": "function"
    }
  ],
  "bytecode": "0x608060405234801561001057600080fd5b5061175a806100206000396000f3fe60806040526004361061004a5760003560e01c80635ca5f2191461004f57806388685cd91461006b578063a9e4a32414610094578063cb3918a8146100d6578063fd84cb9714610118575b600080fd5b61006960048036038101906100649190610d9a565b610141565b005b34801561007757600080fd5b50610092600480360381019061008d9190610e09565b610382565b005b3480156100a057600080fd5b506100bb60048036038101906100b69190610e09565b61068d565b6040516100cd96959493929190610eee565b60405180910390f35b3480156100e257600080fd5b506100fd60048036038101906100f89190610e09565b6107ab565b60405161010f96959493929190610f77565b60405180910390f35b34801561012457600080fd5b5061013f600480360381019061013a9190610e09565b6109e2565b005b60003411610184576040517f08c379a000000000000000000000000000000000000000000000000000000000815260040161017b90611051565b60405180910390fd5b600080600085815260200190815260200160002060030154146101dc576040517f08c379a00000000000000000000000000000000000000000000000000000000081526004016101d3906110e3565b60405180910390fd5b6040518060c001604052803373ffffffffffffffffffffffffffffffffffffffff1681526020018373ffffffffffffffffffffffffffffffffffffffff1681526020018281526020013481526020016000151581526020016000151581525060008085815260200190815260200160002060008201518160000160006101000a81548173ffffffffffffffffffffffffffffffffffffffff021916908373ffffffffffffffffffffffffffffffffffffffff16021790555060208201518160010160006101000a81548173ffffffffffffffffffffffffffffffffffffffff021916908373ffffffffffffffffffffffffffffffffffffffff16021790555060408201518160020190816102f0919061130f565b506060820151816003015560808201518160040160006101000a81548160ff02191690831515021790555060a08201518160040160016101000a81548160ff0219169083151502179055509050507f079316c6cb044ce8147d3a031eb8c26e06754da3a9393a80d7619a0e1269675f8333843485604051610375959493929190611436565b60405180910390a1505050565b8060008082815260200190815260200160002060000160009054906101000a900473ffffffffffffffffffffffffffffffffffffffff1673ffffffffffffffffffffffffffffffffffffffff163373ffffffffffffffffffffffffffffffffffffffff1614610426576040517f08c379a000000000000000000000000000000000000000000000000000000000815260040161041d90611502565b60405180910390fd5b816000806000838152602001908152602001600020600301541161047f576040517f08c379a00000000000000000000000000000000000000000000000000000000081526004016104769061156e565b60405180910390fd5b60008084815260200190815260200160002060040160009054906101000a900460ff166104e1576040517f08c379a00000000000000000000000000000000000000000000000000000000081526004016104d8906115da565b60405180910390fd5b60008084815260200190815260200160002060040160019054906101000a900460ff1615610544576040517f08c379a000000000000000000000000000000000000000000000000000000000815260040161053b90611646565b60405180910390fd5b600160008085815260200190815260200160002060040160016101000a81548160ff02191690831515021790555060008084815260200190815260200160002060010160009054906101000a900473ffffffffffffffffffffffffffffffffffffffff1673ffffffffffffffffffffffffffffffffffffffff166108fc600080868152602001908152602001600020600301549081150290604051600060405180830381858888f19350505050158015610602573d6000803e3d6000fd5b507f21d71db5be59bb9fa133895586b7404307dd33fb93b16db09dc6f1d9d7d231b08360008086815260200190815260200160002060010160009054906101000a900473ffffffffffffffffffffffffffffffffffffffff166000808781526020019081526020016000206003015460405161068093929190611666565b60405180910390a1505050565b60006020528060005260406000206000915090508060000160009054906101000a900473ffffffffffffffffffffffffffffffffffffffff16908060010160009054906101000a900473ffffffffffffffffffffffffffffffffffffffff16908060020180546106fc90611132565b80601f016020809104026020016040519081016040528092919081815260200182805461072890611132565b80156107755780601f1061074a57610100808354040283529160200191610775565b820191906000526020600020905b81548152906001019060200180831161075857829003601f168201915b5050505050908060030154908060040160009054906101000a900460ff16908060040160019054906101000a900460ff16905086565b60008060606000806000866000806000838152602001908152602001600020600301541161080e576040517f08c379a00000000000000000000000000000000000000000000000000000000081526004016108059061156e565b60405180910390fd5b60008060008a81526020019081526020016000206040518060c00160405290816000820160009054906101000a900473ffffffffffffffffffffffffffffffffffffffff1673ffffffffffffffffffffffffffffffffffffffff1673ffffffffffffffffffffffffffffffffffffffff1681526020016001820160009054906101000a900473ffffffffffffffffffffffffffffffffffffffff1673ffffffffffffffffffffffffffffffffffffffff1673ffffffffffffffffffffffffffffffffffffffff1681526020016002820180546108e990611132565b80601f016020809104026020016040519081016040528092919081815260200182805461091590611132565b80156109625780601f1061093757610100808354040283529160200191610962565b820191906000526020600020905b81548152906001019060200180831161094557829003601f168201915b50505050508152602001600382015481526020016004820160009054906101000a900460ff161515151581526020016004820160019054906101000a900460ff1615151515815250509050806000015181602001518260400151836060015184608001518560a00151975097509750975097509750505091939550919395565b8060008082815260200190815260200160002060000160009054906101000a900473ffffffffffffffffffffffffffffffffffffffff1673ffffffffffffffffffffffffffffffffffffffff163373ffffffffffffffffffffffffffffffffffffffff1614610a86576040517f08c379a0000000000000000000000000000000000000000000000000000000008152600401610a7d90611502565b60405180910390fd5b8160008060008381526020019081526020016000206003015411610adf576040517f08c379a0000000000000000000000000000000000000000000000000000000008152600401610ad69061156e565b60405180910390fd5b60008084815260200190815260200160002060040160009054906101000a900460ff1615610b42576040517f08c379a0000000000000000000000000000000000000000000000000000000008152600401610b39906116e9565b60405180910390fd5b600160008085815260200190815260200160002060040160006101000a81548160ff0219169083151502179055507f375b4005eeae25d0e37d56e1b3841d3bb394b277efa2548de3293f5dcb7a349383604051610b9f9190611709565b60405180910390a1505050565b6000604051905090565b600080fd5b600080fd5b6000819050919050565b610bd381610bc0565b8114610bde57600080fd5b50565b600081359050610bf081610bca565b92915050565b600073ffffffffffffffffffffffffffffffffffffffff82169050919050565b6000610c2182610bf6565b9050919050565b610c3181610c16565b8114610c3c57600080fd5b50565b600081359050610c4e81610c28565b92915050565b600080fd5b600080fd5b6000601f19601f8301169050919050565b7f4e487b7100000000000000000000000000000000000000000000000000000000600052604160045260246000fd5b610ca782610c5e565b810181811067ffffffffffffffff82111715610cc657610cc5610c6f565b5b80604052505050565b6000610cd9610bac565b9050610ce58282610c9e565b919050565b600067ffffffffffffffff821115610d0557610d04610c6f565b5b610d0e82610c5e565b9050602081019050919050565b82818337600083830152505050565b6000610d3d610d3884610cea565b610ccf565b905082815260208101848484011115610d5957610d58610c59565b5b610d64848285610d1b565b509392505050565b600082601f830112610d8157610d80610c54565b5b8135610d91848260208601610d2a565b91505092915050565b600080600060608486031215610db357610db2610bb6565b5b6000610dc186828701610be1565b9350506020610dd286828701610c3f565b925050604084013567ffffffffffffffff811115610df357610df2610bbb565b5b610dff86828701610d6c565b9150509250925092565b600060208284031215610e1f57610e1e610bb6565b5b6000610e2d84828501610be1565b91505092915050565b610e3f81610c16565b82525050565b600081519050919050565b600082825260208201905092915050565b60005b83811015610e7f578082015181840152602081019050610e64565b60008484015250505050565b6000610e9682610e45565b610ea08185610e50565b9350610eb0818560208601610e61565b610eb981610c5e565b840191505092915050565b610ecd81610bc0565b82525050565b60008115159050919050565b610ee881610ed3565b82525050565b600060c082019050610f036000830189610e36565b610f106020830188610e36565b8181036040830152610f228187610e8b565b9050610f316060830186610ec4565b610f3e6080830185610edf565b610f4b60a0830184610edf565b979650505050505050565b6000610f6182610bf6565b9050919050565b610f7181610f56565b82525050565b600060c082019050610f8c6000830189610f68565b610f996020830188610f68565b8181036040830152610fab8187610e8b565b9050610fba6060830186610ec4565b610fc76080830185610edf565b610fd460a0830184610edf565b979650505050505050565b7f457363726f7720616d6f756e74206d757374206265206772656174657220746860008201527f616e207a65726f00000000000000000000000000000000000000000000000000602082015250565b600061103b602783610e50565b915061104682610fdf565b604082019050919050565b6000602082019050818103600083015261106a8161102e565b9050919050565b7f457363726f7720616c72656164792065786973747320666f722074686973206a60008201527f6f62000000000000000000000000000000000000000000000000000000000000602082015250565b60006110cd602283610e50565b91506110d882611071565b604082019050919050565b600060208201905081810360008301526110fc816110c0565b9050919050565b7f4e487b7100000000000000000000000000000000000000000000000000000000600052602260045260246000fd5b6000600282049050600182168061114a57607f821691505b60208210810361115d5761115c611103565b5b50919050565b60008190508160005260206000209050919050565b60006020601f8301049050919050565b600082821b905092915050565b6000600883026111c57fffffffffffffffffffffffffffffffffffffffffffffffffffffffffffffffff82611188565b6111cf8683611188565b95508019841693508086168417925050509392505050565b6000819050919050565b600061120c61120761120284610bc0565b6111e7565b610bc0565b9050919050565b6000819050919050565b611226836111f1565b61123a61123282611213565b848454611195565b825550505050565b600090565b61124f611242565b61125a81848461121d565b505050565b5b8181101561127e57611273600082611247565b600181019050611260565b5050565b601f8211156112c35761129481611163565b61129d84611178565b810160208510156112ac578190505b6112c06112b885611178565b83018261125f565b50505b505050565b600082821c905092915050565b60006112e6600019846008026112c8565b1980831691505092915050565b60006112ff83836112d5565b9150826002028217905092915050565b61131882610e45565b67ffffffffffffffff81111561133157611330610c6f565b5b61133b8254611132565b611346828285611282565b600060209050601f8311600181146113795760008415611367578287015190505b61137185826112f3565b8655506113d9565b601f19841661138786611163565b60005b828110156113af5784890151825560018201915060208501945060208101905061138a565b868310156113cc57848901516113c8601f8916826112d5565b8355505b6001600288020188555050505b505050505050565b60006113fc6113f76113f284610bf6565b6111e7565b610bf6565b9050919050565b600061140e826113e1565b9050919050565b600061142082611403565b9050919050565b61143081611415565b82525050565b600060a08201905061144b6000830188610ec4565b6114586020830187610f68565b6114656040830186611427565b6114726060830185610ec4565b81810360808301526114848184610e8b565b90509695505050505050565b7f4f6e6c7920636c69656e742063616e20706572666f726d20746869732061637460008201527f696f6e0000000000000000000000000000000000000000000000000000000000602082015250565b60006114ec602383610e50565b91506114f782611490565b604082019050919050565b6000602082019050818103600083015261151b816114df565b9050919050565b7f44656c697665727920646f6573206e6f74206578697374000000000000000000600082015250565b6000611558601783610e50565b915061156382611522565b602082019050919050565b600060208201905081810360008301526115878161154b565b9050919050565b7f44656c6976657279206e6f7420636f6e6669726d656420796574000000000000600082015250565b60006115c4601a83610e50565b91506115cf8261158e565b602082019050919050565b600060208201905081810360008301526115f3816115b7565b9050919050565b7f46756e647320616c72656164792072656c656173656400000000000000000000600082015250565b6000611630601683610e50565b915061163b826115fa565b602082019050919050565b6000602082019050818103600083015261165f81611623565b9050919050565b600060608201905061167b6000830186610ec4565b6116886020830185611427565b6116956040830184610ec4565b949350505050565b7f44656c697665727920616c726561647920636f6e6669726d6564000000000000600082015250565b60006116d3601a83610e50565b91506116de8261169d565b602082019050919050565b60006020820190508181036000830152611702816116c6565b9050919050565b600060208201905061171e6000830184610ec4565b9291505056fea26469706673582212203a02cf3e03c3c4ac67ebe41b5cf634d5714d9a9b66632c25136a340078bf417764736f6c63430008130033",
  "linkReferences": {},
  "deployedLinkReferences": {}
}